{
    "contractName": "Map",
    "abi": [
        {
            "anonymous": false,
            "inputs": [
                {
                    "indexed": true,
                    "internalType": "address",
                    "name": "previousOwner",
                    "type": "address"
                },
                {
                    "indexed": true,
                    "internalType": "address",
                    "name": "newOwner",
                    "type": "address"
                }
            ],
            "name": "OwnershipTransferred",
            "type": "event"
        },
        {
            "inputs": [],
            "name": "Treasury",
            "outputs": [
                {
                    "internalType": "contract ITreasury",
                    "name": "",
                    "type": "address"
                }
            ],
            "stateMutability": "view",
            "type": "function"
        },
        {
            "inputs": [
                {
                    "internalType": "address",
                    "name": "_player",
                    "type": "address"
                },
                {
                    "internalType": "uint256",
                    "name": "_x",
                    "type": "uint256"
                },
                {
                    "internalType": "uint256",
                    "name": "_y",
                    "type": "uint256"
                }
            ],
            "name": "_setPlayerLocation",
            "outputs": [],
            "stateMutability": "nonpayable",
            "type": "function"
        },
        {
            "inputs": [
                {
                    "internalType": "string",
                    "name": "_handle",
                    "type": "string"
                },
                {
                    "internalType": "address",
                    "name": "_contractAddress",
                    "type": "address"
                },
                {
                    "internalType": "bool",
                    "name": "_isActive",
                    "type": "bool"
                }
            ],
            "name": "addPlaceType",
            "outputs": [],
            "stateMutability": "nonpayable",
            "type": "function"
        },
        {
            "inputs": [
                {
                    "internalType": "uint256",
                    "name": "",
                    "type": "uint256"
                },
                {
                    "internalType": "uint256",
                    "name": "",
                    "type": "uint256"
                }
            ],
            "name": "coordinatePlaces",
            "outputs": [
                {
                    "internalType": "string",
                    "name": "name",
                    "type": "string"
                },
                {
                    "internalType": "string",
                    "name": "placeType",
                    "type": "string"
                },
                {
                    "internalType": "bool",
                    "name": "isDmz",
                    "type": "bool"
                },
                {
                    "internalType": "bool",
                    "name": "isRefinery",
                    "type": "bool"
                },
                {
                    "internalType": "bool",
                    "name": "isActive",
                    "type": "bool"
                }
            ],
            "stateMutability": "view",
            "type": "function"
        },
        {
            "inputs": [
                {
                    "internalType": "address",
                    "name": "_editor",
                    "type": "address"
                }
            ],
            "name": "deactivateEditor",
            "outputs": [],
            "stateMutability": "nonpayable",
            "type": "function"
        },
        {
            "inputs": [
                {
                    "internalType": "address",
                    "name": "",
                    "type": "address"
                }
            ],
            "name": "editor",
            "outputs": [
                {
                    "internalType": "bool",
                    "name": "",
                    "type": "bool"
                }
            ],
            "stateMutability": "view",
            "type": "function"
        },
        {
            "inputs": [
                {
                    "internalType": "uint256",
                    "name": "_lx",
                    "type": "uint256"
                },
                {
                    "internalType": "uint256",
                    "name": "_ly",
                    "type": "uint256"
                },
                {
                    "internalType": "uint256",
                    "name": "_rx",
                    "type": "uint256"
                },
                {
                    "internalType": "uint256",
                    "name": "_ry",
                    "type": "uint256"
                }
            ],
            "name": "getCoordinatePlaces",
            "outputs": [
                {
                    "components": [
                        {
                            "internalType": "string",
                            "name": "name",
                            "type": "string"
                        },
                        {
                            "internalType": "string",
                            "name": "placeType",
                            "type": "string"
                        },
                        {
                            "internalType": "bool",
                            "name": "isDmz",
                            "type": "bool"
                        },
                        {
                            "internalType": "bool",
                            "name": "isRefinery",
                            "type": "bool"
                        },
                        {
                            "internalType": "bool",
                            "name": "isActive",
                            "type": "bool"
                        }
                    ],
                    "internalType": "struct Map.Place[]",
                    "name": "",
                    "type": "tuple[]"
                }
            ],
            "stateMutability": "view",
            "type": "function"
        },
        {
            "inputs": [
                {
                    "internalType": "address",
                    "name": "_player",
                    "type": "address"
                },
                {
                    "internalType": "uint256",
                    "name": "_x",
                    "type": "uint256"
                },
                {
                    "internalType": "uint256",
                    "name": "_y",
                    "type": "uint256"
                }
            ],
            "name": "getDistanceFromPlayer",
            "outputs": [
                {
                    "internalType": "uint256",
                    "name": "",
                    "type": "uint256"
                }
            ],
            "stateMutability": "view",
            "type": "function"
        },
        {
            "inputs": [
                {
                    "internalType": "uint256",
                    "name": "_x",
                    "type": "uint256"
                },
                {
                    "internalType": "uint256",
                    "name": "_y",
                    "type": "uint256"
                }
            ],
            "name": "getPlace",
            "outputs": [
                {
                    "internalType": "string",
                    "name": "name",
                    "type": "string"
                },
                {
                    "internalType": "string",
                    "name": "placeType",
                    "type": "string"
                },
                {
                    "internalType": "bool",
                    "name": "isDmz",
                    "type": "bool"
                },
                {
                    "internalType": "bool",
                    "name": "isRefinery",
                    "type": "bool"
                },
                {
                    "internalType": "bool",
                    "name": "isActive",
                    "type": "bool"
                }
            ],
            "stateMutability": "view",
            "type": "function"
        },
        {
            "inputs": [
                {
                    "internalType": "string",
                    "name": "_handle",
                    "type": "string"
                }
            ],
            "name": "getPlaceType",
            "outputs": [
                {
                    "components": [
                        {
                            "internalType": "string",
                            "name": "handle",
                            "type": "string"
                        },
                        {
                            "internalType": "address",
                            "name": "contractAddress",
                            "type": "address"
                        },
                        {
                            "internalType": "bool",
                            "name": "isActive",
                            "type": "bool"
                        }
                    ],
                    "internalType": "struct Map.PlaceType",
                    "name": "",
                    "type": "tuple"
                }
            ],
            "stateMutability": "view",
            "type": "function"
        },
        {
            "inputs": [
                {
                    "internalType": "address",
                    "name": "_player",
                    "type": "address"
                }
            ],
            "name": "getPlayerLocation",
            "outputs": [
                {
                    "internalType": "uint256",
                    "name": "x",
                    "type": "uint256"
                },
                {
                    "internalType": "uint256",
                    "name": "y",
                    "type": "uint256"
                }
            ],
            "stateMutability": "view",
            "type": "function"
        },
        {
            "inputs": [
                {
                    "internalType": "uint256",
                    "name": "_x",
                    "type": "uint256"
                },
                {
                    "internalType": "uint256",
                    "name": "_y",
                    "type": "uint256"
                }
            ],
            "name": "getPlayersAtLocation",
            "outputs": [
                {
                    "internalType": "address[]",
                    "name": "",
                    "type": "address[]"
                }
            ],
            "stateMutability": "view",
            "type": "function"
        },
        {
            "inputs": [
                {
                    "internalType": "address",
                    "name": "_editor",
                    "type": "address"
                }
            ],
            "name": "isEditor",
            "outputs": [
                {
                    "internalType": "bool",
                    "name": "",
                    "type": "bool"
                }
            ],
            "stateMutability": "view",
            "type": "function"
        },
        {
            "inputs": [
                {
                    "internalType": "uint256",
                    "name": "_x",
                    "type": "uint256"
                },
                {
                    "internalType": "uint256",
                    "name": "_y",
                    "type": "uint256"
                }
            ],
            "name": "isRefinery",
            "outputs": [
                {
                    "internalType": "bool",
                    "name": "",
                    "type": "bool"
                }
            ],
            "stateMutability": "view",
            "type": "function"
        },
        {
            "inputs": [],
            "name": "owner",
            "outputs": [
                {
                    "internalType": "address",
                    "name": "",
                    "type": "address"
                }
            ],
            "stateMutability": "view",
            "type": "function"
        },
        {
            "inputs": [],
            "name": "playerCount",
            "outputs": [
                {
                    "internalType": "uint256",
                    "name": "",
                    "type": "uint256"
                }
            ],
            "stateMutability": "view",
            "type": "function"
        },
        {
            "inputs": [
                {
                    "internalType": "uint256",
                    "name": "",
                    "type": "uint256"
                }
            ],
            "name": "playerList",
            "outputs": [
                {
                    "internalType": "address",
                    "name": "",
                    "type": "address"
                }
            ],
            "stateMutability": "view",
            "type": "function"
        },
        {
            "inputs": [],
            "name": "renounceOwnership",
            "outputs": [],
            "stateMutability": "nonpayable",
            "type": "function"
        },
        {
            "inputs": [
                {
                    "internalType": "address[]",
                    "name": "_editor",
                    "type": "address[]"
                }
            ],
            "name": "setEditor",
            "outputs": [],
            "stateMutability": "nonpayable",
            "type": "function"
        },
        {
            "inputs": [
                {
                    "internalType": "address",
                    "name": "_sender",
                    "type": "address"
                }
            ],
            "name": "setInitialLocation",
            "outputs": [],
            "stateMutability": "nonpayable",
            "type": "function"
        },
        {
            "inputs": [
                {
                    "internalType": "uint256",
                    "name": "_x",
                    "type": "uint256"
                },
                {
                    "internalType": "uint256",
                    "name": "_y",
                    "type": "uint256"
                },
                {
                    "internalType": "string",
                    "name": "_name",
                    "type": "string"
                },
                {
                    "internalType": "string",
                    "name": "_placeType",
                    "type": "string"
                },
                {
                    "internalType": "bool",
                    "name": "_isDmz",
                    "type": "bool"
                },
                {
                    "internalType": "bool",
                    "name": "_isRefinery",
                    "type": "bool"
                },
                {
                    "internalType": "bool",
                    "name": "_isActive",
                    "type": "bool"
                }
            ],
            "name": "setPlace",
            "outputs": [],
            "stateMutability": "nonpayable",
            "type": "function"
        },
        {
            "inputs": [
                {
                    "internalType": "address",
                    "name": "newOwner",
                    "type": "address"
                }
            ],
            "name": "transferOwnership",
            "outputs": [],
            "stateMutability": "nonpayable",
            "type": "function"
        },
        {
            "inputs": [
                {
                    "internalType": "uint256",
                    "name": "_x",
                    "type": "uint256"
                },
                {
                    "internalType": "uint256",
                    "name": "_y",
                    "type": "uint256"
                }
            ],
            "name": "travel",
            "outputs": [],
            "stateMutability": "nonpayable",
            "type": "function"
        },
        {
            "inputs": [],
            "name": "travelCost",
            "outputs": [
                {
                    "internalType": "uint256",
                    "name": "",
                    "type": "uint256"
                }
            ],
            "stateMutability": "view",
            "type": "function"
        }
    ],
    "bytecode": "6080604052662386f26fc1000060035534801561001b57600080fd5b506100253361002a565b61007a565b600080546001600160a01b038381166001600160a01b0319831681178455604051919092169283917f8be0079c531659141344cd1fd0a4f28419497f9722a3daafe3b4186f6b6457e09190a35050565b611fe8806100896000396000f3fe608060405234801561001057600080fd5b50600436106101585760003560e01c8063715018a6116100c3578063ad2e27bc1161007c578063ad2e27bc1461030e578063ae6d90731461032e578063c077ff9214610341578063cb7869fd14610354578063e01ae6861461037c578063f2fde38b146103b257600080fd5b8063715018a6146102b357806389efec43146102bb5780638da5cb5b146102ce57806393f99d5a146102df57806395e8996b146102f2578063a0748154146102fb57600080fd5b80633f3ee8da116101155780633f3ee8da1461021c5780634d7a0c771461022f5780634fc4979814610242578063502241bf14610262578063563df32f1461027557806364e51a8d146102a057600080fd5b8063045d7c881461015d57806318bcf0921461018a578063233daaf71461019f578063302bcc57146101d257806335d67602146101e95780633ecd299514610209575b600080fd5b61017061016b366004611a65565b6103c5565b604051610181959493929190611ca2565b60405180910390f35b61019d610198366004611a65565b61053a565b005b6101c26101ad36600461188f565b60016020526000908152604090205460ff1681565b6040519015158152602001610181565b6101db60055481565b604051908152602001610181565b6101fc6101f7366004611b30565b61064e565b6040516101819190611bf7565b61019d6102173660046118b1565b610956565b61019d61022a36600461188f565b610993565b6101db61023d3660046118b1565b610abe565b610255610250366004611998565b610b52565b6040516101819190611d1c565b61019d6102703660046118e4565b610d39565b600254610288906001600160a01b031681565b6040516001600160a01b039091168152602001610181565b61019d6102ae36600461188f565b610e64565b61019d610f1d565b61019d6102c9366004611a87565b610f53565b6000546001600160a01b0316610288565b6101706102ed366004611a65565b611017565b6101db60035481565b6101c261030936600461188f565b61116a565b61032161031c366004611a65565b61119f565b6040516101819190611baa565b61028861033c366004611a33565b61134c565b61019d61034f3660046119d5565b611376565b61036761036236600461188f565b61142c565b60408051928352602083019190915201610181565b6101c261038a366004611a65565b6000918252600660209081526040808420928452919052902060020154610100900460ff1690565b61019d6103c036600461188f565b6114ad565b6000828152600660209081526040808320848452909152812060028101548154606093849390928392839291600183019160ff8083169261010081048216926201000090910490911690859061041a90611f20565b80601f016020809104026020016040519081016040528092919081815260200182805461044690611f20565b80156104935780601f1061046857610100808354040283529160200191610493565b820191906000526020600020905b81548152906001019060200180831161047657829003601f168201915b505050505094508380546104a690611f20565b80601f01602080910402602001604051908101604052809291908181526020018280546104d290611f20565b801561051f5780601f106104f45761010080835404028352916020019161051f565b820191906000526020600020905b81548152906001019060200180831161050257829003601f168201915b50505050509350945094509450945094509295509295909350565b6002546040805163e532a8bf60e01b815290516000926001600160a01b03169163e532a8bf916004808301926020929190829003018186803b15801561057f57600080fd5b505afa158015610593573d6000803e3d6000fd5b505050506040513d601f19601f820116820180604052508101906105b79190611a4c565b6003546105c5338686610abe565b6105cf9190611ebe565b6105d99190611ebe565b600254604051636203b43b60e11b8152336004820152602481018390529192506001600160a01b03169063c407687690604401600060405180830381600087803b15801561062657600080fd5b505af115801561063a573d6000803e3d6000fd5b50505050610649338484610956565b505050565b6060600061065c8685611edd565b610667906001611d96565b905060006106758685611edd565b610680906001611d96565b9050600061068e8284611ebe565b905061010061069d8385611ebe565b106106ef5760405162461bcd60e51b815260206004820152601a60248201527f4d41503a20546f6f206d756368206461746120696e206c6f6f7000000000000060448201526064015b60405180910390fd5b60008167ffffffffffffffff81111561070a5761070a611f9c565b60405190808252806020026020018201604052801561076657816020015b6040805160a0810182526060808252602082018190526000928201839052810182905260808101919091528152602001906001900390816107285790505b5090506000895b88811161094757895b88811161093457600082815260066020908152604080832084845290915290819020815160a081019092528054829082906107b090611f20565b80601f01602080910402602001604051908101604052809291908181526020018280546107dc90611f20565b80156108295780601f106107fe57610100808354040283529160200191610829565b820191906000526020600020905b81548152906001019060200180831161080c57829003601f168201915b5050505050815260200160018201805461084290611f20565b80601f016020809104026020016040519081016040528092919081815260200182805461086e90611f20565b80156108bb5780601f10610890576101008083540402835291602001916108bb565b820191906000526020600020905b81548152906001019060200180831161089e57829003601f168201915b50505091835250506002919091015460ff80821615156020840152610100820481161515604084015262010000909104161515606090910152845185908590811061090857610908611f86565b6020026020010181905250828061091e90611f55565b935050808061092c90611f55565b915050610776565b508061093f81611f55565b91505061076d565b50909998505050505050505050565b60408051808201825283815260208082018490526001600160a01b038616600090815260079091529190912061098d9160026116e5565b50505050565b6001600160a01b03811660009081526008602052604090205460ff16151560011415610a0b5760405162461bcd60e51b815260206004820152602160248201527f4d41503a20506c6179657220697320616c7265616479207265676973746572656044820152601960fa1b60648201526084016106e6565b6001600160a01b0381166000818152600860209081526040808320805460ff191660011790558051808201825283815280830184905293835260079091529020610a56916002611730565b5060058054906000610a6783611f55565b9091555050600480546001810182556000919091527f8a35acfbc15ff81a39ae7d344fd709f28e8600b4aa8c65c6b64bfe7fe36bd19b0180546001600160a01b0319166001600160a01b0392909216919091179055565b6001600160a01b038316600090815260076020526040812080548291908290610ae957610ae9611f86565b90600052602060002001549050600060076000876001600160a01b03166001600160a01b03168152602001908152602001600020600181548110610b2f57610b2f611f86565b90600052602060002001549050610b4882828787611548565b5050509392505050565b60408051606080820183528152600060208201819052918101829052905b600954811015610d3357610c3060098281548110610b9057610b90611f86565b90600052602060002090600202016000018054610bac90611f20565b80601f0160208091040260200160405190810160405280929190818152602001828054610bd890611f20565b8015610c255780601f10610bfa57610100808354040283529160200191610c25565b820191906000526020600020905b815481529060010190602001808311610c0857829003601f168201915b5050505050846115c4565b15610d215760098181548110610c4857610c48611f86565b9060005260206000209060020201604051806060016040529081600082018054610c7190611f20565b80601f0160208091040260200160405190810160405280929190818152602001828054610c9d90611f20565b8015610cea5780601f10610cbf57610100808354040283529160200191610cea565b820191906000526020600020905b815481529060010190602001808311610ccd57829003601f168201915b5050509183525050600191909101546001600160a01b0381166020830152600160a01b900460ff1615156040909101529392505050565b80610d2b81611f55565b915050610b70565b50919050565b6000546001600160a01b03163314610d635760405162461bcd60e51b81526004016106e690611ce7565b60005b8151811015610e605760016000838381518110610d8557610d85611f86565b6020908102919091018101516001600160a01b031682528101919091526040016000205460ff1615610e055760405162461bcd60e51b8152602060048201526024808201527f445259444f434b3a204164647265737320697320616c7265616479206120656460448201526334ba37b960e11b60648201526084016106e6565b6001806000848481518110610e1c57610e1c611f86565b6020908102919091018101516001600160a01b03168252810191909152604001600020805460ff191691151591909117905580610e5881611f55565b915050610d66565b5050565b6000546001600160a01b03163314610e8e5760405162461bcd60e51b81526004016106e690611ce7565b6001600160a01b03811660009081526001602081905260409091205460ff16151514610efc5760405162461bcd60e51b815260206004820181905260248201527f445259444f434b3a2041646472657373206973206e6f74206120656469746f7260448201526064016106e6565b6001600160a01b03166000908152600160205260409020805460ff19169055565b6000546001600160a01b03163314610f475760405162461bcd60e51b81526004016106e690611ce7565b610f51600061162b565b565b6040805160a0810182528681526020808201879052851515828401528415156060830152831515608083015260008a8152600682528381208a82528252929092208151805192939192610fa99284920190611770565b506020828101518051610fc29260018501920190611770565b5060408201516002909101805460608401516080909401511515620100000262ff0000199415156101000261ff00199415159490941661ffff1990921691909117929092179290921617905550505050505050565b600660209081526000928352604080842090915290825290208054819061103d90611f20565b80601f016020809104026020016040519081016040528092919081815260200182805461106990611f20565b80156110b65780601f1061108b576101008083540402835291602001916110b6565b820191906000526020600020905b81548152906001019060200180831161109957829003601f168201915b5050505050908060010180546110cb90611f20565b80601f01602080910402602001604051908101604052809291908181526020018280546110f790611f20565b80156111445780601f1061111957610100808354040283529160200191611144565b820191906000526020600020905b81548152906001019060200180831161112757829003601f168201915b5050506002909301549192505060ff808216916101008104821691620100009091041685565b6001600160a01b038116600090815260016020819052604082205460ff16151514611196576000611199565b60015b92915050565b60045460609060009067ffffffffffffffff8111156111c0576111c0611f9c565b6040519080825280602002602001820160405280156111e9578160200160208202803683370190505b5090506000805b6004546111ff90600190611edd565b8110156113425785600760006004848154811061121e5761121e611f86565b60009182526020808320909101546001600160a01b031683528201929092526040018120805490919061125357611253611f86565b90600052602060002001541480156112c2575084600760006004848154811061127e5761127e611f86565b60009182526020808320909101546001600160a01b031683528201929092526040019020805460019081106112b5576112b5611f86565b9060005260206000200154145b1561133057600481815481106112da576112da611f86565b9060005260206000200160009054906101000a90046001600160a01b031683838151811061130a5761130a611f86565b6001600160a01b03909216602092830291909101909101528161132c81611f55565b9250505b8061133a81611f55565b9150506111f0565b5090949350505050565b6004818154811061135c57600080fd5b6000918252602090912001546001600160a01b0316905081565b604080516060810182528481526001600160a01b038416602080830191909152831515928201929092526009805460018101825560009190915281518051929360029092027f6e1540171b6c0c960b71a7020d9f60077f6af931a8bbf590da0223dacf75c7af01926113eb9284920190611770565b506020820151600190910180546040909301511515600160a01b026001600160a81b03199093166001600160a01b0390921691909117919091179055505050565b6001600160a01b03811660009081526007602052604081208054829190829061145757611457611f86565b906000526020600020015460076000856001600160a01b03166001600160a01b0316815260200190815260200160002060018154811061149957611499611f86565b906000526020600020015491509150915091565b6000546001600160a01b031633146114d75760405162461bcd60e51b81526004016106e690611ce7565b6001600160a01b03811661153c5760405162461bcd60e51b815260206004820152602660248201527f4f776e61626c653a206e6577206f776e657220697320746865207a65726f206160448201526564647265737360d01b60648201526084016106e6565b6115458161162b565b50565b6000808386116115615761155c8685611edd565b61156b565b61156b8487611edd565b90506000838611611585576115808685611edd565b61158f565b61158f8487611edd565b90506115b961159f600283611e13565b6115aa600285611e13565b6115b49190611d96565b61167b565b979650505050505050565b6000816040516020016115d79190611b8e565b60405160208183030381529060405280519060200120836040516020016115fe9190611b8e565b60405160208183030381529060405280519060200120141561162257506001611199565b50600092915050565b600080546001600160a01b038381166001600160a01b0319831681178455604051919092169283917f8be0079c531659141344cd1fd0a4f28419497f9722a3daafe3b4186f6b6457e09190a35050565b600060038211156116d65750806000611695600283611dae565b6116a0906001611d96565b90505b81811015610d33579050806002816116bb8186611dae565b6116c59190611d96565b6116cf9190611dae565b90506116a3565b81156116e0575060015b919050565b828054828255906000526020600020908101928215611720579160200282015b82811115611720578251825591602001919060010190611705565b5061172c9291506117e3565b5090565b828054828255906000526020600020908101928215611720579160200282015b82811115611720578251829060ff16905591602001919060010190611750565b82805461177c90611f20565b90600052602060002090601f01602090048101928261179e5760008555611720565b82601f106117b757805160ff1916838001178555611720565b828001600101855582156117205791820182811115611720578251825591602001919060010190611705565b5b8082111561172c57600081556001016117e4565b80356001600160a01b03811681146116e057600080fd5b803580151581146116e057600080fd5b600082601f83011261183057600080fd5b813567ffffffffffffffff81111561184a5761184a611f9c565b61185d601f8201601f1916602001611d65565b81815284602083860101111561187257600080fd5b816020850160208301376000918101602001919091529392505050565b6000602082840312156118a157600080fd5b6118aa826117f8565b9392505050565b6000806000606084860312156118c657600080fd5b6118cf846117f8565b95602085013595506040909401359392505050565b600060208083850312156118f757600080fd5b823567ffffffffffffffff8082111561190f57600080fd5b818501915085601f83011261192357600080fd5b81358181111561193557611935611f9c565b8060051b9150611946848301611d65565b8181528481019084860184860187018a101561196157600080fd5b600095505b8386101561198b57611977816117f8565b835260019590950194918601918601611966565b5098975050505050505050565b6000602082840312156119aa57600080fd5b813567ffffffffffffffff8111156119c157600080fd5b6119cd8482850161181f565b949350505050565b6000806000606084860312156119ea57600080fd5b833567ffffffffffffffff811115611a0157600080fd5b611a0d8682870161181f565b935050611a1c602085016117f8565b9150611a2a6040850161180f565b90509250925092565b600060208284031215611a4557600080fd5b5035919050565b600060208284031215611a5e57600080fd5b5051919050565b60008060408385031215611a7857600080fd5b50508035926020909101359150565b600080600080600080600060e0888a031215611aa257600080fd5b8735965060208801359550604088013567ffffffffffffffff80821115611ac857600080fd5b611ad48b838c0161181f565b965060608a0135915080821115611aea57600080fd5b50611af78a828b0161181f565b945050611b066080890161180f565b9250611b1460a0890161180f565b9150611b2260c0890161180f565b905092959891949750929550565b60008060008060808587031215611b4657600080fd5b5050823594602084013594506040840135936060013592509050565b60008151808452611b7a816020860160208601611ef4565b601f01601f19169290920160200192915050565b60008251611ba0818460208701611ef4565b9190910192915050565b6020808252825182820181905260009190848201906040850190845b81811015611beb5783516001600160a01b031683529284019291840191600101611bc6565b50909695505050505050565b60006020808301818452808551808352604092508286019150828160051b87010184880160005b83811015611c9457603f19898403018552815160a08151818652611c4482870182611b62565b915050888201518582038a870152611c5c8282611b62565b838a01511515878b01526060808501511515908801526080938401511515939096019290925250509386019390860190600101611c1e565b509098975050505050505050565b60a081526000611cb560a0830188611b62565b8281036020840152611cc78188611b62565b951515604084015250509115156060830152151560809091015292915050565b6020808252818101527f4f776e61626c653a2063616c6c6572206973206e6f7420746865206f776e6572604082015260600190565b602081526000825160606020840152611d386080840182611b62565b60208501516001600160a01b03166040858101919091529094015115156060909301929092525090919050565b604051601f8201601f1916810167ffffffffffffffff81118282101715611d8e57611d8e611f9c565b604052919050565b60008219821115611da957611da9611f70565b500190565b600082611dcb57634e487b7160e01b600052601260045260246000fd5b500490565b600181815b80851115611e0b578160001904821115611df157611df1611f70565b80851615611dfe57918102915b93841c9390800290611dd5565b509250929050565b60006118aa60ff841683600082611e2c57506001611199565b81611e3957506000611199565b8160018114611e4f5760028114611e5957611e75565b6001915050611199565b60ff841115611e6a57611e6a611f70565b50506001821b611199565b5060208310610133831016604e8410600b8410161715611e98575081810a611199565b611ea28383611dd0565b8060001904821115611eb657611eb6611f70565b029392505050565b6000816000190483118215151615611ed857611ed8611f70565b500290565b600082821015611eef57611eef611f70565b500390565b60005b83811015611f0f578181015183820152602001611ef7565b8381111561098d5750506000910152565b600181811c90821680611f3457607f821691505b60208210811415610d3357634e487b7160e01b600052602260045260246000fd5b6000600019821415611f6957611f69611f70565b5060010190565b634e487b7160e01b600052601160045260246000fd5b634e487b7160e01b600052603260045260246000fd5b634e487b7160e01b600052604160045260246000fdfea264697066735822122016b95f2a4e0ba64fd72e1748bf1cf694c339167557e540823ac4eb487798886864736f6c63430008070033",
    "sourcePath": "d:/Novaria/contracts/Map.sol",
    "compiler": {
        "name": "solc",
        "version": "0.8.7+commit.e28d00a7"
    },
    "functionHashes": {
        "Treasury()": "563df32f",
        "_setPlayerLocation(address,uint256,uint256)": "3ecd2995",
        "addPlaceType(string,address,bool)": "c077ff92",
        "coordinatePlaces(uint256,uint256)": "93f99d5a",
        "deactivateEditor(address)": "64e51a8d",
        "editor(address)": "233daaf7",
        "getCoordinatePlaces(uint256,uint256,uint256,uint256)": "35d67602",
        "getDistanceFromPlayer(address,uint256,uint256)": "4d7a0c77",
        "getPlace(uint256,uint256)": "045d7c88",
        "getPlaceType(string)": "4fc49798",
        "getPlayerLocation(address)": "cb7869fd",
        "getPlayersAtLocation(uint256,uint256)": "ad2e27bc",
        "isEditor(address)": "a0748154",
        "isRefinery(uint256,uint256)": "e01ae686",
        "owner()": "8da5cb5b",
        "playerCount()": "302bcc57",
        "playerList(uint256)": "ae6d9073",
        "renounceOwnership()": "715018a6",
        "setEditor(address[])": "502241bf",
        "setInitialLocation(address)": "3f3ee8da",
        "setPlace(uint256,uint256,string,string,bool,bool,bool)": "89efec43",
        "transferOwnership(address)": "f2fde38b",
        "travel(uint256,uint256)": "18bcf092",
        "travelCost()": "95e8996b"
    },
    "gasEstimates": {
        "creation": {
            "codeDepositCost": "1633600",
            "executionCost": "49662",
            "totalCost": "1683262"
        },
        "external": {
            "Treasury()": "2448",
            "_setPlayerLocation(address,uint256,uint256)": "infinite",
            "addPlaceType(string,address,bool)": "infinite",
            "coordinatePlaces(uint256,uint256)": "infinite",
            "deactivateEditor(address)": "29105",
            "editor(address)": "2599",
            "getCoordinatePlaces(uint256,uint256,uint256,uint256)": "infinite",
            "getDistanceFromPlayer(address,uint256,uint256)": "infinite",
            "getPlace(uint256,uint256)": "infinite",
            "getPlaceType(string)": "infinite",
            "getPlayerLocation(address)": "9262",
            "getPlayersAtLocation(uint256,uint256)": "infinite",
            "isEditor(address)": "2747",
            "isRefinery(uint256,uint256)": "2672",
            "owner()": "2398",
            "playerCount()": "2385",
            "playerList(uint256)": "4658",
            "renounceOwnership()": "28137",
            "setEditor(address[])": "infinite",
            "setInitialLocation(address)": "infinite",
            "setPlace(uint256,uint256,string,string,bool,bool,bool)": "infinite",
            "transferOwnership(address)": "28441",
            "travel(uint256,uint256)": "infinite",
            "travelCost()": "2406"
        }
    }
}