{
    "contractName": "PlaceManager",
    "abi": [
        {
            "inputs": [
                {
                    "internalType": "contract IMap",
                    "name": "_map",
                    "type": "address"
                },
                {
                    "internalType": "contract ShibaBEP20",
                    "name": "_nova",
                    "type": "address"
                },
                {
                    "internalType": "contract IFleet",
                    "name": "_fleet",
                    "type": "address"
                },
                {
                    "internalType": "contract IShadowPool",
                    "name": "_shadowPool",
                    "type": "address"
                }
            ],
            "stateMutability": "nonpayable",
            "type": "constructor"
        },
        {
            "anonymous": false,
            "inputs": [
                {
                    "indexed": true,
                    "internalType": "address",
                    "name": "previousOwner",
                    "type": "address"
                },
                {
                    "indexed": true,
                    "internalType": "address",
                    "name": "newOwner",
                    "type": "address"
                }
            ],
            "name": "OwnershipTransferred",
            "type": "event"
        },
        {
            "inputs": [],
            "name": "Fleet",
            "outputs": [
                {
                    "internalType": "contract IFleet",
                    "name": "",
                    "type": "address"
                }
            ],
            "stateMutability": "view",
            "type": "function"
        },
        {
            "inputs": [],
            "name": "Map",
            "outputs": [
                {
                    "internalType": "contract IMap",
                    "name": "",
                    "type": "address"
                }
            ],
            "stateMutability": "view",
            "type": "function"
        },
        {
            "inputs": [],
            "name": "Nova",
            "outputs": [
                {
                    "internalType": "contract ShibaBEP20",
                    "name": "",
                    "type": "address"
                }
            ],
            "stateMutability": "view",
            "type": "function"
        },
        {
            "inputs": [],
            "name": "ShadowPool",
            "outputs": [
                {
                    "internalType": "contract IShadowPool",
                    "name": "",
                    "type": "address"
                }
            ],
            "stateMutability": "view",
            "type": "function"
        },
        {
            "inputs": [],
            "name": "allocateNova",
            "outputs": [],
            "stateMutability": "nonpayable",
            "type": "function"
        },
        {
            "inputs": [
                {
                    "internalType": "uint256",
                    "name": "_starId",
                    "type": "uint256"
                },
                {
                    "internalType": "uint256",
                    "name": "_x",
                    "type": "uint256"
                },
                {
                    "internalType": "uint256",
                    "name": "_y",
                    "type": "uint256"
                }
            ],
            "name": "createJackpot",
            "outputs": [],
            "stateMutability": "nonpayable",
            "type": "function"
        },
        {
            "inputs": [
                {
                    "internalType": "uint256",
                    "name": "_x",
                    "type": "uint256"
                },
                {
                    "internalType": "uint256",
                    "name": "_y",
                    "type": "uint256"
                }
            ],
            "name": "createStar",
            "outputs": [],
            "stateMutability": "nonpayable",
            "type": "function"
        },
        {
            "inputs": [
                {
                    "internalType": "address",
                    "name": "_editor",
                    "type": "address"
                }
            ],
            "name": "deactivateEditor",
            "outputs": [],
            "stateMutability": "nonpayable",
            "type": "function"
        },
        {
            "inputs": [
                {
                    "internalType": "address",
                    "name": "",
                    "type": "address"
                }
            ],
            "name": "editor",
            "outputs": [
                {
                    "internalType": "bool",
                    "name": "",
                    "type": "bool"
                }
            ],
            "stateMutability": "view",
            "type": "function"
        },
        {
            "inputs": [
                {
                    "internalType": "uint256",
                    "name": "_x",
                    "type": "uint256"
                },
                {
                    "internalType": "uint256",
                    "name": "_y",
                    "type": "uint256"
                }
            ],
            "name": "getJackpotNova",
            "outputs": [
                {
                    "internalType": "uint256",
                    "name": "",
                    "type": "uint256"
                }
            ],
            "stateMutability": "view",
            "type": "function"
        },
        {
            "inputs": [
                {
                    "internalType": "address",
                    "name": "_player",
                    "type": "address"
                }
            ],
            "name": "getUserUNova",
            "outputs": [
                {
                    "internalType": "uint256",
                    "name": "",
                    "type": "uint256"
                }
            ],
            "stateMutability": "view",
            "type": "function"
        },
        {
            "inputs": [
                {
                    "internalType": "uint256",
                    "name": "_x",
                    "type": "uint256"
                },
                {
                    "internalType": "uint256",
                    "name": "_y",
                    "type": "uint256"
                }
            ],
            "name": "harvest",
            "outputs": [],
            "stateMutability": "nonpayable",
            "type": "function"
        },
        {
            "inputs": [
                {
                    "internalType": "address",
                    "name": "_editor",
                    "type": "address"
                }
            ],
            "name": "isEditor",
            "outputs": [
                {
                    "internalType": "bool",
                    "name": "",
                    "type": "bool"
                }
            ],
            "stateMutability": "view",
            "type": "function"
        },
        {
            "inputs": [
                {
                    "internalType": "uint256",
                    "name": "",
                    "type": "uint256"
                }
            ],
            "name": "jackpots",
            "outputs": [
                {
                    "internalType": "uint256",
                    "name": "coordX",
                    "type": "uint256"
                },
                {
                    "internalType": "uint256",
                    "name": "coordY",
                    "type": "uint256"
                },
                {
                    "internalType": "uint256",
                    "name": "starDist",
                    "type": "uint256"
                },
                {
                    "internalType": "uint256",
                    "name": "availableNova",
                    "type": "uint256"
                },
                {
                    "internalType": "uint256",
                    "name": "starId",
                    "type": "uint256"
                }
            ],
            "stateMutability": "view",
            "type": "function"
        },
        {
            "inputs": [],
            "name": "owner",
            "outputs": [
                {
                    "internalType": "address",
                    "name": "",
                    "type": "address"
                }
            ],
            "stateMutability": "view",
            "type": "function"
        },
        {
            "inputs": [],
            "name": "refine",
            "outputs": [],
            "stateMutability": "nonpayable",
            "type": "function"
        },
        {
            "inputs": [],
            "name": "renounceOwnership",
            "outputs": [],
            "stateMutability": "nonpayable",
            "type": "function"
        },
        {
            "inputs": [],
            "name": "requestNova",
            "outputs": [],
            "stateMutability": "nonpayable",
            "type": "function"
        },
        {
            "inputs": [],
            "name": "rewardsMod",
            "outputs": [
                {
                    "internalType": "uint256",
                    "name": "",
                    "type": "uint256"
                }
            ],
            "stateMutability": "view",
            "type": "function"
        },
        {
            "inputs": [
                {
                    "internalType": "address[]",
                    "name": "_editor",
                    "type": "address[]"
                }
            ],
            "name": "setEditor",
            "outputs": [],
            "stateMutability": "nonpayable",
            "type": "function"
        },
        {
            "inputs": [],
            "name": "setInitial",
            "outputs": [],
            "stateMutability": "nonpayable",
            "type": "function"
        },
        {
            "inputs": [
                {
                    "internalType": "uint256",
                    "name": "_new",
                    "type": "uint256"
                }
            ],
            "name": "setRewardsMod",
            "outputs": [],
            "stateMutability": "nonpayable",
            "type": "function"
        },
        {
            "inputs": [],
            "name": "starTotal",
            "outputs": [
                {
                    "internalType": "uint256",
                    "name": "",
                    "type": "uint256"
                }
            ],
            "stateMutability": "view",
            "type": "function"
        },
        {
            "inputs": [
                {
                    "internalType": "uint256",
                    "name": "",
                    "type": "uint256"
                }
            ],
            "name": "stars",
            "outputs": [
                {
                    "internalType": "uint256",
                    "name": "coordX",
                    "type": "uint256"
                },
                {
                    "internalType": "uint256",
                    "name": "coordY",
                    "type": "uint256"
                },
                {
                    "internalType": "uint256",
                    "name": "size",
                    "type": "uint256"
                },
                {
                    "internalType": "uint256",
                    "name": "novaBalance",
                    "type": "uint256"
                },
                {
                    "internalType": "uint256",
                    "name": "unrefinedBalance",
                    "type": "uint256"
                }
            ],
            "stateMutability": "view",
            "type": "function"
        },
        {
            "inputs": [
                {
                    "internalType": "address",
                    "name": "newOwner",
                    "type": "address"
                }
            ],
            "name": "transferOwnership",
            "outputs": [],
            "stateMutability": "nonpayable",
            "type": "function"
        },
        {
            "inputs": [
                {
                    "internalType": "address",
                    "name": "_sender",
                    "type": "address"
                },
                {
                    "internalType": "address",
                    "name": "_receiver",
                    "type": "address"
                },
                {
                    "internalType": "uint256",
                    "name": "_percent",
                    "type": "uint256"
                }
            ],
            "name": "transferUNova",
            "outputs": [],
            "stateMutability": "nonpayable",
            "type": "function"
        },
        {
            "inputs": [
                {
                    "internalType": "uint256",
                    "name": "_amount",
                    "type": "uint256"
                }
            ],
            "name": "withdrawNOVA",
            "outputs": [],
            "stateMutability": "nonpayable",
            "type": "function"
        }
    ],
    "bytecode": "60806040523480156200001157600080fd5b50604051620023a5380380620023a58339810160408190526200003491620000f2565b6200003f33620000a2565b600280546001600160a01b039586166001600160a01b031991821617909155600380549286169282169290921790915560048054938516938216939093179092556005805491909316911617905560016006556000600781905560085562000173565b600080546001600160a01b038381166001600160a01b0319831681178455604051919092169283917f8be0079c531659141344cd1fd0a4f28419497f9722a3daafe3b4186f6b6457e09190a35050565b600080600080608085870312156200010957600080fd5b845162000116816200015a565b602086015190945062000129816200015a565b60408601519093506200013c816200015a565b60608601519092506200014f816200015a565b939692955090935050565b6001600160a01b03811681146200017057600080fd5b50565b61222280620001836000396000f3fe608060405234801561001057600080fd5b50600436106101a95760003560e01c806377398c9c116100f9578063d5d72a3811610097578063ecacf11a11610071578063ecacf11a146103a1578063f2fde38b146103b4578063f644350c146103c7578063fda01763146103cf57600080fd5b8063d5d72a3814610368578063e4a4b7b11461037b578063ec557f401461038e57600080fd5b80638e18977f116100d35780638e18977f14610327578063a07481541461032f578063a361d34114610342578063bde8e5dc1461035557600080fd5b806377398c9c146102fa57806386a07a0b146103035780638da5cb5b1461031657600080fd5b8063502241bf11610166578063685c634211610140578063685c63421461029b5780636a611d6c146102d65780636b49e17b146102e9578063715018a6146102f257600080fd5b8063502241bf1461026d5780635eedfeb71461028057806364e51a8d1461028857600080fd5b806310a6cfdc146101ae57806312e9ff2a146101d45780631bb63d0c146101e7578063233daaf7146102125780632d03dc601461024557806333ad0e931461025a575b600080fd5b6101c16101bc366004611d7c565b6103d7565b6040519081526020015b60405180910390f35b6101c16101e2366004611ef3565b610433565b6004546101fa906001600160a01b031681565b6040516001600160a01b0390911681526020016101cb565b610235610220366004611d7c565b60016020526000908152604090205460ff1681565b60405190151581526020016101cb565b610258610253366004611d97565b61047d565b005b610258610268366004611ec1565b610605565b61025861027b366004611dd3565b61068e565b6102586107b9565b610258610296366004611d7c565b61088e565b6102ae6102a9366004611ec1565b610947565b604080519586526020860194909452928401919091526060830152608082015260a0016101cb565b6102586102e4366004611ef3565b610988565b6101c160065481565b610258610aee565b6101c1600d5481565b6003546101fa906001600160a01b031681565b6000546001600160a01b03166101fa565b610258610b22565b61023561033d366004611d7c565b610b64565b610258610350366004611f39565b610b98565b6102ae610363366004611ec1565b610d96565b610258610376366004611ec1565b610da6565b610258610389366004611ef3565b610dea565b6002546101fa906001600160a01b031681565b6005546101fa906001600160a01b031681565b6102586103c2366004611d7c565b611277565b61025861130f565b61025861163d565b60008060005b600b546103ec90600190612122565b81101561042c57336000908152600f602090815260408083208484529091529020546104189083611fe9565b91508061042481612165565b9150506103dd565b5092915050565b6000828152600a602090815260408083208484529091528120546009805482908110610461576104616121c0565b9060005260206000209060050201600301549150505b92915050565b600060648261048b866103d7565b6104959190612103565b61049f9190612001565b905060005b600b546104b390600190612122565b8110156105fe575b81156105ec576001600160a01b0385166000908152600f60209081526040808320848452909152902054821161058c576001600160a01b0385166000908152600f6020908152604080832084845290915281205490929061051d908290612122565b6001600160a01b038088166000908152600f60208181526040808420888552825280842095909555928916825282528281208582529091522054610562908290611fe9565b6001600160a01b0386166000908152600f60209081526040808320868452909152902055506104bb565b6001600160a01b0385166000908152600f602090815260408083208484529091529020546105ba8184612122565b6001600160a01b0387166000908152600f6020908152604080832086845290915290205490935061051d908290612122565b806105f681612165565b9150506104a4565b5050505050565b6000546001600160a01b031633146106385760405162461bcd60e51b815260040161062f90611fb4565b60405180910390fd5b60648111156106895760405162461bcd60e51b815260206004820152601c60248201527f504c4143454d414e414745523a206d757374206265203c3d2031303000000000604482015260640161062f565b600655565b6000546001600160a01b031633146106b85760405162461bcd60e51b815260040161062f90611fb4565b60005b81518110156107b557600160008383815181106106da576106da6121c0565b6020908102919091018101516001600160a01b031682528101919091526040016000205460ff161561075a5760405162461bcd60e51b8152602060048201526024808201527f445259444f434b3a204164647265737320697320616c7265616479206120656460448201526334ba37b960e11b606482015260840161062f565b6001806000848481518110610771576107716121c0565b6020908102919091018101516001600160a01b03168252810191909152604001600020805460ff1916911515919091179055806107ad81612165565b9150506106bb565b5050565b6000546001600160a01b031633146107e35760405162461bcd60e51b815260040161062f90611fb4565b600854421061088c5760035460065460405163d41c0b2f60e01b815230600482015260248101919091526001600160a01b039091169063d41c0b2f90604401602060405180830381600087803b15801561083c57600080fd5b505af1158015610850573d6000803e3d6000fd5b505050506040513d601f19601f820116820180604052508101906108749190611eda565b5061088142613840611fe9565b60085561088c61130f565b565b6000546001600160a01b031633146108b85760405162461bcd60e51b815260040161062f90611fb4565b6001600160a01b03811660009081526001602081905260409091205460ff161515146109265760405162461bcd60e51b815260206004820181905260248201527f445259444f434b3a2041646472657373206973206e6f74206120656469746f72604482015260640161062f565b6001600160a01b03166000908152600160205260409020805460ff19169055565b600b818154811061095757600080fd5b6000918252602090912060059091020180546001820154600283015460038401546004909401549294509092909185565b6000546001600160a01b031633146109b25760405162461bcd60e51b815260040161062f90611fb4565b600b5460006109c1600a611952565b6040805160a081018252868152602080820187815282840185815260006060850181815260808601828152600b805460018101825590845296517f0175b7a638427703f0dbe7bb9bbf987a2551717b34e79f33b5b1008d1fa01db960059098029788015593517f0175b7a638427703f0dbe7bb9bbf987a2551717b34e79f33b5b1008d1fa01dba87015591517f0175b7a638427703f0dbe7bb9bbf987a2551717b34e79f33b5b1008d1fa01dbb86015590517f0175b7a638427703f0dbe7bb9bbf987a2551717b34e79f33b5b1008d1fa01dbc85015590517f0175b7a638427703f0dbe7bb9bbf987a2551717b34e79f33b5b1008d1fa01dbd90930192909255878252600c8152828220878352905220839055600d54909150610ae5908290611fe9565b600d5550505050565b6000546001600160a01b03163314610b185760405162461bcd60e51b815260040161062f90611fb4565b61088c6000611996565b6000546001600160a01b03163314610b4c5760405162461bcd60e51b815260040161062f90611fb4565b610b57600080610988565b61088c6000806000610b98565b6001600160a01b038116600090815260016020819052604082205460ff16151514610b90576000610477565b600192915050565b6000546001600160a01b03163314610bc25760405162461bcd60e51b815260040161062f90611fb4565b600954600b80546000919086908110610bdd57610bdd6121c0565b90600052602060002090600502016000015490506000600b8681548110610c0657610c066121c0565b600091825260208220600160059092020101549150610c4f610c2984600a612103565b610c3484600a612103565b610c3f89600a612103565b610c4a89600a612103565b6119e6565b6040805160a0810182528881526020808201898152828401858152600060608501818152608086018f81526009805460018101825590845296517f6e1540171b6c0c960b71a7020d9f60077f6af931a8bbf590da0223dacf75c7af60059098029788015593517f6e1540171b6c0c960b71a7020d9f60077f6af931a8bbf590da0223dacf75c7b087015591517f6e1540171b6c0c960b71a7020d9f60077f6af931a8bbf590da0223dacf75c7b186015590517f6e1540171b6c0c960b71a7020d9f60077f6af931a8bbf590da0223dacf75c7b285015590517f6e1540171b6c0c960b71a7020d9f60077f6af931a8bbf590da0223dacf75c7b390930192909255898252600a815282822089835281528282208890558a8252600e90522054909150610d7b908290611fe9565b6000978852600e602052604090972096909655505050505050565b6009818154811061095757600080fd5b6000546001600160a01b03163314610dd05760405162461bcd60e51b815260040161062f90611fb4565b600454610de7906001600160a01b03163383611a62565b50565b60025460405163cb7869fd60e01b815233600482018190529160009182916001600160a01b03169063cb7869fd90602401604080518083038186803b158015610e3257600080fd5b505afa158015610e46573d6000803e3d6000fd5b505050506040513d601f19601f82011682018060405250810190610e6a9190611f15565b5060025460405163cb7869fd60e01b81526001600160a01b03868116600483015292945091169063cb7869fd90602401604080518083038186803b158015610eb157600080fd5b505afa158015610ec5573d6000803e3d6000fd5b505050506040513d601f19601f82011682018060405250810190610ee99190611f15565b9150508185148015610efa57508381145b610f465760405162461bcd60e51b815260206004820152601f60248201527f504c4143454d414e414745523a20466c656574206973206e6f74206865726500604482015260640161062f565b6000858152600a60209081526040808320878452909152902054610fc15760405162461bcd60e51b815260206004820152602c60248201527f504c4143454d414e414745523a204e6f206a61636b706f7420706c616e65742060448201526b6c6f6361746564206865726560a01b606482015260840161062f565b6000858152600a6020908152604080832087845290915281205460098054670de0b6b3a764000093919083908110610ffb57610ffb6121c0565b9060005260206000209060050201600401549050600080841180156110445750836009848154811061102f5761102f6121c0565b90600052602060002090600502016003015410155b156110505750826110b8565b6000841180156110835750836009848154811061106f5761106f6121c0565b906000526020600020906005020160030154105b156110b4576009838154811061109b5761109b6121c0565b90600052602060002090600502016003015490506110b8565b5060005b80600984815481106110cc576110cc6121c0565b9060005260206000209060050201600301546110e89190612122565b600984815481106110fb576110fb6121c0565b90600052602060002090600502016003018190555080600b8381548110611124576111246121c0565b9060005260206000209060050201600401546111409190611fe9565b600b8381548110611153576111536121c0565b906000526020600020906005020160040181905550600b828154811061117b5761117b6121c0565b906000526020600020906005020160030154600b83815481106111a0576111a06121c0565b90600052602060002090600502016004015411156112155760405162461bcd60e51b815260206004820152602c60248201527f504c4143454d414e414745523a205374617220646f6573206e6f74206861766560448201526b20656e6f756768206e6f766160a01b606482015260840161062f565b6001600160a01b0387166000908152600f60209081526040808320858452909152902054611244908290611fe9565b6001600160a01b039097166000908152600f60209081526040808320948352939052919091209590955550505050505050565b6000546001600160a01b031633146112a15760405162461bcd60e51b815260040161062f90611fb4565b6001600160a01b0381166113065760405162461bcd60e51b815260206004820152602660248201527f4f776e61626c653a206e6577206f776e657220697320746865207a65726f206160448201526564647265737360d01b606482015260840161062f565b610de781611996565b600754600480546040516370a0823160e01b81523092810192909252600092916001600160a01b03909116906370a082319060240160206040518083038186803b15801561135c57600080fd5b505afa158015611370573d6000803e3d6000fd5b505050506040513d601f19601f820116820180604052508101906113949190611eda565b61139e9190612122565b9050600081116113fa5760405162461bcd60e51b815260206004820152602160248201527f504c4143454d414e414745523a206e6f204e6f766120746f20616c6c6f6361746044820152606560f81b606482015260840161062f565b60005b600b5461140c90600190612122565b8110156115ba576000600d54600b838154811061142b5761142b6121c0565b906000526020600020906005020160020154846114489190612103565b6114529190612001565b905080600b8381548110611468576114686121c0565b9060005260206000209060050201600301546114849190611fe9565b600b8381548110611497576114976121c0565b90600052602060002090600502016003018190555060005b6009546114be90600190612122565b8110156115a55782600982815481106114d9576114d96121c0565b9060005260206000209060050201600401541415611593576000838152600e60205260409020546009805483908110611514576115146121c0565b906000526020600020906005020160020154836115319190612103565b61153b9190612001565b6009828154811061154e5761154e6121c0565b90600052602060002090600502016003015461156a9190611fe9565b6009828154811061157d5761157d6121c0565b9060005260206000209060050201600301819055505b8061159d81612165565b9150506114af565b505080806115b290612165565b9150506113fd565b50600480546040516370a0823160e01b815230928101929092526001600160a01b0316906370a082319060240160206040518083038186803b1580156115ff57600080fd5b505afa158015611613573d6000803e3d6000fd5b505050506040513d601f19601f820116820180604052508101906116379190611eda565b60075550565b60025460405163cb7869fd60e01b815233600482018190529160009182916001600160a01b03169063cb7869fd90602401604080518083038186803b15801561168557600080fd5b505afa158015611699573d6000803e3d6000fd5b505050506040513d601f19601f820116820180604052508101906116bd9190611f15565b5060025460405163cb7869fd60e01b81526001600160a01b03868116600483015292945091169063cb7869fd90602401604080518083038186803b15801561170457600080fd5b505afa158015611718573d6000803e3d6000fd5b505050506040513d601f19601f8201168201806040525081019061173c9190611f15565b60025460405163700d734360e11b815260048101869052602481018390529193506001600160a01b0316915063e01ae6869060440160206040518083038186803b15801561178957600080fd5b505afa15801561179d573d6000803e3d6000fd5b505050506040513d601f19601f820116820180604052508101906117c19190611e9f565b15156001146118205760405162461bcd60e51b815260206004820152602560248201527f504c4143454d414e414745523a20666c656574206e6f74206174206120726566604482015264696e65727960d81b606482015260840161062f565b6000805b600b5461183390600190612122565b811015611934576001600160a01b0385166000908152600f6020908152604080832084845290915281208054919055600b805482919084908110611879576118796121c0565b9060005260206000209060050201600301546118959190612122565b600b83815481106118a8576118a86121c0565b90600052602060002090600502016003018190555080600b83815481106118d1576118d16121c0565b9060005260206000209060050201600401546118ed9190612122565b600b8381548110611900576119006121c0565b600091825260209091206004600590920201015561191e8184611fe9565b925050808061192c90612165565b915050611824565b5060045461194c906001600160a01b03168583611a62565b50505050565b60008142601440604051602001611973929190918252602082015260400190565b6040516020818303038152906040528051906020012060001c6104779190612180565b600080546001600160a01b038381166001600160a01b0319831681178455604051919092169283917f8be0079c531659141344cd1fd0a4f28419497f9722a3daafe3b4186f6b6457e09190a35050565b6000808386116119ff576119fa8685612122565b611a09565b611a098487612122565b90506000838611611a2357611a1e8685612122565b611a2d565b611a2d8487612122565b9050611a57611a3d600283612058565b611a48600285612058565b611a529190611fe9565b611ab9565b979650505050505050565b604080516001600160a01b038416602482015260448082018490528251808303909101815260649091019091526020810180516001600160e01b031663a9059cbb60e01b179052611ab4908490611b29565b505050565b60006003821115611b1a5750806000611ad3600283612001565b611ade906001611fe9565b90505b81811015611b1457905080600281611af98186612001565b611b039190611fe9565b611b0d9190612001565b9050611ae1565b50919050565b8115611b24575060015b919050565b6000611b7e826040518060400160405280602081526020017f5361666542455032303a206c6f772d6c6576656c2063616c6c206661696c6564815250856001600160a01b0316611bfb9092919063ffffffff16565b805190915015611ab45780806020019051810190611b9c9190611e9f565b611ab45760405162461bcd60e51b815260206004820152602a60248201527f5361666542455032303a204245503230206f7065726174696f6e20646964206e6044820152691bdd081cdd58d8d9595960b21b606482015260840161062f565b6060611c0a8484600085611c14565b90505b9392505050565b606082471015611c755760405162461bcd60e51b815260206004820152602660248201527f416464726573733a20696e73756666696369656e742062616c616e636520666f6044820152651c8818d85b1b60d21b606482015260840161062f565b843b611cc35760405162461bcd60e51b815260206004820152601d60248201527f416464726573733a2063616c6c20746f206e6f6e2d636f6e7472616374000000604482015260640161062f565b600080866001600160a01b03168587604051611cdf9190611f65565b60006040518083038185875af1925050503d8060008114611d1c576040519150601f19603f3d011682016040523d82523d6000602084013e611d21565b606091505b5091509150611a5782828660608315611d3b575081611c0d565b825115611d4b5782518084602001fd5b8160405162461bcd60e51b815260040161062f9190611f81565b80356001600160a01b0381168114611b2457600080fd5b600060208284031215611d8e57600080fd5b611c0d82611d65565b600080600060608486031215611dac57600080fd5b611db584611d65565b9250611dc360208501611d65565b9150604084013590509250925092565b60006020808385031215611de657600080fd5b823567ffffffffffffffff80821115611dfe57600080fd5b818501915085601f830112611e1257600080fd5b813581811115611e2457611e246121d6565b8060051b604051601f19603f83011681018181108582111715611e4957611e496121d6565b604052828152858101935084860182860187018a1015611e6857600080fd5b600095505b83861015611e9257611e7e81611d65565b855260019590950194938601938601611e6d565b5098975050505050505050565b600060208284031215611eb157600080fd5b81518015158114611c0d57600080fd5b600060208284031215611ed357600080fd5b5035919050565b600060208284031215611eec57600080fd5b5051919050565b60008060408385031215611f0657600080fd5b50508035926020909101359150565b60008060408385031215611f2857600080fd5b505080516020909101519092909150565b600080600060608486031215611f4e57600080fd5b505081359360208301359350604090920135919050565b60008251611f77818460208701612139565b9190910192915050565b6020815260008251806020840152611fa0816040850160208701612139565b601f01601f19169190910160400192915050565b6020808252818101527f4f776e61626c653a2063616c6c6572206973206e6f7420746865206f776e6572604082015260600190565b60008219821115611ffc57611ffc612194565b500190565b600082612010576120106121aa565b500490565b600181815b8085111561205057816000190482111561203657612036612194565b8085161561204357918102915b93841c939080029061201a565b509250929050565b6000611c0d60ff84168360008261207157506001610477565b8161207e57506000610477565b8160018114612094576002811461209e576120ba565b6001915050610477565b60ff8411156120af576120af612194565b50506001821b610477565b5060208310610133831016604e8410600b84101617156120dd575081810a610477565b6120e78383612015565b80600019048211156120fb576120fb612194565b029392505050565b600081600019048311821515161561211d5761211d612194565b500290565b60008282101561213457612134612194565b500390565b60005b8381101561215457818101518382015260200161213c565b8381111561194c5750506000910152565b600060001982141561217957612179612194565b5060010190565b60008261218f5761218f6121aa565b500690565b634e487b7160e01b600052601160045260246000fd5b634e487b7160e01b600052601260045260246000fd5b634e487b7160e01b600052603260045260246000fd5b634e487b7160e01b600052604160045260246000fdfea2646970667358221220a058d002ec83f5f0f42d6891452e34ac394ea6828fb7296a5d2dcd78c8fc436564736f6c63430008070033",
    "sourcePath": "d:/Novaria/contracts/PlaceManager.sol",
    "compiler": {
        "name": "solc",
        "version": "0.8.7+commit.e28d00a7"
    },
    "functionHashes": {
        "Fleet()": "ecacf11a",
        "Map()": "ec557f40",
        "Nova()": "1bb63d0c",
        "ShadowPool()": "86a07a0b",
        "allocateNova()": "f644350c",
        "createJackpot(uint256,uint256,uint256)": "a361d341",
        "createStar(uint256,uint256)": "6a611d6c",
        "deactivateEditor(address)": "64e51a8d",
        "editor(address)": "233daaf7",
        "getJackpotNova(uint256,uint256)": "12e9ff2a",
        "getUserUNova(address)": "10a6cfdc",
        "harvest(uint256,uint256)": "e4a4b7b1",
        "isEditor(address)": "a0748154",
        "jackpots(uint256)": "bde8e5dc",
        "owner()": "8da5cb5b",
        "refine()": "fda01763",
        "renounceOwnership()": "715018a6",
        "requestNova()": "5eedfeb7",
        "rewardsMod()": "6b49e17b",
        "setEditor(address[])": "502241bf",
        "setInitial()": "8e18977f",
        "setRewardsMod(uint256)": "33ad0e93",
        "starTotal()": "77398c9c",
        "stars(uint256)": "685c6342",
        "transferOwnership(address)": "f2fde38b",
        "transferUNova(address,address,uint256)": "2d03dc60",
        "withdrawNOVA(uint256)": "d5d72a38"
    },
    "gasEstimates": {
        "creation": {
            "codeDepositCost": "1747600",
            "executionCost": "infinite",
            "totalCost": "infinite"
        },
        "external": {
            "Fleet()": "2381",
            "Map()": "2426",
            "Nova()": "2405",
            "ShadowPool()": "2405",
            "allocateNova()": "infinite",
            "createJackpot(uint256,uint256,uint256)": "infinite",
            "createStar(uint256,uint256)": "152140",
            "deactivateEditor(address)": "29062",
            "editor(address)": "2621",
            "getJackpotNova(uint256,uint256)": "6898",
            "getUserUNova(address)": "infinite",
            "harvest(uint256,uint256)": "infinite",
            "isEditor(address)": "2681",
            "jackpots(uint256)": "13238",
            "owner()": "2421",
            "refine()": "infinite",
            "renounceOwnership()": "28225",
            "requestNova()": "infinite",
            "rewardsMod()": "2373",
            "setEditor(address[])": "infinite",
            "setInitial()": "infinite",
            "setRewardsMod(uint256)": "24624",
            "starTotal()": "2330",
            "stars(uint256)": "13172",
            "transferOwnership(address)": "28375",
            "transferUNova(address,address,uint256)": "infinite",
            "withdrawNOVA(uint256)": "infinite"
        }
    }
}