{
  "contractName": "DryDock",
  "abi": [
    {
      "inputs": [
        {
          "internalType": "contract ShibaBEP20",
          "name": "_Nova",
          "type": "address"
        }
      ],
      "stateMutability": "nonpayable",
      "type": "constructor"
    },
    {
      "anonymous": false,
      "inputs": [
        {
          "indexed": false,
          "internalType": "uint256",
          "name": "newCost",
          "type": "uint256"
        }
      ],
      "name": "NewBaseCapCost",
      "type": "event"
    },
    {
      "anonymous": false,
      "inputs": [
        {
          "indexed": false,
          "internalType": "uint256",
          "name": "shipID",
          "type": "uint256"
        },
        {
          "indexed": false,
          "internalType": "string",
          "name": "name",
          "type": "string"
        }
      ],
      "name": "NewCapitalShip",
      "type": "event"
    },
    {
      "anonymous": false,
      "inputs": [
        {
          "indexed": false,
          "internalType": "uint256",
          "name": "newCost",
          "type": "uint256"
        }
      ],
      "name": "NewFighterCost",
      "type": "event"
    },
    {
      "anonymous": false,
      "inputs": [
        {
          "indexed": false,
          "internalType": "uint16",
          "name": "newMax",
          "type": "uint16"
        }
      ],
      "name": "NewMaxFighters",
      "type": "event"
    },
    {
      "anonymous": false,
      "inputs": [
        {
          "indexed": false,
          "internalType": "uint16",
          "name": "newMax",
          "type": "uint16"
        }
      ],
      "name": "NewMaxMiners",
      "type": "event"
    },
    {
      "anonymous": false,
      "inputs": [
        {
          "indexed": false,
          "internalType": "uint256",
          "name": "newCost",
          "type": "uint256"
        }
      ],
      "name": "NewMinerCost",
      "type": "event"
    },
    {
      "anonymous": false,
      "inputs": [
        {
          "indexed": false,
          "internalType": "uint256",
          "name": "newWeight",
          "type": "uint256"
        }
      ],
      "name": "NewWeightMax",
      "type": "event"
    },
    {
      "anonymous": false,
      "inputs": [
        {
          "indexed": true,
          "internalType": "address",
          "name": "previousOwner",
          "type": "address"
        },
        {
          "indexed": true,
          "internalType": "address",
          "name": "newOwner",
          "type": "address"
        }
      ],
      "name": "OwnershipTransferred",
      "type": "event"
    },
    {
      "inputs": [],
      "name": "Nova",
      "outputs": [
        {
          "internalType": "contract ShibaBEP20",
          "name": "",
          "type": "address"
        }
      ],
      "stateMutability": "view",
      "type": "function"
    },
    {
      "inputs": [],
      "name": "Treasury",
      "outputs": [
        {
          "internalType": "address",
          "name": "",
          "type": "address"
        }
      ],
      "stateMutability": "view",
      "type": "function"
    },
    {
      "inputs": [],
      "name": "baseCapCost",
      "outputs": [
        {
          "internalType": "uint256",
          "name": "",
          "type": "uint256"
        }
      ],
      "stateMutability": "view",
      "type": "function"
    },
    {
      "inputs": [
        {
          "internalType": "uint256",
          "name": "",
          "type": "uint256"
        }
      ],
      "name": "capitalShipOwner",
      "outputs": [
        {
          "internalType": "address",
          "name": "",
          "type": "address"
        }
      ],
      "stateMutability": "view",
      "type": "function"
    },
    {
      "inputs": [
        {
          "internalType": "uint256",
          "name": "",
          "type": "uint256"
        }
      ],
      "name": "capitalShips",
      "outputs": [
        {
          "internalType": "string",
          "name": "name",
          "type": "string"
        },
        {
          "internalType": "uint16",
          "name": "fighters",
          "type": "uint16"
        },
        {
          "internalType": "uint16",
          "name": "maxFighters",
          "type": "uint16"
        },
        {
          "internalType": "uint8",
          "name": "powerMod",
          "type": "uint8"
        },
        {
          "internalType": "uint16",
          "name": "miners",
          "type": "uint16"
        },
        {
          "internalType": "uint16",
          "name": "maxMiners",
          "type": "uint16"
        },
        {
          "internalType": "uint256",
          "name": "carryCapacity",
          "type": "uint256"
        },
        {
          "internalType": "uint16",
          "name": "wins",
          "type": "uint16"
        },
        {
          "internalType": "uint16",
          "name": "losses",
          "type": "uint16"
        }
      ],
      "stateMutability": "view",
      "type": "function"
    },
    {
      "inputs": [],
      "name": "currentMaxFighters",
      "outputs": [
        {
          "internalType": "uint16",
          "name": "",
          "type": "uint16"
        }
      ],
      "stateMutability": "view",
      "type": "function"
    },
    {
      "inputs": [],
      "name": "currentMaxMiners",
      "outputs": [
        {
          "internalType": "uint16",
          "name": "",
          "type": "uint16"
        }
      ],
      "stateMutability": "view",
      "type": "function"
    },
    {
      "inputs": [],
      "name": "fighterCost",
      "outputs": [
        {
          "internalType": "uint256",
          "name": "",
          "type": "uint256"
        }
      ],
      "stateMutability": "view",
      "type": "function"
    },
    {
      "inputs": [],
      "name": "minerCost",
      "outputs": [
        {
          "internalType": "uint256",
          "name": "",
          "type": "uint256"
        }
      ],
      "stateMutability": "view",
      "type": "function"
    },
    {
      "inputs": [],
      "name": "owner",
      "outputs": [
        {
          "internalType": "address",
          "name": "",
          "type": "address"
        }
      ],
      "stateMutability": "view",
      "type": "function"
    },
    {
      "inputs": [
        {
          "internalType": "address",
          "name": "",
          "type": "address"
        }
      ],
      "name": "ownerShipId",
      "outputs": [
        {
          "internalType": "uint256",
          "name": "",
          "type": "uint256"
        }
      ],
      "stateMutability": "view",
      "type": "function"
    },
    {
      "inputs": [
        {
          "internalType": "address",
          "name": "",
          "type": "address"
        }
      ],
      "name": "purchaser",
      "outputs": [
        {
          "internalType": "bool",
          "name": "",
          "type": "bool"
        }
      ],
      "stateMutability": "view",
      "type": "function"
    },
    {
      "inputs": [],
      "name": "renounceOwnership",
      "outputs": [],
      "stateMutability": "nonpayable",
      "type": "function"
    },
    {
      "inputs": [],
      "name": "superCapCost",
      "outputs": [
        {
          "internalType": "uint256",
          "name": "",
          "type": "uint256"
        }
      ],
      "stateMutability": "view",
      "type": "function"
    },
    {
      "inputs": [
        {
          "internalType": "address",
          "name": "newOwner",
          "type": "address"
        }
      ],
      "name": "transferOwnership",
      "outputs": [],
      "stateMutability": "nonpayable",
      "type": "function"
    },
    {
      "inputs": [],
      "name": "valueCapCost",
      "outputs": [
        {
          "internalType": "uint256",
          "name": "",
          "type": "uint256"
        }
      ],
      "stateMutability": "view",
      "type": "function"
    },
    {
      "inputs": [],
      "name": "weightMax",
      "outputs": [
        {
          "internalType": "uint256",
          "name": "",
          "type": "uint256"
        }
      ],
      "stateMutability": "view",
      "type": "function"
    },
    {
      "inputs": [
        {
          "internalType": "address",
          "name": "_purchaser",
          "type": "address"
        }
      ],
      "name": "isPurchaser",
      "outputs": [
        {
          "internalType": "bool",
          "name": "",
          "type": "bool"
        }
      ],
      "stateMutability": "view",
      "type": "function"
    },
    {
      "inputs": [
        {
          "internalType": "address[]",
          "name": "_purchaser",
          "type": "address[]"
        }
      ],
      "name": "setPurchaser",
      "outputs": [],
      "stateMutability": "nonpayable",
      "type": "function"
    },
    {
      "inputs": [
        {
          "internalType": "address",
          "name": "_purchaser",
          "type": "address"
        }
      ],
      "name": "deactivatePurchaser",
      "outputs": [],
      "stateMutability": "nonpayable",
      "type": "function"
    },
    {
      "inputs": [],
      "name": "capShipLength",
      "outputs": [
        {
          "internalType": "uint256",
          "name": "",
          "type": "uint256"
        }
      ],
      "stateMutability": "view",
      "type": "function"
    },
    {
      "inputs": [
        {
          "internalType": "uint256",
          "name": "_id",
          "type": "uint256"
        }
      ],
      "name": "getCapitalShipRecord",
      "outputs": [
        {
          "internalType": "string",
          "name": "name",
          "type": "string"
        },
        {
          "internalType": "uint16",
          "name": "wins",
          "type": "uint16"
        },
        {
          "internalType": "uint16",
          "name": "losses",
          "type": "uint16"
        }
      ],
      "stateMutability": "view",
      "type": "function"
    },
    {
      "inputs": [
        {
          "internalType": "uint256",
          "name": "_id",
          "type": "uint256"
        }
      ],
      "name": "getCapitalShip",
      "outputs": [
        {
          "internalType": "uint16",
          "name": "fighters",
          "type": "uint16"
        },
        {
          "internalType": "uint16",
          "name": "maxFighters",
          "type": "uint16"
        },
        {
          "internalType": "uint8",
          "name": "powerMod",
          "type": "uint8"
        },
        {
          "internalType": "uint16",
          "name": "miners",
          "type": "uint16"
        },
        {
          "internalType": "uint16",
          "name": "maxMiners",
          "type": "uint16"
        },
        {
          "internalType": "uint256",
          "name": "carryCapacity",
          "type": "uint256"
        }
      ],
      "stateMutability": "view",
      "type": "function"
    },
    {
      "inputs": [],
      "name": "approveDryDock",
      "outputs": [],
      "stateMutability": "nonpayable",
      "type": "function"
    },
    {
      "inputs": [
        {
          "internalType": "address",
          "name": "_sender",
          "type": "address"
        },
        {
          "internalType": "string",
          "name": "_name",
          "type": "string"
        },
        {
          "internalType": "uint256",
          "name": "_amount",
          "type": "uint256"
        },
        {
          "internalType": "uint16",
          "name": "_startFighters",
          "type": "uint16"
        },
        {
          "internalType": "uint16",
          "name": "_currentMaxFighters",
          "type": "uint16"
        },
        {
          "internalType": "uint16",
          "name": "_startMiners",
          "type": "uint16"
        },
        {
          "internalType": "uint16",
          "name": "_currentMaxMiners",
          "type": "uint16"
        }
      ],
      "name": "buildCapShip",
      "outputs": [],
      "stateMutability": "nonpayable",
      "type": "function"
    },
    {
      "inputs": [
        {
          "internalType": "uint256",
          "name": "_amount",
          "type": "uint256"
        }
      ],
      "name": "setBasicCost",
      "outputs": [],
      "stateMutability": "nonpayable",
      "type": "function"
    },
    {
      "inputs": [
        {
          "internalType": "string",
          "name": "_name",
          "type": "string"
        }
      ],
      "name": "buildCapBasic",
      "outputs": [],
      "stateMutability": "nonpayable",
      "type": "function"
    },
    {
      "inputs": [
        {
          "internalType": "string",
          "name": "_name",
          "type": "string"
        }
      ],
      "name": "buildCapValue",
      "outputs": [],
      "stateMutability": "nonpayable",
      "type": "function"
    },
    {
      "inputs": [
        {
          "internalType": "string",
          "name": "_name",
          "type": "string"
        }
      ],
      "name": "buildCapSuper",
      "outputs": [],
      "stateMutability": "nonpayable",
      "type": "function"
    },
    {
      "inputs": [
        {
          "internalType": "address",
          "name": "_sender",
          "type": "address"
        },
        {
          "internalType": "uint16",
          "name": "_value",
          "type": "uint16"
        }
      ],
      "name": "addFighter",
      "outputs": [],
      "stateMutability": "nonpayable",
      "type": "function"
    },
    {
      "inputs": [
        {
          "internalType": "address",
          "name": "_sender",
          "type": "address"
        },
        {
          "internalType": "uint16",
          "name": "_value",
          "type": "uint16"
        }
      ],
      "name": "subFighter",
      "outputs": [],
      "stateMutability": "nonpayable",
      "type": "function"
    },
    {
      "inputs": [
        {
          "internalType": "uint16",
          "name": "_value",
          "type": "uint16"
        }
      ],
      "name": "buyFighters",
      "outputs": [],
      "stateMutability": "nonpayable",
      "type": "function"
    },
    {
      "inputs": [
        {
          "internalType": "uint256",
          "name": "_value",
          "type": "uint256"
        }
      ],
      "name": "setFighterCost",
      "outputs": [],
      "stateMutability": "nonpayable",
      "type": "function"
    },
    {
      "inputs": [
        {
          "internalType": "uint16",
          "name": "_value",
          "type": "uint16"
        }
      ],
      "name": "setMaxFighters",
      "outputs": [],
      "stateMutability": "nonpayable",
      "type": "function"
    },
    {
      "inputs": [
        {
          "internalType": "address",
          "name": "_sender",
          "type": "address"
        },
        {
          "internalType": "uint16",
          "name": "_value",
          "type": "uint16"
        }
      ],
      "name": "addMiner",
      "outputs": [],
      "stateMutability": "nonpayable",
      "type": "function"
    },
    {
      "inputs": [
        {
          "internalType": "address",
          "name": "_sender",
          "type": "address"
        },
        {
          "internalType": "uint16",
          "name": "_value",
          "type": "uint16"
        }
      ],
      "name": "subMiner",
      "outputs": [],
      "stateMutability": "nonpayable",
      "type": "function"
    },
    {
      "inputs": [
        {
          "internalType": "uint16",
          "name": "_value",
          "type": "uint16"
        }
      ],
      "name": "buyMiners",
      "outputs": [],
      "stateMutability": "nonpayable",
      "type": "function"
    },
    {
      "inputs": [
        {
          "internalType": "uint256",
          "name": "_value",
          "type": "uint256"
        }
      ],
      "name": "setMinerCost",
      "outputs": [],
      "stateMutability": "nonpayable",
      "type": "function"
    },
    {
      "inputs": [
        {
          "internalType": "uint16",
          "name": "_value",
          "type": "uint16"
        }
      ],
      "name": "setMaxMiners",
      "outputs": [],
      "stateMutability": "nonpayable",
      "type": "function"
    },
    {
      "inputs": [
        {
          "internalType": "uint256",
          "name": "_value",
          "type": "uint256"
        }
      ],
      "name": "setWeightMax",
      "outputs": [],
      "stateMutability": "nonpayable",
      "type": "function"
    },
    {
      "inputs": [
        {
          "internalType": "uint8",
          "name": "_value",
          "type": "uint8"
        },
        {
          "internalType": "address",
          "name": "_sender",
          "type": "address"
        }
      ],
      "name": "addPowerMod",
      "outputs": [],
      "stateMutability": "nonpayable",
      "type": "function"
    },
    {
      "inputs": [
        {
          "internalType": "uint8",
          "name": "_value",
          "type": "uint8"
        },
        {
          "internalType": "address",
          "name": "_sender",
          "type": "address"
        }
      ],
      "name": "subPowerMod",
      "outputs": [],
      "stateMutability": "nonpayable",
      "type": "function"
    }
  ],
  "bytecode": "0x608060405268056bc75e2d63100000600355600380546200002191906200024a565b600455600a6003546200003591906200024a565b600555670de0b6b3a76400006006556103e8600760006101000a81548161ffff021916908361ffff160217905550678ac7230489e800006008556103e8600960006101000a81548161ffff021916908361ffff160217905550670de0b6b3a7640000600a55348015620000a757600080fd5b50604051620042a4380380620042a48339818101604052810190620000cd919062000218565b620000ed620000e16200013560201b60201c565b6200013d60201b60201c565b80600160006101000a81548173ffffffffffffffffffffffffffffffffffffffff021916908373ffffffffffffffffffffffffffffffffffffffff160217905550506200034b565b600033905090565b60008060009054906101000a900473ffffffffffffffffffffffffffffffffffffffff169050816000806101000a81548173ffffffffffffffffffffffffffffffffffffffff021916908373ffffffffffffffffffffffffffffffffffffffff1602179055508173ffffffffffffffffffffffffffffffffffffffff168173ffffffffffffffffffffffffffffffffffffffff167f8be0079c531659141344cd1fd0a4f28419497f9722a3daafe3b4186f6b6457e060405160405180910390a35050565b600081519050620002128162000331565b92915050565b6000602082840312156200023157620002306200032c565b5b6000620002418482850162000201565b91505092915050565b60006200025782620002f3565b91506200026483620002f3565b9250817fffffffffffffffffffffffffffffffffffffffffffffffffffffffffffffffff0483118215151615620002a0576200029f620002fd565b5b828202905092915050565b6000620002b882620002d3565b9050919050565b6000620002cc82620002ab565b9050919050565b600073ffffffffffffffffffffffffffffffffffffffff82169050919050565b6000819050919050565b7f4e487b7100000000000000000000000000000000000000000000000000000000600052601160045260246000fd5b600080fd5b6200033c81620002bf565b81146200034857600080fd5b50565b613f49806200035b6000396000f3fe608060405234801561001057600080fd5b506004361061025e5760003560e01c80638da5cb5b11610146578063ba094933116100c3578063e1a463d111610087578063e1a463d1146106cc578063e32fdc95146106e8578063e8ef2f8b14610706578063ed67857514610722578063f2fde38b1461073e578063f8b5281f1461075a5761025e565b8063ba09493314610618578063c11c421314610648578063d1509c9314610678578063d298f63814610694578063dedbed4e146106b05761025e565b80639a0a25521161010a5780639a0a2552146105885780639b96fe6a146105a6578063a9125820146105c4578063b31e4048146105e0578063b7ba6af0146105fc5761025e565b80638da5cb5b146104c857806391206cbb146104e657806392ce1c011461051657806397f6c26e1461053457806399b43e86146105505761025e565b8063401035c2116101df578063715018a6116101a3578063715018a61461043057806374b5d60c1461043a5780637daa3d17146104565780637f00ac421461047257806387cdbe3c1461048e5780638a3132d2146104ac5761025e565b8063401035c21461038757806340bc2d3b146103bc5780634f7a2d12146103d857806354dd55bf146103f6578063563df32f146104125761025e565b80631f2c9435116102265780631f2c9435146102f5578063346ae8bb1461032757806336d306a31461034357806339eddb531461034d5780633f87dcfb146103695761025e565b80630c29eb10146102635780630e1f2d761461027f578063134d78bd1461029d578063139c6e75146102b95780631bb63d0c146102d7575b600080fd5b61027d60048036038101906102789190613163565b61078a565b005b61028761091f565b60405161029491906137b5565b60405180910390f35b6102b760048036038101906102b29190613163565b610925565b005b6102c1610afd565b6040516102ce91906137b5565b60405180910390f35b6102df610b03565b6040516102ec919061354c565b60405180910390f35b61030f600480360381019061030a919061328f565b610b29565b60405161031e93929190613567565b60405180910390f35b610341600480360381019061033c9190613262565b610c54565b005b61034b610dd6565b005b6103676004803603810190610362919061328f565b610e91565b005b610371610f4e565b60405161037e91906137b5565b60405180910390f35b6103a1600480360381019061039c919061328f565b610f54565b6040516103b396959493929190613754565b60405180910390f35b6103d660048036038101906103d191906132bc565b61109b565b005b6103e06111fe565b6040516103ed91906137b5565b60405180910390f35b610410600480360381019061040b919061328f565b611204565b005b61041a6112c1565b60405161042791906134b6565b60405180910390f35b6104386112e7565b005b610454600480360381019061044f9190613219565b61136f565b005b610470600480360381019061046b91906130a5565b6113cf565b005b61048c60048036038101906104879190613262565b611828565b005b610496611a18565b6040516104a391906137b5565b60405180910390f35b6104c660048036038101906104c19190613262565b611a1e565b005b6104d0611af1565b6040516104dd91906134b6565b60405180910390f35b61050060048036038101906104fb919061328f565b611b1a565b60405161050d91906134b6565b60405180910390f35b61051e611b4d565b60405161052b9190613739565b60405180910390f35b61054e60048036038101906105499190613219565b611b61565b005b61056a6004803603810190610565919061328f565b611bb4565b60405161057f999897969594939291906135a5565b60405180910390f35b610590611cfb565b60405161059d9190613739565b60405180910390f35b6105ae611d0f565b6040516105bb91906137b5565b60405180910390f35b6105de60048036038101906105d991906132bc565b611d15565b005b6105fa60048036038101906105f59190613078565b611e6f565b005b61061660048036038101906106119190613219565b611fd9565b005b610632600480360381019061062d9190613078565b61202c565b60405161063f91906137b5565b60405180910390f35b610662600480360381019061065d9190613078565b612044565b60405161066f9190613531565b60405180910390f35b610692600480360381019061068d91906131a3565b6120af565b005b6106ae60048036038101906106a99190613262565b61226d565b005b6106ca60048036038101906106c5919061328f565b612340565b005b6106e660048036038101906106e1919061328f565b6123fd565b005b6106f06124ba565b6040516106fd91906137b5565b60405180910390f35b610720600480360381019061071b9190613163565b6124c7565b005b61073c60048036038101906107379190613163565b612631565b005b61075860048036038101906107539190613078565b612834565b005b610774600480360381019061076f9190613078565b61292c565b6040516107819190613531565b60405180910390f35b61079333612044565b61079c57600080fd5b6000600d60008473ffffffffffffffffffffffffffffffffffffffff1673ffffffffffffffffffffffffffffffffffffffff168152602001908152602001600020549050600b81815481106107f4576107f3613bc6565b5b906000526020600020906004020160010160029054906101000a900461ffff1661ffff1682600b838154811061082d5761082c613bc6565b5b906000526020600020906004020160010160009054906101000a900461ffff16610857919061389e565b61ffff16111561089c576040517f08c379a0000000000000000000000000000000000000000000000000000000008152600401610893906136f9565b60405180910390fd5b81600b82815481106108b1576108b0613bc6565b5b906000526020600020906004020160010160009054906101000a900461ffff166108db919061389e565b600b82815481106108ef576108ee613bc6565b5b906000526020600020906004020160010160006101000a81548161ffff021916908361ffff160217905550505050565b60045481565b61092e33612044565b61093757600080fd5b6000600d60008473ffffffffffffffffffffffffffffffffffffffff1673ffffffffffffffffffffffffffffffffffffffff168152602001908152602001600020549050600a82600b838154811061099257610991613bc6565b5b906000526020600020906004020160010160059054906101000a900461ffff166109bc9190613967565b61ffff1611610a0b57600a600b82815481106109db576109da613bc6565b5b906000526020600020906004020160010160056101000a81548161ffff021916908361ffff160217905550610a8a565b81600b8281548110610a2057610a1f613bc6565b5b906000526020600020906004020160010160059054906101000a900461ffff16610a4a9190613967565b600b8281548110610a5e57610a5d613bc6565b5b906000526020600020906004020160010160056101000a81548161ffff021916908361ffff1602179055505b600a54600b8281548110610aa157610aa0613bc6565b5b906000526020600020906004020160010160059054906101000a900461ffff1661ffff16610acf919061390d565b600b8281548110610ae357610ae2613bc6565b5b906000526020600020906004020160020181905550505050565b60065481565b600160009054906101000a900473ffffffffffffffffffffffffffffffffffffffff1681565b6060600080600b8481548110610b4257610b41613bc6565b5b9060005260206000209060040201600001600b8581548110610b6757610b66613bc6565b5b906000526020600020906004020160030160009054906101000a900461ffff16600b8681548110610b9b57610b9a613bc6565b5b906000526020600020906004020160030160029054906101000a900461ffff16828054610bc790613abc565b80601f0160208091040260200160405190810160405280929190818152602001828054610bf390613abc565b8015610c405780601f10610c1557610100808354040283529160200191610c40565b820191906000526020600020905b815481529060010190602001808311610c2357829003601f168201915b505050505092509250925092509193909250565b6000600d60003373ffffffffffffffffffffffffffffffffffffffff1673ffffffffffffffffffffffffffffffffffffffff168152602001908152602001600020549050600b8181548110610cac57610cab613bc6565b5b906000526020600020906004020160010160029054906101000a900461ffff1661ffff1682600b8381548110610ce557610ce4613bc6565b5b906000526020600020906004020160010160009054906101000a900461ffff16610d0f919061389e565b61ffff161115610d54576040517f08c379a0000000000000000000000000000000000000000000000000000000008152600401610d4b906136f9565b60405180910390fd5b81600b8281548110610d6957610d68613bc6565b5b906000526020600020906004020160010160009054906101000a900461ffff16610d93919061389e565b600b8281548110610da757610da6613bc6565b5b906000526020600020906004020160010160006101000a81548161ffff021916908361ffff1602179055505050565b600160009054906101000a900473ffffffffffffffffffffffffffffffffffffffff1673ffffffffffffffffffffffffffffffffffffffff1663095ea7b33368ffffffffffffffffff6040518363ffffffff1660e01b8152600401610e3c929190613508565b602060405180830381600087803b158015610e5657600080fd5b505af1158015610e6a573d6000803e3d6000fd5b505050506040513d601f19601f82011682018060405250810190610e8e91906131ec565b50565b610e9961294c565b73ffffffffffffffffffffffffffffffffffffffff16610eb7611af1565b73ffffffffffffffffffffffffffffffffffffffff1614610f0d576040517f08c379a0000000000000000000000000000000000000000000000000000000008152600401610f0490613699565b60405180910390fd5b80600a819055507fff26e443aa15f2dbc9ca4ceb0330af61133d13fcec927c2c1e86b73f2ae4639b81604051610f4391906137b5565b60405180910390a150565b60035481565b600080600080600080600b8781548110610f7157610f70613bc6565b5b906000526020600020906004020160010160009054906101000a900461ffff16600b8881548110610fa557610fa4613bc6565b5b906000526020600020906004020160010160029054906101000a900461ffff16600b8981548110610fd957610fd8613bc6565b5b906000526020600020906004020160010160049054906101000a900460ff16600b8a8154811061100c5761100b613bc6565b5b906000526020600020906004020160010160059054906101000a900461ffff16600b8b815481106110405761103f613bc6565b5b906000526020600020906004020160010160079054906101000a900461ffff16600b8c8154811061107457611073613bc6565b5b90600052602060002090600402016002015495509550955095509550955091939550919395565b6110a433612044565b6110ad57600080fd5b6000600d60008373ffffffffffffffffffffffffffffffffffffffff1673ffffffffffffffffffffffffffffffffffffffff168152602001908152602001600020549050600083600b838154811061110857611107613bc6565b5b906000526020600020906004020160010160049054906101000a900460ff16611131919061399b565b60ff161161117d576000600b828154811061114f5761114e613bc6565b5b906000526020600020906004020160010160046101000a81548160ff021916908360ff1602179055506111f9565b82600b828154811061119257611191613bc6565b5b906000526020600020906004020160010160049054906101000a900460ff166111bb91906138d6565b600b82815481106111cf576111ce613bc6565b5b906000526020600020906004020160010160046101000a81548160ff021916908360ff1602179055505b505050565b60055481565b61120c61294c565b73ffffffffffffffffffffffffffffffffffffffff1661122a611af1565b73ffffffffffffffffffffffffffffffffffffffff1614611280576040517f08c379a000000000000000000000000000000000000000000000000000000000815260040161127790613699565b60405180910390fd5b806003819055507f776f2065e6b6322969ca74b70f05efed1f997114246796a38ab25a1d25a995e2816040516112b691906137b5565b60405180910390a150565b600260009054906101000a900473ffffffffffffffffffffffffffffffffffffffff1681565b6112ef61294c565b73ffffffffffffffffffffffffffffffffffffffff1661130d611af1565b73ffffffffffffffffffffffffffffffffffffffff1614611363576040517f08c379a000000000000000000000000000000000000000000000000000000000815260040161135a90613699565b60405180910390fd5b61136d6000612954565b565b6000600554905060006101f4905060006064600760009054906101000a900461ffff1661139c919061389e565b90506000600a90506000600960009054906101000a900461ffff1690506113c7868686868686612a18565b505050505050565b6113d833612044565b6113e157600080fd5b6000600e60008973ffffffffffffffffffffffffffffffffffffffff1673ffffffffffffffffffffffffffffffffffffffff1681526020019081526020016000205414611463576040517f08c379a000000000000000000000000000000000000000000000000000000000815260040161145a906136d9565b60405180910390fd5b600160009054906101000a900473ffffffffffffffffffffffffffffffffffffffff1673ffffffffffffffffffffffffffffffffffffffff166323b872dd88600260009054906101000a900473ffffffffffffffffffffffffffffffffffffffff16886040518463ffffffff1660e01b81526004016114e4939291906134d1565b602060405180830381600087803b1580156114fe57600080fd5b505af1158015611512573d6000803e3d6000fd5b505050506040513d601f19601f8201168201806040525081019061153691906131ec565b5060006115416124ba565b9050600b6040518061012001604052808981526020018761ffff1681526020018661ffff168152602001600060ff1681526020018561ffff1681526020018461ffff168152602001600a548661ffff1661159b919061390d565b8152602001600061ffff168152602001600061ffff16815250908060018154018082558091505060019003906000526020600020906004020160009091909190915060008201518160000190805190602001906115f9929190612e5e565b5060208201518160010160006101000a81548161ffff021916908361ffff16021790555060408201518160010160026101000a81548161ffff021916908361ffff16021790555060608201518160010160046101000a81548160ff021916908360ff16021790555060808201518160010160056101000a81548161ffff021916908361ffff16021790555060a08201518160010160076101000a81548161ffff021916908361ffff16021790555060c0820151816002015560e08201518160030160006101000a81548161ffff021916908361ffff1602179055506101008201518160030160026101000a81548161ffff021916908361ffff160217905550505087600c600083815260200190815260200160002060006101000a81548173ffffffffffffffffffffffffffffffffffffffff021916908373ffffffffffffffffffffffffffffffffffffffff16021790555080600d60008a73ffffffffffffffffffffffffffffffffffffffff1673ffffffffffffffffffffffffffffffffffffffff16815260200190815260200160002081905550600e60008973ffffffffffffffffffffffffffffffffffffffff1673ffffffffffffffffffffffffffffffffffffffff16815260200190815260200160002060008154809291906117e090613b1f565b91905055507f48a2e8b96899c2a1c5e9f4a56f76630eb67533b7a535e5143c977a9bcbdb7a6481886040516118169291906137d0565b60405180910390a15050505050505050565b6000600d60003373ffffffffffffffffffffffffffffffffffffffff1673ffffffffffffffffffffffffffffffffffffffff168152602001908152602001600020549050600b81815481106118805761187f613bc6565b5b906000526020600020906004020160010160079054906101000a900461ffff1661ffff1682600b83815481106118b9576118b8613bc6565b5b906000526020600020906004020160010160059054906101000a900461ffff166118e3919061389e565b61ffff161115611928576040517f08c379a000000000000000000000000000000000000000000000000000000000815260040161191f90613679565b60405180910390fd5b81600b828154811061193d5761193c613bc6565b5b906000526020600020906004020160010160059054906101000a900461ffff16611967919061389e565b600b828154811061197b5761197a613bc6565b5b906000526020600020906004020160010160056101000a81548161ffff021916908361ffff160217905550600a54600b82815481106119bd576119bc613bc6565b5b906000526020600020906004020160010160059054906101000a900461ffff1661ffff166119eb919061390d565b600b82815481106119ff576119fe613bc6565b5b9060005260206000209060040201600201819055505050565b60085481565b611a2661294c565b73ffffffffffffffffffffffffffffffffffffffff16611a44611af1565b73ffffffffffffffffffffffffffffffffffffffff1614611a9a576040517f08c379a0000000000000000000000000000000000000000000000000000000008152600401611a9190613699565b60405180910390fd5b80600760006101000a81548161ffff021916908361ffff1602179055507faac8959d9b4c797c1af4aab39cc972578312587124425b39e7372ca477c60aa081604051611ae69190613739565b60405180910390a150565b60008060009054906101000a900473ffffffffffffffffffffffffffffffffffffffff16905090565b600c6020528060005260406000206000915054906101000a900473ffffffffffffffffffffffffffffffffffffffff1681565b600960009054906101000a900461ffff1681565b600060035490506000600a90506000600760009054906101000a900461ffff1690506000600190506000600960009054906101000a900461ffff169050611bac868686868686612a18565b505050505050565b600b8181548110611bc457600080fd5b9060005260206000209060040201600091509050806000018054611be790613abc565b80601f0160208091040260200160405190810160405280929190818152602001828054611c1390613abc565b8015611c605780601f10611c3557610100808354040283529160200191611c60565b820191906000526020600020905b815481529060010190602001808311611c4357829003601f168201915b5050505050908060010160009054906101000a900461ffff16908060010160029054906101000a900461ffff16908060010160049054906101000a900460ff16908060010160059054906101000a900461ffff16908060010160079054906101000a900461ffff16908060020154908060030160009054906101000a900461ffff16908060030160029054906101000a900461ffff16905089565b600760009054906101000a900461ffff1681565b600a5481565b611d1e33612044565b611d2757600080fd5b6000600d60008373ffffffffffffffffffffffffffffffffffffffff1673ffffffffffffffffffffffffffffffffffffffff16815260200190815260200160002054905060ff83600b8381548110611d8257611d81613bc6565b5b906000526020600020906004020160010160049054906101000a900460ff16611dab91906138d6565b60ff161115611def576040517f08c379a0000000000000000000000000000000000000000000000000000000008152600401611de6906136b9565b60405180910390fd5b82600b8281548110611e0457611e03613bc6565b5b906000526020600020906004020160010160049054906101000a900460ff16611e2d91906138d6565b600b8281548110611e4157611e40613bc6565b5b906000526020600020906004020160010160046101000a81548160ff021916908360ff160217905550505050565b611e7761294c565b73ffffffffffffffffffffffffffffffffffffffff16611e95611af1565b73ffffffffffffffffffffffffffffffffffffffff1614611eeb576040517f08c379a0000000000000000000000000000000000000000000000000000000008152600401611ee290613699565b60405180910390fd5b60011515600f60008373ffffffffffffffffffffffffffffffffffffffff1673ffffffffffffffffffffffffffffffffffffffff16815260200190815260200160002060009054906101000a900460ff16151514611f7e576040517f08c379a0000000000000000000000000000000000000000000000000000000008152600401611f7590613719565b60405180910390fd5b6000600f60008373ffffffffffffffffffffffffffffffffffffffff1673ffffffffffffffffffffffffffffffffffffffff16815260200190815260200160002060006101000a81548160ff02191690831515021790555050565b600060045490506000606490506000600760009054906101000a900461ffff1690506000600390506000600960009054906101000a900461ffff169050612024868686868686612a18565b505050505050565b600d6020528060005260406000206000915090505481565b600060011515600f60008473ffffffffffffffffffffffffffffffffffffffff1673ffffffffffffffffffffffffffffffffffffffff16815260200190815260200160002060009054906101000a900460ff161515146120a55760006120a8565b60015b9050919050565b6120b761294c565b73ffffffffffffffffffffffffffffffffffffffff166120d5611af1565b73ffffffffffffffffffffffffffffffffffffffff161461212b576040517f08c379a000000000000000000000000000000000000000000000000000000000815260040161212290613699565b60405180910390fd5b60005b81518110156122695760001515600f600084848151811061215257612151613bc6565b5b602002602001015173ffffffffffffffffffffffffffffffffffffffff1673ffffffffffffffffffffffffffffffffffffffff16815260200190815260200160002060009054906101000a900460ff161515146121e4576040517f08c379a00000000000000000000000000000000000000000000000000000000081526004016121db90613639565b60405180910390fd5b6001600f60008484815181106121fd576121fc613bc6565b5b602002602001015173ffffffffffffffffffffffffffffffffffffffff1673ffffffffffffffffffffffffffffffffffffffff16815260200190815260200160002060006101000a81548160ff021916908315150217905550808061226190613b1f565b91505061212e565b5050565b61227561294c565b73ffffffffffffffffffffffffffffffffffffffff16612293611af1565b73ffffffffffffffffffffffffffffffffffffffff16146122e9576040517f08c379a00000000000000000000000000000000000000000000000000000000081526004016122e090613699565b60405180910390fd5b80600960006101000a81548161ffff021916908361ffff1602179055507f229185ed857f8c26a49f372aff6cb7d96dda3703c0547921a153b90f45e3f652816040516123359190613739565b60405180910390a150565b61234861294c565b73ffffffffffffffffffffffffffffffffffffffff16612366611af1565b73ffffffffffffffffffffffffffffffffffffffff16146123bc576040517f08c379a00000000000000000000000000000000000000000000000000000000081526004016123b390613699565b60405180910390fd5b806008819055507f2cc1bfb21b24e4b65024a8eaf0b6cdf98423fb4880d15d2a12e08780a67047be816040516123f291906137b5565b60405180910390a150565b61240561294c565b73ffffffffffffffffffffffffffffffffffffffff16612423611af1565b73ffffffffffffffffffffffffffffffffffffffff1614612479576040517f08c379a000000000000000000000000000000000000000000000000000000000815260040161247090613699565b60405180910390fd5b806006819055507f61fd74f099acb4085f97b7fca6f12e953b005ae2132cba19039703b640326a1d816040516124af91906137b5565b60405180910390a150565b6000600b80549050905090565b6124d033612044565b6124d957600080fd5b6000600d60008473ffffffffffffffffffffffffffffffffffffffff1673ffffffffffffffffffffffffffffffffffffffff168152602001908152602001600020549050600a82600b838154811061253457612533613bc6565b5b906000526020600020906004020160010160009054906101000a900461ffff1661255e9190613967565b61ffff16116125ad57600a600b828154811061257d5761257c613bc6565b5b906000526020600020906004020160010160006101000a81548161ffff021916908361ffff16021790555061262c565b81600b82815481106125c2576125c1613bc6565b5b906000526020600020906004020160010160009054906101000a900461ffff166125ec9190613967565b600b8281548110612600576125ff613bc6565b5b906000526020600020906004020160010160006101000a81548161ffff021916908361ffff1602179055505b505050565b61263a33612044565b61264357600080fd5b6000600d60008473ffffffffffffffffffffffffffffffffffffffff1673ffffffffffffffffffffffffffffffffffffffff168152602001908152602001600020549050600b818154811061269b5761269a613bc6565b5b906000526020600020906004020160010160079054906101000a900461ffff1661ffff1682600b83815481106126d4576126d3613bc6565b5b906000526020600020906004020160010160059054906101000a900461ffff166126fe919061389e565b61ffff161115612743576040517f08c379a000000000000000000000000000000000000000000000000000000000815260040161273a90613679565b60405180910390fd5b81600b828154811061275857612757613bc6565b5b906000526020600020906004020160010160059054906101000a900461ffff16612782919061389e565b600b828154811061279657612795613bc6565b5b906000526020600020906004020160010160056101000a81548161ffff021916908361ffff160217905550600a54600b82815481106127d8576127d7613bc6565b5b906000526020600020906004020160010160059054906101000a900461ffff1661ffff16612806919061390d565b600b828154811061281a57612819613bc6565b5b906000526020600020906004020160020181905550505050565b61283c61294c565b73ffffffffffffffffffffffffffffffffffffffff1661285a611af1565b73ffffffffffffffffffffffffffffffffffffffff16146128b0576040517f08c379a00000000000000000000000000000000000000000000000000000000081526004016128a790613699565b60405180910390fd5b600073ffffffffffffffffffffffffffffffffffffffff168173ffffffffffffffffffffffffffffffffffffffff161415612920576040517f08c379a000000000000000000000000000000000000000000000000000000000815260040161291790613659565b60405180910390fd5b61292981612954565b50565b600f6020528060005260406000206000915054906101000a900460ff1681565b600033905090565b60008060009054906101000a900473ffffffffffffffffffffffffffffffffffffffff169050816000806101000a81548173ffffffffffffffffffffffffffffffffffffffff021916908373ffffffffffffffffffffffffffffffffffffffff1602179055508173ffffffffffffffffffffffffffffffffffffffff168173ffffffffffffffffffffffffffffffffffffffff167f8be0079c531659141344cd1fd0a4f28419497f9722a3daafe3b4186f6b6457e060405160405180910390a35050565b6000600e60003373ffffffffffffffffffffffffffffffffffffffff1673ffffffffffffffffffffffffffffffffffffffff1681526020019081526020016000205414612a9a576040517f08c379a0000000000000000000000000000000000000000000000000000000008152600401612a91906136d9565b60405180910390fd5b600160009054906101000a900473ffffffffffffffffffffffffffffffffffffffff1673ffffffffffffffffffffffffffffffffffffffff166323b872dd33600260009054906101000a900473ffffffffffffffffffffffffffffffffffffffff16886040518463ffffffff1660e01b8152600401612b1b939291906134d1565b602060405180830381600087803b158015612b3557600080fd5b505af1158015612b49573d6000803e3d6000fd5b505050506040513d601f19601f82011682018060405250810190612b6d91906131ec565b506000612b786124ba565b9050600b6040518061012001604052808981526020018761ffff1681526020018661ffff168152602001600060ff1681526020018561ffff1681526020018461ffff168152602001600a548661ffff16612bd2919061390d565b8152602001600061ffff168152602001600061ffff1681525090806001815401808255809150506001900390600052602060002090600402016000909190919091506000820151816000019080519060200190612c30929190612e5e565b5060208201518160010160006101000a81548161ffff021916908361ffff16021790555060408201518160010160026101000a81548161ffff021916908361ffff16021790555060608201518160010160046101000a81548160ff021916908360ff16021790555060808201518160010160056101000a81548161ffff021916908361ffff16021790555060a08201518160010160076101000a81548161ffff021916908361ffff16021790555060c0820151816002015560e08201518160030160006101000a81548161ffff021916908361ffff1602179055506101008201518160030160026101000a81548161ffff021916908361ffff160217905550505033600c600083815260200190815260200160002060006101000a81548173ffffffffffffffffffffffffffffffffffffffff021916908373ffffffffffffffffffffffffffffffffffffffff16021790555080600d60003373ffffffffffffffffffffffffffffffffffffffff1673ffffffffffffffffffffffffffffffffffffffff16815260200190815260200160002081905550600e60003373ffffffffffffffffffffffffffffffffffffffff1673ffffffffffffffffffffffffffffffffffffffff1681526020019081526020016000206000815480929190612e1790613b1f565b91905055507f48a2e8b96899c2a1c5e9f4a56f76630eb67533b7a535e5143c977a9bcbdb7a648188604051612e4d9291906137d0565b60405180910390a150505050505050565b828054612e6a90613abc565b90600052602060002090601f016020900481019282612e8c5760008555612ed3565b82601f10612ea557805160ff1916838001178555612ed3565b82800160010185558215612ed3579182015b82811115612ed2578251825591602001919060010190612eb7565b5b509050612ee09190612ee4565b5090565b5b80821115612efd576000816000905550600101612ee5565b5090565b6000612f14612f0f84613825565b613800565b90508083825260208201905082856020860282011115612f3757612f36613c29565b5b60005b85811015612f675781612f4d8882612fb3565b845260208401935060208301925050600181019050612f3a565b5050509392505050565b6000612f84612f7f84613851565b613800565b905082815260208101848484011115612fa057612f9f613c2e565b5b612fab848285613a7a565b509392505050565b600081359050612fc281613ea0565b92915050565b600082601f830112612fdd57612fdc613c24565b5b8135612fed848260208601612f01565b91505092915050565b60008151905061300581613eb7565b92915050565b600082601f8301126130205761301f613c24565b5b8135613030848260208601612f71565b91505092915050565b60008135905061304881613ece565b92915050565b60008135905061305d81613ee5565b92915050565b60008135905061307281613efc565b92915050565b60006020828403121561308e5761308d613c38565b5b600061309c84828501612fb3565b91505092915050565b600080600080600080600060e0888a0312156130c4576130c3613c38565b5b60006130d28a828b01612fb3565b975050602088013567ffffffffffffffff8111156130f3576130f2613c33565b5b6130ff8a828b0161300b565b96505060406131108a828b0161304e565b95505060606131218a828b01613039565b94505060806131328a828b01613039565b93505060a06131438a828b01613039565b92505060c06131548a828b01613039565b91505092959891949750929550565b6000806040838503121561317a57613179613c38565b5b600061318885828601612fb3565b925050602061319985828601613039565b9150509250929050565b6000602082840312156131b9576131b8613c38565b5b600082013567ffffffffffffffff8111156131d7576131d6613c33565b5b6131e384828501612fc8565b91505092915050565b60006020828403121561320257613201613c38565b5b600061321084828501612ff6565b91505092915050565b60006020828403121561322f5761322e613c38565b5b600082013567ffffffffffffffff81111561324d5761324c613c33565b5b6132598482850161300b565b91505092915050565b60006020828403121561327857613277613c38565b5b600061328684828501613039565b91505092915050565b6000602082840312156132a5576132a4613c38565b5b60006132b38482850161304e565b91505092915050565b600080604083850312156132d3576132d2613c38565b5b60006132e185828601613063565b92505060206132f285828601612fb3565b9150509250929050565b613305816139cf565b82525050565b613314816139e1565b82525050565b61332381613a32565b82525050565b61333281613a44565b82525050565b600061334382613882565b61334d818561388d565b935061335d818560208601613a89565b61336681613c3d565b840191505092915050565b600061337e60278361388d565b915061338982613c4e565b604082019050919050565b60006133a160268361388d565b91506133ac82613c9d565b604082019050919050565b60006133c460388361388d565b91506133cf82613cec565b604082019050919050565b60006133e760208361388d565b91506133f282613d3b565b602082019050919050565b600061340a60248361388d565b915061341582613d64565b604082019050919050565b600061342d60338361388d565b915061343882613db3565b604082019050919050565b6000613450603a8361388d565b915061345b82613e02565b604082019050919050565b600061347360238361388d565b915061347e82613e51565b604082019050919050565b613492816139ed565b82525050565b6134a181613a1b565b82525050565b6134b081613a25565b82525050565b60006020820190506134cb60008301846132fc565b92915050565b60006060820190506134e660008301866132fc565b6134f360208301856132fc565b6135006040830184613498565b949350505050565b600060408201905061351d60008301856132fc565b61352a6020830184613329565b9392505050565b6000602082019050613546600083018461330b565b92915050565b6000602082019050613561600083018461331a565b92915050565b600060608201905081810360008301526135818186613338565b90506135906020830185613489565b61359d6040830184613489565b949350505050565b60006101208201905081810360008301526135c0818c613338565b90506135cf602083018b613489565b6135dc604083018a613489565b6135e960608301896134a7565b6135f66080830188613489565b61360360a0830187613489565b61361060c0830186613498565b61361d60e0830185613489565b61362b610100830184613489565b9a9950505050505050505050565b6000602082019050818103600083015261365281613371565b9050919050565b6000602082019050818103600083015261367281613394565b9050919050565b60006020820190508181036000830152613692816133b7565b9050919050565b600060208201905081810360008301526136b2816133da565b9050919050565b600060208201905081810360008301526136d2816133fd565b9050919050565b600060208201905081810360008301526136f281613420565b9050919050565b6000602082019050818103600083015261371281613443565b9050919050565b6000602082019050818103600083015261373281613466565b9050919050565b600060208201905061374e6000830184613489565b92915050565b600060c0820190506137696000830189613489565b6137766020830188613489565b61378360408301876134a7565b6137906060830186613489565b61379d6080830185613489565b6137aa60a0830184613498565b979650505050505050565b60006020820190506137ca6000830184613498565b92915050565b60006040820190506137e56000830185613498565b81810360208301526137f78184613338565b90509392505050565b600061380a61381b565b90506138168282613aee565b919050565b6000604051905090565b600067ffffffffffffffff8211156138405761383f613bf5565b5b602082029050602081019050919050565b600067ffffffffffffffff82111561386c5761386b613bf5565b5b61387582613c3d565b9050602081019050919050565b600081519050919050565b600082825260208201905092915050565b60006138a9826139ed565b91506138b4836139ed565b92508261ffff038211156138cb576138ca613b68565b5b828201905092915050565b60006138e182613a25565b91506138ec83613a25565b92508260ff0382111561390257613901613b68565b5b828201905092915050565b600061391882613a1b565b915061392383613a1b565b9250817fffffffffffffffffffffffffffffffffffffffffffffffffffffffffffffffff048311821515161561395c5761395b613b68565b5b828202905092915050565b6000613972826139ed565b915061397d836139ed565b9250828210156139905761398f613b68565b5b828203905092915050565b60006139a682613a25565b91506139b183613a25565b9250828210156139c4576139c3613b68565b5b828203905092915050565b60006139da826139fb565b9050919050565b60008115159050919050565b600061ffff82169050919050565b600073ffffffffffffffffffffffffffffffffffffffff82169050919050565b6000819050919050565b600060ff82169050919050565b6000613a3d82613a56565b9050919050565b6000613a4f82613a1b565b9050919050565b6000613a6182613a68565b9050919050565b6000613a73826139fb565b9050919050565b82818337600083830152505050565b60005b83811015613aa7578082015181840152602081019050613a8c565b83811115613ab6576000848401525b50505050565b60006002820490506001821680613ad457607f821691505b60208210811415613ae857613ae7613b97565b5b50919050565b613af782613c3d565b810181811067ffffffffffffffff82111715613b1657613b15613bf5565b5b80604052505050565b6000613b2a82613a1b565b91507fffffffffffffffffffffffffffffffffffffffffffffffffffffffffffffffff821415613b5d57613b5c613b68565b5b600182019050919050565b7f4e487b7100000000000000000000000000000000000000000000000000000000600052601160045260246000fd5b7f4e487b7100000000000000000000000000000000000000000000000000000000600052602260045260246000fd5b7f4e487b7100000000000000000000000000000000000000000000000000000000600052603260045260246000fd5b7f4e487b7100000000000000000000000000000000000000000000000000000000600052604160045260246000fd5b600080fd5b600080fd5b600080fd5b600080fd5b600080fd5b6000601f19601f8301169050919050565b7f445259444f434b3a204164647265737320697320616c7265616479206120707560008201527f7263686173657200000000000000000000000000000000000000000000000000602082015250565b7f4f776e61626c653a206e6577206f776e657220697320746865207a65726f206160008201527f6464726573730000000000000000000000000000000000000000000000000000602082015250565b7f445259444f434b3a2063616e6e6f742068617665206d6f7265207468616e207960008201527f6f7572206d617820616d6f756e74206f66206d696e6572730000000000000000602082015250565b7f4f776e61626c653a2063616c6c6572206973206e6f7420746865206f776e6572600082015250565b7f445259444f434b3a20706c61796572277320706f7765724d6f6420697320636160008201527f7070656400000000000000000000000000000000000000000000000000000000602082015250565b7f445259444f434b3a204561636820706c617965722063616e206f6e6c7920686160008201527f7665206f6e65204361706974616c205368697000000000000000000000000000602082015250565b7f445259444f434b3a2063616e6e6f742068617665206d6f7265207468616e207960008201527f6f7572206d617820616d6f756e74206f66206669676874657273000000000000602082015250565b7f445259444f434b3a2041646472657373206973206e6f7420612070757263686160008201527f7365720000000000000000000000000000000000000000000000000000000000602082015250565b613ea9816139cf565b8114613eb457600080fd5b50565b613ec0816139e1565b8114613ecb57600080fd5b50565b613ed7816139ed565b8114613ee257600080fd5b50565b613eee81613a1b565b8114613ef957600080fd5b50565b613f0581613a25565b8114613f1057600080fd5b5056fea26469706673582212203dc0918fea4472229c72d518e5890a3cffc743eee52ea29936e733710c18b30864736f6c63430008070033",
  "immutableReferences": {},
  "source": "// SPDX-License-Identifier: MIT\r\n\r\npragma solidity ^0.8.7;\r\n\r\nimport \"@openzeppelin/contracts/access/Ownable.sol\";\r\nimport \"./libs/ShibaBEP20.sol\";\r\nimport \"./libs/SafeBEP20.sol\";\r\n\r\ncontract DryDock is Ownable {\r\n    using SafeBEP20 for ShibaBEP20;\r\n\r\n    event NewCapitalShip(uint shipID, string name);\r\n    event NewBaseCapCost(uint newCost);\r\n    event NewFighterCost(uint newCost); \r\n    event NewMaxFighters(uint16 newMax);\r\n    event NewMinerCost(uint newCost);\r\n    event NewMaxMiners(uint16 newMax);\r\n    event NewWeightMax(uint newWeight);\r\n\r\n    ShibaBEP20 public Nova;\r\n    // ShibaBEP20 public sNova; currently don't need sNova\r\n    address public Treasury;\r\n    uint public baseCapCost = 100 * 10**18; // = 100 nova. amount of nova the base capital ship costs.\r\n    uint public valueCapCost = baseCapCost * 3; \r\n    uint public superCapCost = baseCapCost * 10;\r\n    uint public fighterCost = 10**18; // = 1 nova, cost of fighters can be changed\r\n    uint16 public currentMaxFighters = 1000;\r\n    uint public minerCost = 10*10**18; // == 10 nova, cost can by changed\r\n    uint16 public currentMaxMiners = 1000;\r\n    uint public weightMax = 10**18; // defines the NOVA carry capacity of the capital ship, dependant upon the number of miners\r\n\r\n    // Be sure to set this contract as a purchaser after deployment\r\n    constructor(\r\n        ShibaBEP20 _Nova\r\n        // ShibaBEP20 _sNova\r\n    ) public {\r\n        Nova = _Nova;\r\n        // sNova = _sNova;\r\n    }\r\n\r\n\r\n    // Info of the player's capital ship\r\n    struct CapitalShip {\r\n        string name;\r\n        uint16 fighters;\r\n        uint16 maxFighters;\r\n        uint8 powerMod;\r\n        uint16 miners;\r\n        uint16 maxMiners;\r\n        uint256 carryCapacity;\r\n        uint16 wins;\r\n        uint16 losses;\r\n    }\r\n\r\n    CapitalShip[] public capitalShips;\r\n\r\n    mapping (uint => address) public capitalShipOwner;\r\n    mapping (address => uint) public ownerShipId;\r\n    mapping (address => uint) ownerCapitalShipCount;\r\n    mapping (address => bool) public purchaser;\r\n\r\n     \r\n    // Addresses that can purchase ships\r\n     modifier onlyPurchaser {\r\n        require(isPurchaser(msg.sender));\r\n        _;\r\n    }\r\n    // Is address a purchaser?\r\n    function isPurchaser(address _purchaser) public view returns (bool){\r\n        return purchaser[_purchaser] == true ? true : false;\r\n    }\r\n     // Add new purchasers\r\n    function setPurchaser(address[] memory _purchaser) public onlyOwner {\r\n        for (uint i = 0; i < _purchaser.length; i++) {\r\n        require(purchaser[_purchaser[i]] == false, \"DRYDOCK: Address is already a purchaser\");\r\n        purchaser[_purchaser[i]] = true;\r\n        }\r\n    }\r\n    // Deactivate a purchaser\r\n    function deactivatePurchaser ( address _purchaser) public onlyOwner {\r\n        require(purchaser[_purchaser] == true, \"DRYDOCK: Address is not a purchaser\");\r\n        purchaser[_purchaser] = false;\r\n    }\r\n\r\n    function capShipLength() public view returns (uint256) {\r\n        return capitalShips.length;\r\n    }\r\n\r\n    // get capital ship data\r\n    function getCapitalShipRecord(uint256 _id) external view returns(\r\n            string memory name,\r\n            uint16 wins,\r\n            uint16 losses\r\n            ) {\r\n            return (\r\n                capitalShips[_id].name,\r\n                capitalShips[_id].wins,\r\n                capitalShips[_id].losses\r\n            );\r\n    }\r\n\r\n    function getCapitalShip(uint256 _id) external view returns(\r\n            uint16 fighters,\r\n            uint16 maxFighters,\r\n            uint8 powerMod,\r\n            uint16 miners,\r\n            uint16 maxMiners,\r\n            uint256 carryCapacity\r\n        ) {\r\n            return (\r\n                capitalShips[_id].fighters,\r\n                capitalShips[_id].maxFighters,\r\n                capitalShips[_id].powerMod,\r\n                capitalShips[_id].miners,\r\n                capitalShips[_id].maxMiners,\r\n                capitalShips[_id].carryCapacity\r\n            );\r\n        }\r\n    \r\n\r\n    function approveDryDock () external {\r\n        Nova.approve(msg.sender, 0xffffffffffffffffff);\r\n    }\r\n\r\n    // external function to build capital ship, _sender should be the address of the player, not the contracts interacting with this\r\n    function buildCapShip (\r\n        address _sender,\r\n        string memory _name, \r\n        uint _amount, \r\n        uint16 _startFighters, \r\n        uint16 _currentMaxFighters, \r\n        uint16 _startMiners, \r\n        uint16 _currentMaxMiners\r\n        ) external onlyPurchaser {\r\n            require(ownerCapitalShipCount[_sender] == 0, \"DRYDOCK: Each player can only have one Capital Ship\");\r\n            Nova.transferFrom(_sender, Treasury, _amount);\r\n            uint id = capShipLength();\r\n            capitalShips.push(CapitalShip({\r\n                name: _name, \r\n                fighters: _startFighters, \r\n                maxFighters: _currentMaxFighters,\r\n                powerMod: 0, \r\n                miners: _startMiners, \r\n                maxMiners: _currentMaxMiners, \r\n                carryCapacity: _startMiners * weightMax, \r\n                wins: 0, \r\n                losses: 0\r\n                }));\r\n\r\n        capitalShipOwner[id] = _sender;\r\n        ownerShipId[_sender] = id;\r\n        ownerCapitalShipCount[_sender]++;\r\n        emit NewCapitalShip(id, _name);\r\n    }\r\n\r\n    // internal function to build capital ship, \r\n    function _buildCapShip (\r\n        string memory _name, \r\n        uint _amount, \r\n        uint16 _startFighters, \r\n        uint16 _currentMaxFighters, \r\n        uint16 _startMiners, \r\n        uint16 _currentMaxMiners\r\n        ) private {\r\n            require(ownerCapitalShipCount[msg.sender] == 0, \"DRYDOCK: Each player can only have one Capital Ship\");\r\n            Nova.transferFrom(msg.sender, Treasury, _amount);\r\n            uint id = capShipLength();\r\n            capitalShips.push(CapitalShip({\r\n                name: _name, \r\n                fighters: _startFighters, \r\n                maxFighters: _currentMaxFighters,\r\n                powerMod: 0, \r\n                miners: _startMiners, \r\n                maxMiners: _currentMaxMiners, \r\n                carryCapacity: _startMiners * weightMax, \r\n                wins: 0, \r\n                losses: 0\r\n                }));\r\n\r\n        capitalShipOwner[id] = msg.sender;\r\n        ownerShipId[msg.sender] = id;\r\n        ownerCapitalShipCount[msg.sender]++;\r\n        emit NewCapitalShip(id, _name);\r\n    }\r\n\r\n    // set the cost of the base capital ship, this also sets the cost for the value packs\r\n    // ex: _amount = 10 * 10**18, then base cost is 10 nova\r\n    function setBasicCost (uint _amount) external onlyOwner {\r\n        baseCapCost = _amount;\r\n        emit NewBaseCapCost (_amount);\r\n    }\r\n\r\n    // funciton to build the basic capital ship with 10 fighters and 1 miner\r\n    function buildCapBasic(string memory _name) external {\r\n        uint _amount = baseCapCost; \r\n        uint16 _startFighters = 10;\r\n        uint16 _currentMaxFighters = currentMaxFighters; \r\n        uint16 _startMiners = 1; \r\n        uint16 _currentMaxMiners = currentMaxMiners;\r\n        _buildCapShip(_name, _amount, _startFighters, _currentMaxFighters, _startMiners, _currentMaxMiners);\r\n    }\r\n\r\n    function buildCapValue(string memory _name) external {\r\n        uint _amount = valueCapCost; \r\n        uint16 _startFighters = 100;\r\n        uint16 _currentMaxFighters = currentMaxFighters; \r\n        uint16 _startMiners = 3; \r\n        uint16 _currentMaxMiners = currentMaxMiners;\r\n        _buildCapShip(_name, _amount, _startFighters, _currentMaxFighters, _startMiners, _currentMaxMiners);\r\n    }\r\n    \r\n    function buildCapSuper(string memory _name) external {\r\n        uint _amount = superCapCost; \r\n        uint16 _startFighters = 500;\r\n        uint16 _currentMaxFighters = currentMaxFighters + 100; \r\n        uint16 _startMiners = 10; \r\n        uint16 _currentMaxMiners = currentMaxMiners;\r\n        _buildCapShip(_name, _amount, _startFighters, _currentMaxFighters, _startMiners, _currentMaxMiners);\r\n    }\r\n\r\n    // functions to add/sub/buy fighters, add/sub are for other contract interactions\r\n    function addFighter (address _sender, uint16 _value) external onlyPurchaser {\r\n        uint _id = ownerShipId[_sender];\r\n        require(capitalShips[_id].fighters + _value <= capitalShips[_id].maxFighters, \r\n            \"DRYDOCK: cannot have more than your max amount of fighters\");\r\n        capitalShips[_id].fighters = capitalShips[_id].fighters + _value;\r\n    }\r\n\r\n    // 10 is the min amount of fighters you're allowed to have\r\n    function subFighter (address _sender, uint16 _value) external onlyPurchaser {\r\n        uint _id = ownerShipId[_sender];\r\n        if (capitalShips[_id].fighters - _value <= 10) {\r\n            capitalShips[_id].fighters = 10;\r\n        } else {\r\n        capitalShips[_id].fighters = capitalShips[_id].fighters - _value;\r\n        }\r\n    }\r\n    \r\n    function buyFighters (uint16 _value) external {\r\n        uint _id = ownerShipId[msg.sender];\r\n        require(capitalShips[_id].fighters + _value <= capitalShips[_id].maxFighters, \r\n            \"DRYDOCK: cannot have more than your max amount of fighters\");\r\n        capitalShips[_id].fighters = capitalShips[_id].fighters + _value;\r\n    }\r\n\r\n    // allows owner to set a new fighter cost\r\n    function setFighterCost(uint _value) external onlyOwner {\r\n        fighterCost = _value;\r\n        emit NewFighterCost(_value);\r\n    }\r\n\r\n    // owner can modify maxFighters\r\n    function setMaxFighters(uint16 _value) external onlyOwner {\r\n        currentMaxFighters = _value; \r\n        emit NewMaxFighters(_value);\r\n    }\r\n\r\n    // functions to add/sub/buy miners, similar structure to fighters\r\n    function addMiner(address _sender, uint16 _value) external onlyPurchaser {\r\n        uint _id = ownerShipId[_sender];\r\n        require(capitalShips[_id].miners + _value <= capitalShips[_id].maxMiners, \r\n            \"DRYDOCK: cannot have more than your max amount of miners\");\r\n        capitalShips[_id].miners = capitalShips[_id].miners + _value;\r\n        capitalShips[_id].carryCapacity = capitalShips[_id].miners * weightMax;\r\n    }\r\n    \r\n    function subMiner (address _sender, uint16 _value) external onlyPurchaser {\r\n        uint _id = ownerShipId[_sender];\r\n        if (capitalShips[_id].miners - _value <= 10) {\r\n            capitalShips[_id].miners = 10;\r\n        } else {\r\n        capitalShips[_id].miners = capitalShips[_id].miners - _value;\r\n        }\r\n        capitalShips[_id].carryCapacity = capitalShips[_id].miners * weightMax;\r\n    }\r\n    \r\n    function buyMiners (uint16 _value) external {\r\n        uint _id = ownerShipId[msg.sender];\r\n        require(capitalShips[_id].miners + _value <= capitalShips[_id].maxMiners, \r\n            \"DRYDOCK: cannot have more than your max amount of miners\");\r\n        capitalShips[_id].miners = capitalShips[_id].miners + _value;\r\n        capitalShips[_id].carryCapacity = capitalShips[_id].miners * weightMax;\r\n    }\r\n\r\n    // allows owner to set a new miner cost\r\n    function setMinerCost(uint _value) external onlyOwner {\r\n        minerCost = _value;\r\n        emit NewMinerCost(_value);\r\n    }\r\n\r\n    // owner can modify maxMiners\r\n    function setMaxMiners(uint16 _value) external onlyOwner {\r\n        currentMaxMiners = _value; \r\n        emit NewMaxMiners(_value);\r\n    }\r\n\r\n    // set how much nova a miner can carry\r\n    function setWeightMax(uint _value) external onlyOwner {\r\n        weightMax = _value;\r\n        emit NewWeightMax(_value);\r\n    }\r\n\r\n    // set the fleet's powerMod\r\n    function addPowerMod(uint8 _value, address _sender) external onlyPurchaser {\r\n        uint _id = ownerShipId[_sender];\r\n        require(capitalShips[_id].powerMod + _value <= 255, \"DRYDOCK: player's powerMod is capped\");\r\n        capitalShips[_id].powerMod = capitalShips[_id].powerMod + _value;\r\n    }\r\n\r\n    function subPowerMod(uint8 _value, address _sender) external onlyPurchaser {\r\n        uint _id = ownerShipId[_sender];\r\n        if (capitalShips[_id].powerMod - _value <= 0) {\r\n            capitalShips[_id].powerMod = 0;\r\n        } else {\r\n        capitalShips[_id].powerMod = capitalShips[_id].powerMod + _value;\r\n        }\r\n    }\r\n\r\n    \r\n\r\n}",
  "sourcePath": "D:/Novaria/contracts/DryDock.sol",
  "compiler": {
    "name": "solc",
    "version": "0.8.7+commit.e28d00a7.Emscripten.clang"
  },
  "schemaVersion": "3.2.3",
  "updatedAt": "2021-12-15T18:10:05.218Z",
  "devdoc": {
    "kind": "dev",
    "methods": {
      "owner()": {
        "details": "Returns the address of the current owner."
      },
      "renounceOwnership()": {
        "details": "Leaves the contract without owner. It will not be possible to call `onlyOwner` functions anymore. Can only be called by the current owner. NOTE: Renouncing ownership will leave the contract without an owner, thereby removing any functionality that is only available to the owner."
      },
      "transferOwnership(address)": {
        "details": "Transfers ownership of the contract to a new account (`newOwner`). Can only be called by the current owner."
      }
    },
    "version": 1
  },
  "userdoc": {
    "kind": "user",
    "methods": {},
    "version": 1
  }
}