{
  "contractName": "NovaToken",
  "abi": [
    {
      "anonymous": false,
      "inputs": [
        {
          "indexed": true,
          "internalType": "address",
          "name": "owner",
          "type": "address"
        },
        {
          "indexed": true,
          "internalType": "address",
          "name": "spender",
          "type": "address"
        },
        {
          "indexed": false,
          "internalType": "uint256",
          "name": "value",
          "type": "uint256"
        }
      ],
      "name": "Approval",
      "type": "event"
    },
    {
      "anonymous": false,
      "inputs": [
        {
          "indexed": true,
          "internalType": "address",
          "name": "previousOwner",
          "type": "address"
        },
        {
          "indexed": true,
          "internalType": "address",
          "name": "newOwner",
          "type": "address"
        }
      ],
      "name": "OwnershipTransferred",
      "type": "event"
    },
    {
      "anonymous": false,
      "inputs": [
        {
          "indexed": true,
          "internalType": "address",
          "name": "from",
          "type": "address"
        },
        {
          "indexed": true,
          "internalType": "address",
          "name": "to",
          "type": "address"
        },
        {
          "indexed": false,
          "internalType": "uint256",
          "name": "value",
          "type": "uint256"
        }
      ],
      "name": "Transfer",
      "type": "event"
    },
    {
      "inputs": [],
      "name": "BURN_ADDRESS",
      "outputs": [
        {
          "internalType": "address",
          "name": "",
          "type": "address"
        }
      ],
      "stateMutability": "view",
      "type": "function"
    },
    {
      "inputs": [
        {
          "internalType": "address",
          "name": "owner",
          "type": "address"
        },
        {
          "internalType": "address",
          "name": "spender",
          "type": "address"
        }
      ],
      "name": "allowance",
      "outputs": [
        {
          "internalType": "uint256",
          "name": "",
          "type": "uint256"
        }
      ],
      "stateMutability": "view",
      "type": "function"
    },
    {
      "inputs": [
        {
          "internalType": "address",
          "name": "spender",
          "type": "address"
        },
        {
          "internalType": "uint256",
          "name": "amount",
          "type": "uint256"
        }
      ],
      "name": "approve",
      "outputs": [
        {
          "internalType": "bool",
          "name": "",
          "type": "bool"
        }
      ],
      "stateMutability": "nonpayable",
      "type": "function"
    },
    {
      "inputs": [
        {
          "internalType": "address",
          "name": "account",
          "type": "address"
        }
      ],
      "name": "balanceOf",
      "outputs": [
        {
          "internalType": "uint256",
          "name": "",
          "type": "uint256"
        }
      ],
      "stateMutability": "view",
      "type": "function"
    },
    {
      "inputs": [],
      "name": "burnSupply",
      "outputs": [
        {
          "internalType": "uint256",
          "name": "",
          "type": "uint256"
        }
      ],
      "stateMutability": "view",
      "type": "function"
    },
    {
      "inputs": [],
      "name": "decimals",
      "outputs": [
        {
          "internalType": "uint8",
          "name": "",
          "type": "uint8"
        }
      ],
      "stateMutability": "view",
      "type": "function"
    },
    {
      "inputs": [
        {
          "internalType": "address",
          "name": "spender",
          "type": "address"
        },
        {
          "internalType": "uint256",
          "name": "subtractedValue",
          "type": "uint256"
        }
      ],
      "name": "decreaseAllowance",
      "outputs": [
        {
          "internalType": "bool",
          "name": "",
          "type": "bool"
        }
      ],
      "stateMutability": "nonpayable",
      "type": "function"
    },
    {
      "inputs": [],
      "name": "getOwner",
      "outputs": [
        {
          "internalType": "address",
          "name": "",
          "type": "address"
        }
      ],
      "stateMutability": "view",
      "type": "function"
    },
    {
      "inputs": [
        {
          "internalType": "address",
          "name": "spender",
          "type": "address"
        },
        {
          "internalType": "uint256",
          "name": "addedValue",
          "type": "uint256"
        }
      ],
      "name": "increaseAllowance",
      "outputs": [
        {
          "internalType": "bool",
          "name": "",
          "type": "bool"
        }
      ],
      "stateMutability": "nonpayable",
      "type": "function"
    },
    {
      "inputs": [],
      "name": "name",
      "outputs": [
        {
          "internalType": "string",
          "name": "",
          "type": "string"
        }
      ],
      "stateMutability": "view",
      "type": "function"
    },
    {
      "inputs": [],
      "name": "owner",
      "outputs": [
        {
          "internalType": "address",
          "name": "",
          "type": "address"
        }
      ],
      "stateMutability": "view",
      "type": "function"
    },
    {
      "inputs": [],
      "name": "renounceOwnership",
      "outputs": [],
      "stateMutability": "nonpayable",
      "type": "function"
    },
    {
      "inputs": [],
      "name": "sNova",
      "outputs": [
        {
          "internalType": "address",
          "name": "",
          "type": "address"
        }
      ],
      "stateMutability": "view",
      "type": "function"
    },
    {
      "inputs": [],
      "name": "symbol",
      "outputs": [
        {
          "internalType": "string",
          "name": "",
          "type": "string"
        }
      ],
      "stateMutability": "view",
      "type": "function"
    },
    {
      "inputs": [],
      "name": "totalSupply",
      "outputs": [
        {
          "internalType": "uint256",
          "name": "",
          "type": "uint256"
        }
      ],
      "stateMutability": "view",
      "type": "function"
    },
    {
      "inputs": [
        {
          "internalType": "address",
          "name": "recipient",
          "type": "address"
        },
        {
          "internalType": "uint256",
          "name": "amount",
          "type": "uint256"
        }
      ],
      "name": "transfer",
      "outputs": [
        {
          "internalType": "bool",
          "name": "",
          "type": "bool"
        }
      ],
      "stateMutability": "nonpayable",
      "type": "function"
    },
    {
      "inputs": [
        {
          "internalType": "address",
          "name": "sender",
          "type": "address"
        },
        {
          "internalType": "address",
          "name": "recipient",
          "type": "address"
        },
        {
          "internalType": "uint256",
          "name": "amount",
          "type": "uint256"
        }
      ],
      "name": "transferFrom",
      "outputs": [
        {
          "internalType": "bool",
          "name": "",
          "type": "bool"
        }
      ],
      "stateMutability": "nonpayable",
      "type": "function"
    },
    {
      "inputs": [
        {
          "internalType": "address",
          "name": "newOwner",
          "type": "address"
        }
      ],
      "name": "transferOwnership",
      "outputs": [],
      "stateMutability": "nonpayable",
      "type": "function"
    },
    {
      "inputs": [],
      "name": "isOwner",
      "outputs": [
        {
          "internalType": "bool",
          "name": "",
          "type": "bool"
        }
      ],
      "stateMutability": "view",
      "type": "function"
    },
    {
      "inputs": [
        {
          "internalType": "address",
          "name": "_sNova",
          "type": "address"
        }
      ],
      "name": "setupSNova",
      "outputs": [],
      "stateMutability": "nonpayable",
      "type": "function"
    },
    {
      "inputs": [
        {
          "internalType": "address",
          "name": "_to",
          "type": "address"
        },
        {
          "internalType": "uint256",
          "name": "_amount",
          "type": "uint256"
        }
      ],
      "name": "mint",
      "outputs": [],
      "stateMutability": "nonpayable",
      "type": "function"
    }
  ],
  "bytecode": "0x60806040523480156200001157600080fd5b506040518060400160405280600a81526020017f53686962614e4f564120000000000000000000000000000000000000000000008152506040518060400160405280600481526020017f4e4f5641000000000000000000000000000000000000000000000000000000008152506200009e62000092620000f460201b60201c565b620000fc60201b60201c565b8160059080519060200190620000b6929190620001c0565b508060069080519060200190620000cf929190620001c0565b506012600760006101000a81548160ff021916908360ff1602179055505050620002d5565b600033905090565b60008060009054906101000a900473ffffffffffffffffffffffffffffffffffffffff169050816000806101000a81548173ffffffffffffffffffffffffffffffffffffffff021916908373ffffffffffffffffffffffffffffffffffffffff1602179055508173ffffffffffffffffffffffffffffffffffffffff168173ffffffffffffffffffffffffffffffffffffffff167f8be0079c531659141344cd1fd0a4f28419497f9722a3daafe3b4186f6b6457e060405160405180910390a35050565b828054620001ce9062000270565b90600052602060002090601f016020900481019282620001f257600085556200023e565b82601f106200020d57805160ff19168380011785556200023e565b828001600101855582156200023e579182015b828111156200023d57825182559160200191906001019062000220565b5b5090506200024d919062000251565b5090565b5b808211156200026c57600081600090555060010162000252565b5090565b600060028204905060018216806200028957607f821691505b60208210811415620002a0576200029f620002a6565b5b50919050565b7f4e487b7100000000000000000000000000000000000000000000000000000000600052602260045260246000fd5b6121dc80620002e56000396000f3fe608060405234801561001057600080fd5b50600436106101375760003560e01c8063893d20e8116100b8578063a457c2d71161007c578063a457c2d71461032e578063a9059cbb1461035e578063b03e64781461038e578063dd62ed3e146103ac578063f2fde38b146103dc578063fccc2813146103f857610137565b8063893d20e81461029a5780638da5cb5b146102b85780638f32d59b146102d657806395d89b41146102f45780639dfd5f051461031257610137565b8063313ce567116100ff578063313ce567146101f6578063395093511461021457806340c10f191461024457806370a0823114610260578063715018a61461029057610137565b806306fdde031461013c578063095ea7b31461015a57806318160ddd1461018a57806323b872dd146101a85780632ce39db1146101d8575b600080fd5b610144610416565b60405161015191906119d0565b60405180910390f35b610174600480360381019061016f9190611764565b6104a8565b60405161018191906119b5565b60405180910390f35b6101926104c6565b60405161019f9190611b52565b60405180910390f35b6101c260048036038101906101bd9190611711565b6104d0565b6040516101cf91906119b5565b60405180910390f35b6101e06105a9565b6040516101ed919061199a565b60405180910390f35b6101fe6105cf565b60405161020b9190611b6d565b60405180910390f35b61022e60048036038101906102299190611764565b6105e6565b60405161023b91906119b5565b60405180910390f35b61025e60048036038101906102599190611764565b610699565b005b61027a600480360381019061027591906116a4565b6106fd565b6040516102879190611b52565b60405180910390f35b610298610746565b005b6102a26107ce565b6040516102af919061199a565b60405180910390f35b6102c06107dd565b6040516102cd919061199a565b60405180910390f35b6102de610806565b6040516102eb91906119b5565b60405180910390f35b6102fc610843565b60405161030991906119d0565b60405180910390f35b61032c600480360381019061032791906116a4565b6108d5565b005b61034860048036038101906103439190611764565b610995565b60405161035591906119b5565b60405180910390f35b61037860048036038101906103739190611764565b610a62565b60405161038591906119b5565b60405180910390f35b610396610a80565b6040516103a39190611b52565b60405180910390f35b6103c660048036038101906103c191906116d1565b610a8a565b6040516103d39190611b52565b60405180910390f35b6103f660048036038101906103f191906116a4565b610b11565b005b610400610c09565b60405161040d919061199a565b60405180910390f35b60606005805461042590611d41565b80601f016020809104026020016040519081016040528092919081815260200182805461045190611d41565b801561049e5780601f106104735761010080835404028352916020019161049e565b820191906000526020600020905b81548152906001019060200180831161048157829003601f168201915b5050505050905090565b60006104bc6104b5610c0f565b8484610c17565b6001905092915050565b6000600354905090565b60006104dd848484610de2565b61059e846104e9610c0f565b6105998560405180606001604052806028815260200161211260289139600260008b73ffffffffffffffffffffffffffffffffffffffff1673ffffffffffffffffffffffffffffffffffffffff168152602001908152602001600020600061054f610c0f565b73ffffffffffffffffffffffffffffffffffffffff1673ffffffffffffffffffffffffffffffffffffffff16815260200190815260200160002054610f049092919063ffffffff16565b610c17565b600190509392505050565b600760019054906101000a900473ffffffffffffffffffffffffffffffffffffffff1681565b6000600760009054906101000a900460ff16905090565b600061068f6105f3610c0f565b8461068a8560026000610604610c0f565b73ffffffffffffffffffffffffffffffffffffffff1673ffffffffffffffffffffffffffffffffffffffff16815260200190815260200160002060008973ffffffffffffffffffffffffffffffffffffffff1673ffffffffffffffffffffffffffffffffffffffff16815260200190815260200160002054610f5990919063ffffffff16565b610c17565b6001905092915050565b6106a1610806565b806106b057506106af610f6f565b5b6106ef576040517f08c379a00000000000000000000000000000000000000000000000000000000081526004016106e690611b12565b60405180910390fd5b6106f98282610fc7565b5050565b6000600160008373ffffffffffffffffffffffffffffffffffffffff1673ffffffffffffffffffffffffffffffffffffffff168152602001908152602001600020549050919050565b61074e610c0f565b73ffffffffffffffffffffffffffffffffffffffff1661076c6107dd565b73ffffffffffffffffffffffffffffffffffffffff16146107c2576040517f08c379a00000000000000000000000000000000000000000000000000000000081526004016107b990611a92565b60405180910390fd5b6107cc6000611151565b565b60006107d86107dd565b905090565b60008060009054906101000a900473ffffffffffffffffffffffffffffffffffffffff16905090565b60006108106107dd565b73ffffffffffffffffffffffffffffffffffffffff163373ffffffffffffffffffffffffffffffffffffffff1614905090565b60606006805461085290611d41565b80601f016020809104026020016040519081016040528092919081815260200182805461087e90611d41565b80156108cb5780601f106108a0576101008083540402835291602001916108cb565b820191906000526020600020905b8154815290600101906020018083116108ae57829003601f168201915b5050505050905090565b6108dd610c0f565b73ffffffffffffffffffffffffffffffffffffffff166108fb6107dd565b73ffffffffffffffffffffffffffffffffffffffff1614610951576040517f08c379a000000000000000000000000000000000000000000000000000000000815260040161094890611a92565b60405180910390fd5b80600760016101000a81548173ffffffffffffffffffffffffffffffffffffffff021916908373ffffffffffffffffffffffffffffffffffffffff16021790555050565b6000610a586109a2610c0f565b84610a538560405180606001604052806025815260200161216060259139600260006109cc610c0f565b73ffffffffffffffffffffffffffffffffffffffff1673ffffffffffffffffffffffffffffffffffffffff16815260200190815260200160002060008a73ffffffffffffffffffffffffffffffffffffffff1673ffffffffffffffffffffffffffffffffffffffff16815260200190815260200160002054610f049092919063ffffffff16565b610c17565b6001905092915050565b6000610a76610a6f610c0f565b8484610de2565b6001905092915050565b6000600454905090565b6000600260008473ffffffffffffffffffffffffffffffffffffffff1673ffffffffffffffffffffffffffffffffffffffff16815260200190815260200160002060008373ffffffffffffffffffffffffffffffffffffffff1673ffffffffffffffffffffffffffffffffffffffff16815260200190815260200160002054905092915050565b610b19610c0f565b73ffffffffffffffffffffffffffffffffffffffff16610b376107dd565b73ffffffffffffffffffffffffffffffffffffffff1614610b8d576040517f08c379a0000000000000000000000000000000000000000000000000000000008152600401610b8490611a92565b60405180910390fd5b600073ffffffffffffffffffffffffffffffffffffffff168173ffffffffffffffffffffffffffffffffffffffff161415610bfd576040517f08c379a0000000000000000000000000000000000000000000000000000000008152600401610bf490611a32565b60405180910390fd5b610c0681611151565b50565b61dead81565b600033905090565b600073ffffffffffffffffffffffffffffffffffffffff168373ffffffffffffffffffffffffffffffffffffffff161415610c87576040517f08c379a0000000000000000000000000000000000000000000000000000000008152600401610c7e90611a12565b60405180910390fd5b600073ffffffffffffffffffffffffffffffffffffffff168273ffffffffffffffffffffffffffffffffffffffff161415610cf7576040517f08c379a0000000000000000000000000000000000000000000000000000000008152600401610cee90611b32565b60405180910390fd5b80600260008573ffffffffffffffffffffffffffffffffffffffff1673ffffffffffffffffffffffffffffffffffffffff16815260200190815260200160002060008473ffffffffffffffffffffffffffffffffffffffff1673ffffffffffffffffffffffffffffffffffffffff168152602001908152602001600020819055508173ffffffffffffffffffffffffffffffffffffffff168373ffffffffffffffffffffffffffffffffffffffff167f8c5be1e5ebec7d5bd14f71427d1e84f3dd0314c0f7b2291e5b200ac8c7c3b92583604051610dd59190611b52565b60405180910390a3505050565b60008111610e25576040517f08c379a0000000000000000000000000000000000000000000000000000000008152600401610e1c90611ab2565b60405180910390fd5b61dead73ffffffffffffffffffffffffffffffffffffffff168273ffffffffffffffffffffffffffffffffffffffff161415610e6a57610e658382611215565b610eff565b60006064600283610e7b9190611c2b565b610e859190611bfa565b905060008183610e959190611c85565b90508181610ea39190611ba4565b8314610ee4576040517f08c379a0000000000000000000000000000000000000000000000000000000008152600401610edb90611a52565b60405180910390fd5b610eee8583611215565b610ef98585836113d6565b80925050505b505050565b6000838311158290610f4c576040517f08c379a0000000000000000000000000000000000000000000000000000000008152600401610f4391906119d0565b60405180910390fd5b5082840390509392505050565b60008183610f679190611ba4565b905092915050565b6000600760019054906101000a900473ffffffffffffffffffffffffffffffffffffffff1673ffffffffffffffffffffffffffffffffffffffff163373ffffffffffffffffffffffffffffffffffffffff1614905090565b600073ffffffffffffffffffffffffffffffffffffffff168273ffffffffffffffffffffffffffffffffffffffff161415611037576040517f08c379a000000000000000000000000000000000000000000000000000000000815260040161102e90611a72565b60405180910390fd5b61104c81600354610f5990919063ffffffff16565b6003819055506110a481600160008573ffffffffffffffffffffffffffffffffffffffff1673ffffffffffffffffffffffffffffffffffffffff16815260200190815260200160002054610f5990919063ffffffff16565b600160008473ffffffffffffffffffffffffffffffffffffffff1673ffffffffffffffffffffffffffffffffffffffff168152602001908152602001600020819055508173ffffffffffffffffffffffffffffffffffffffff16600073ffffffffffffffffffffffffffffffffffffffff167fddf252ad1be2c89b69c2b068fc378daa952ba7f163c4a11628f55a4df523b3ef836040516111459190611b52565b60405180910390a35050565b60008060009054906101000a900473ffffffffffffffffffffffffffffffffffffffff169050816000806101000a81548173ffffffffffffffffffffffffffffffffffffffff021916908373ffffffffffffffffffffffffffffffffffffffff1602179055508173ffffffffffffffffffffffffffffffffffffffff168173ffffffffffffffffffffffffffffffffffffffff167f8be0079c531659141344cd1fd0a4f28419497f9722a3daafe3b4186f6b6457e060405160405180910390a35050565b61dead73ffffffffffffffffffffffffffffffffffffffff168273ffffffffffffffffffffffffffffffffffffffff161415611286576040517f08c379a000000000000000000000000000000000000000000000000000000000815260040161127d90611af2565b60405180910390fd5b6112f28160405180606001604052806022815260200161218560229139600160008673ffffffffffffffffffffffffffffffffffffffff1673ffffffffffffffffffffffffffffffffffffffff16815260200190815260200160002054610f049092919063ffffffff16565b600160008473ffffffffffffffffffffffffffffffffffffffff1673ffffffffffffffffffffffffffffffffffffffff1681526020019081526020016000208190555061134a8160035461166490919063ffffffff16565b60038190555061136581600454610f5990919063ffffffff16565b60048190555061dead73ffffffffffffffffffffffffffffffffffffffff168273ffffffffffffffffffffffffffffffffffffffff167fddf252ad1be2c89b69c2b068fc378daa952ba7f163c4a11628f55a4df523b3ef836040516113ca9190611b52565b60405180910390a35050565b600073ffffffffffffffffffffffffffffffffffffffff168373ffffffffffffffffffffffffffffffffffffffff161415611446576040517f08c379a000000000000000000000000000000000000000000000000000000000815260040161143d906119f2565b60405180910390fd5b600073ffffffffffffffffffffffffffffffffffffffff168273ffffffffffffffffffffffffffffffffffffffff1614156114b6576040517f08c379a00000000000000000000000000000000000000000000000000000000081526004016114ad90611ad2565b60405180910390fd5b6115228160405180606001604052806026815260200161213a60269139600160008773ffffffffffffffffffffffffffffffffffffffff1673ffffffffffffffffffffffffffffffffffffffff16815260200190815260200160002054610f049092919063ffffffff16565b600160008573ffffffffffffffffffffffffffffffffffffffff1673ffffffffffffffffffffffffffffffffffffffff168152602001908152602001600020819055506115b781600160008573ffffffffffffffffffffffffffffffffffffffff1673ffffffffffffffffffffffffffffffffffffffff16815260200190815260200160002054610f5990919063ffffffff16565b600160008473ffffffffffffffffffffffffffffffffffffffff1673ffffffffffffffffffffffffffffffffffffffff168152602001908152602001600020819055508173ffffffffffffffffffffffffffffffffffffffff168373ffffffffffffffffffffffffffffffffffffffff167fddf252ad1be2c89b69c2b068fc378daa952ba7f163c4a11628f55a4df523b3ef836040516116579190611b52565b60405180910390a3505050565b600081836116729190611c85565b905092915050565b600081359050611689816120e3565b92915050565b60008135905061169e816120fa565b92915050565b6000602082840312156116ba576116b9611e00565b5b60006116c88482850161167a565b91505092915050565b600080604083850312156116e8576116e7611e00565b5b60006116f68582860161167a565b92505060206117078582860161167a565b9150509250929050565b60008060006060848603121561172a57611729611e00565b5b60006117388682870161167a565b93505060206117498682870161167a565b925050604061175a8682870161168f565b9150509250925092565b6000806040838503121561177b5761177a611e00565b5b60006117898582860161167a565b925050602061179a8582860161168f565b9150509250929050565b6117ad81611cb9565b82525050565b6117bc81611ccb565b82525050565b60006117cd82611b88565b6117d78185611b93565b93506117e7818560208601611d0e565b6117f081611e05565b840191505092915050565b6000611808602583611b93565b915061181382611e16565b604082019050919050565b600061182b602483611b93565b915061183682611e65565b604082019050919050565b600061184e602683611b93565b915061185982611eb4565b604082019050919050565b6000611871602283611b93565b915061187c82611f03565b604082019050919050565b6000611894601f83611b93565b915061189f82611f52565b602082019050919050565b60006118b7602083611b93565b91506118c282611f7b565b602082019050919050565b60006118da600883611b93565b91506118e582611fa4565b602082019050919050565b60006118fd602383611b93565b915061190882611fcd565b604082019050919050565b6000611920602183611b93565b915061192b8261201c565b604082019050919050565b6000611943602083611b93565b915061194e8261206b565b602082019050919050565b6000611966602283611b93565b915061197182612094565b604082019050919050565b61198581611cf7565b82525050565b61199481611d01565b82525050565b60006020820190506119af60008301846117a4565b92915050565b60006020820190506119ca60008301846117b3565b92915050565b600060208201905081810360008301526119ea81846117c2565b905092915050565b60006020820190508181036000830152611a0b816117fb565b9050919050565b60006020820190508181036000830152611a2b8161181e565b9050919050565b60006020820190508181036000830152611a4b81611841565b9050919050565b60006020820190508181036000830152611a6b81611864565b9050919050565b60006020820190508181036000830152611a8b81611887565b9050919050565b60006020820190508181036000830152611aab816118aa565b9050919050565b60006020820190508181036000830152611acb816118cd565b9050919050565b60006020820190508181036000830152611aeb816118f0565b9050919050565b60006020820190508181036000830152611b0b81611913565b9050919050565b60006020820190508181036000830152611b2b81611936565b9050919050565b60006020820190508181036000830152611b4b81611959565b9050919050565b6000602082019050611b67600083018461197c565b92915050565b6000602082019050611b82600083018461198b565b92915050565b600081519050919050565b600082825260208201905092915050565b6000611baf82611cf7565b9150611bba83611cf7565b9250827fffffffffffffffffffffffffffffffffffffffffffffffffffffffffffffffff03821115611bef57611bee611d73565b5b828201905092915050565b6000611c0582611cf7565b9150611c1083611cf7565b925082611c2057611c1f611da2565b5b828204905092915050565b6000611c3682611cf7565b9150611c4183611cf7565b9250817fffffffffffffffffffffffffffffffffffffffffffffffffffffffffffffffff0483118215151615611c7a57611c79611d73565b5b828202905092915050565b6000611c9082611cf7565b9150611c9b83611cf7565b925082821015611cae57611cad611d73565b5b828203905092915050565b6000611cc482611cd7565b9050919050565b60008115159050919050565b600073ffffffffffffffffffffffffffffffffffffffff82169050919050565b6000819050919050565b600060ff82169050919050565b60005b83811015611d2c578082015181840152602081019050611d11565b83811115611d3b576000848401525b50505050565b60006002820490506001821680611d5957607f821691505b60208210811415611d6d57611d6c611dd1565b5b50919050565b7f4e487b7100000000000000000000000000000000000000000000000000000000600052601160045260246000fd5b7f4e487b7100000000000000000000000000000000000000000000000000000000600052601260045260246000fd5b7f4e487b7100000000000000000000000000000000000000000000000000000000600052602260045260246000fd5b600080fd5b6000601f19601f8301169050919050565b7f42455032303a207472616e736665722066726f6d20746865207a65726f20616460008201527f6472657373000000000000000000000000000000000000000000000000000000602082015250565b7f42455032303a20617070726f76652066726f6d20746865207a65726f2061646460008201527f7265737300000000000000000000000000000000000000000000000000000000602082015250565b7f4f776e61626c653a206e6577206f776e657220697320746865207a65726f206160008201527f6464726573730000000000000000000000000000000000000000000000000000602082015250565b7f4e6f76613a3a7472616e736665723a204275726e2076616c756520696e76616c60008201527f6964000000000000000000000000000000000000000000000000000000000000602082015250565b7f42455032303a206d696e7420746f20746865207a65726f206164647265737300600082015250565b7f4f776e61626c653a2063616c6c6572206973206e6f7420746865206f776e6572600082015250565b7f616d6f756e742030000000000000000000000000000000000000000000000000600082015250565b7f42455032303a207472616e7366657220746f20746865207a65726f206164647260008201527f6573730000000000000000000000000000000000000000000000000000000000602082015250565b7f42455032303a206275726e2066726f6d20746865207a65726f2061646472657360008201527f7300000000000000000000000000000000000000000000000000000000000000602082015250565b7f63616c6c6572206973206e6f7420746865206f776e6572206f7220734e6f7661600082015250565b7f42455032303a20617070726f766520746f20746865207a65726f20616464726560008201527f7373000000000000000000000000000000000000000000000000000000000000602082015250565b6120ec81611cb9565b81146120f757600080fd5b50565b61210381611cf7565b811461210e57600080fd5b5056fe42455032303a207472616e7366657220616d6f756e74206578636565647320616c6c6f77616e636542455032303a207472616e7366657220616d6f756e7420657863656564732062616c616e636542455032303a2064656372656173656420616c6c6f77616e63652062656c6f77207a65726f42455032303a206275726e20616d6f756e7420657863656564732062616c616e6365a26469706673582212201cc16085b5bc766e38b79a7a7ae6fa40db2f3735ca7b80d27d20df81944eac3564736f6c63430008070033",
  "immutableReferences": {},
  "source": "// SPDX-License-Identifier: MIT\r\n\r\npragma solidity ^0.8.7;\r\n\r\nimport \"./libs/ShibaBEP20.sol\";\r\n\r\ncontract NovaToken is ShibaBEP20(\"ShibaNOVA \", \"NOVA\") {\r\n\r\n    address public sNova;\r\n\r\n    /*\r\n     * @dev Throws if called by any account other than the owner or sNova\r\n     */\r\n    modifier onlyOwnerOrSNova() {\r\n        require(isOwner() || isSNova(), \"caller is not the owner or sNova\");\r\n        _;\r\n    }\r\n\r\n    /**\r\n     * @dev Returns true if the caller is the current owner.\r\n     */\r\n    function isOwner() public view returns (bool) {\r\n        return msg.sender == owner();\r\n    }\r\n\r\n    /**\r\n     * @dev Returns true if the caller is sNova contracts.\r\n     */\r\n    function isSNova() internal view returns (bool) {\r\n        return msg.sender == address(sNova);\r\n    }\r\n\r\n    function setupSNova(address _sNova) external onlyOwner{\r\n        sNova = _sNova;\r\n    }\r\n\r\n    /// @notice Creates `_amount` token to `_to`. Must only be called by the owner (MasterShiba).\r\n    function mint(address _to, uint256 _amount) external virtual override onlyOwnerOrSNova  {\r\n        _mint(_to, _amount);\r\n    }\r\n\r\n\r\n    /// @dev overrides transfer function to meet tokenomics of Nova\r\n    function _transfer(address sender, address recipient, uint256 amount) internal virtual override {\r\n        require(amount > 0, \"amount 0\");\r\n        if (recipient == BURN_ADDRESS) {\r\n            super._burn(sender, amount);\r\n        } else {\r\n            // 2% of every transfer burnt\r\n            uint256 burnAmount = amount*2/100;\r\n            // 98% of transfer sent to recipient\r\n            uint256 sendAmount = amount-burnAmount;\r\n            require(amount == sendAmount + burnAmount, \"Nova::transfer: Burn value invalid\");\r\n\r\n            super._burn(sender, burnAmount);\r\n            super._transfer(sender, recipient, sendAmount);\r\n            amount = sendAmount;\r\n        }\r\n    }\r\n\r\n}",
  "sourcePath": "D:/Novaria/contracts/NovaToken.sol",
  "compiler": {
    "name": "solc",
    "version": "0.8.7+commit.e28d00a7.Emscripten.clang"
  },
  "schemaVersion": "3.2.3",
  "updatedAt": "2021-12-15T01:45:32.254Z",
  "devdoc": {
    "kind": "dev",
    "methods": {
      "allowance(address,address)": {
        "details": "See {BEP20-allowance}."
      },
      "approve(address,uint256)": {
        "details": "See {BEP20-approve}. Requirements: - `spender` cannot be the zero address."
      },
      "balanceOf(address)": {
        "details": "See {BEP20-balanceOf}."
      },
      "burnSupply()": {
        "details": "See {BEP20-totalSupply}."
      },
      "decimals()": {
        "details": "Returns the token decimals."
      },
      "decreaseAllowance(address,uint256)": {
        "details": "Atomically decreases the allowance granted to `spender` by the caller. This is an alternative to {approve} that can be used as a mitigation for problems described in {BEP20-approve}. Emits an {Approval} event indicating the updated allowance. Requirements: - `spender` cannot be the zero address. - `spender` must have allowance for the caller of at least `subtractedValue`."
      },
      "getOwner()": {
        "details": "Returns the bep token owner."
      },
      "increaseAllowance(address,uint256)": {
        "details": "Atomically increases the allowance granted to `spender` by the caller. This is an alternative to {approve} that can be used as a mitigation for problems described in {BEP20-approve}. Emits an {Approval} event indicating the updated allowance. Requirements: - `spender` cannot be the zero address."
      },
      "isOwner()": {
        "details": "Returns true if the caller is the current owner."
      },
      "name()": {
        "details": "Returns the token name."
      },
      "owner()": {
        "details": "Returns the address of the current owner."
      },
      "renounceOwnership()": {
        "details": "Leaves the contract without owner. It will not be possible to call `onlyOwner` functions anymore. Can only be called by the current owner. NOTE: Renouncing ownership will leave the contract without an owner, thereby removing any functionality that is only available to the owner."
      },
      "symbol()": {
        "details": "Returns the token symbol."
      },
      "totalSupply()": {
        "details": "See {BEP20-totalSupply}."
      },
      "transfer(address,uint256)": {
        "details": "See {BEP20-transfer}. Requirements: - `recipient` cannot be the zero address. - the caller must have a balance of at least `amount`."
      },
      "transferFrom(address,address,uint256)": {
        "details": "See {BEP20-transferFrom}. Emits an {Approval} event indicating the updated allowance. This is not required by the EIP. See the note at the beginning of {BEP20}; Requirements: - `sender` and `recipient` cannot be the zero address. - `sender` must have a balance of at least `amount`. - the caller must have allowance for `sender`'s tokens of at least `amount`."
      },
      "transferOwnership(address)": {
        "details": "Transfers ownership of the contract to a new account (`newOwner`). Can only be called by the current owner."
      }
    },
    "version": 1
  },
  "userdoc": {
    "kind": "user",
    "methods": {
      "mint(address,uint256)": {
        "notice": "Creates `_amount` token to `_to`. Must only be called by the owner (MasterShiba)."
      }
    },
    "version": 1
  }
}