{
  "contractName": "NovaToken",
  "abi": [
    {
      "anonymous": false,
      "inputs": [
        {
          "indexed": true,
          "internalType": "address",
          "name": "owner",
          "type": "address"
        },
        {
          "indexed": true,
          "internalType": "address",
          "name": "spender",
          "type": "address"
        },
        {
          "indexed": false,
          "internalType": "uint256",
          "name": "value",
          "type": "uint256"
        }
      ],
      "name": "Approval",
      "type": "event"
    },
    {
      "anonymous": false,
      "inputs": [
        {
          "indexed": true,
          "internalType": "address",
          "name": "previousOwner",
          "type": "address"
        },
        {
          "indexed": true,
          "internalType": "address",
          "name": "newOwner",
          "type": "address"
        }
      ],
      "name": "OwnershipTransferred",
      "type": "event"
    },
    {
      "anonymous": false,
      "inputs": [
        {
          "indexed": true,
          "internalType": "address",
          "name": "from",
          "type": "address"
        },
        {
          "indexed": true,
          "internalType": "address",
          "name": "to",
          "type": "address"
        },
        {
          "indexed": false,
          "internalType": "uint256",
          "name": "value",
          "type": "uint256"
        }
      ],
      "name": "Transfer",
      "type": "event"
    },
    {
      "inputs": [],
      "name": "BURN_ADDRESS",
      "outputs": [
        {
          "internalType": "address",
          "name": "",
          "type": "address"
        }
      ],
      "stateMutability": "view",
      "type": "function"
    },
    {
      "inputs": [
        {
          "internalType": "address",
          "name": "owner",
          "type": "address"
        },
        {
          "internalType": "address",
          "name": "spender",
          "type": "address"
        }
      ],
      "name": "allowance",
      "outputs": [
        {
          "internalType": "uint256",
          "name": "",
          "type": "uint256"
        }
      ],
      "stateMutability": "view",
      "type": "function"
    },
    {
      "inputs": [
        {
          "internalType": "address",
          "name": "spender",
          "type": "address"
        },
        {
          "internalType": "uint256",
          "name": "amount",
          "type": "uint256"
        }
      ],
      "name": "approve",
      "outputs": [
        {
          "internalType": "bool",
          "name": "",
          "type": "bool"
        }
      ],
      "stateMutability": "nonpayable",
      "type": "function"
    },
    {
      "inputs": [
        {
          "internalType": "address",
          "name": "account",
          "type": "address"
        }
      ],
      "name": "balanceOf",
      "outputs": [
        {
          "internalType": "uint256",
          "name": "",
          "type": "uint256"
        }
      ],
      "stateMutability": "view",
      "type": "function"
    },
    {
      "inputs": [],
      "name": "burnSupply",
      "outputs": [
        {
          "internalType": "uint256",
          "name": "",
          "type": "uint256"
        }
      ],
      "stateMutability": "view",
      "type": "function"
    },
    {
      "inputs": [],
      "name": "decimals",
      "outputs": [
        {
          "internalType": "uint8",
          "name": "",
          "type": "uint8"
        }
      ],
      "stateMutability": "view",
      "type": "function"
    },
    {
      "inputs": [
        {
          "internalType": "address",
          "name": "spender",
          "type": "address"
        },
        {
          "internalType": "uint256",
          "name": "subtractedValue",
          "type": "uint256"
        }
      ],
      "name": "decreaseAllowance",
      "outputs": [
        {
          "internalType": "bool",
          "name": "",
          "type": "bool"
        }
      ],
      "stateMutability": "nonpayable",
      "type": "function"
    },
    {
      "inputs": [],
      "name": "getOwner",
      "outputs": [
        {
          "internalType": "address",
          "name": "",
          "type": "address"
        }
      ],
      "stateMutability": "view",
      "type": "function"
    },
    {
      "inputs": [
        {
          "internalType": "address",
          "name": "spender",
          "type": "address"
        },
        {
          "internalType": "uint256",
          "name": "addedValue",
          "type": "uint256"
        }
      ],
      "name": "increaseAllowance",
      "outputs": [
        {
          "internalType": "bool",
          "name": "",
          "type": "bool"
        }
      ],
      "stateMutability": "nonpayable",
      "type": "function"
    },
    {
      "inputs": [],
      "name": "name",
      "outputs": [
        {
          "internalType": "string",
          "name": "",
          "type": "string"
        }
      ],
      "stateMutability": "view",
      "type": "function"
    },
    {
      "inputs": [],
      "name": "owner",
      "outputs": [
        {
          "internalType": "address",
          "name": "",
          "type": "address"
        }
      ],
      "stateMutability": "view",
      "type": "function"
    },
    {
      "inputs": [],
      "name": "renounceOwnership",
      "outputs": [],
      "stateMutability": "nonpayable",
      "type": "function"
    },
    {
      "inputs": [],
      "name": "sNova",
      "outputs": [
        {
          "internalType": "address",
          "name": "",
          "type": "address"
        }
      ],
      "stateMutability": "view",
      "type": "function"
    },
    {
      "inputs": [],
      "name": "symbol",
      "outputs": [
        {
          "internalType": "string",
          "name": "",
          "type": "string"
        }
      ],
      "stateMutability": "view",
      "type": "function"
    },
    {
      "inputs": [],
      "name": "totalSupply",
      "outputs": [
        {
          "internalType": "uint256",
          "name": "",
          "type": "uint256"
        }
      ],
      "stateMutability": "view",
      "type": "function"
    },
    {
      "inputs": [
        {
          "internalType": "address",
          "name": "recipient",
          "type": "address"
        },
        {
          "internalType": "uint256",
          "name": "amount",
          "type": "uint256"
        }
      ],
      "name": "transfer",
      "outputs": [
        {
          "internalType": "bool",
          "name": "",
          "type": "bool"
        }
      ],
      "stateMutability": "nonpayable",
      "type": "function"
    },
    {
      "inputs": [
        {
          "internalType": "address",
          "name": "sender",
          "type": "address"
        },
        {
          "internalType": "address",
          "name": "recipient",
          "type": "address"
        },
        {
          "internalType": "uint256",
          "name": "amount",
          "type": "uint256"
        }
      ],
      "name": "transferFrom",
      "outputs": [
        {
          "internalType": "bool",
          "name": "",
          "type": "bool"
        }
      ],
      "stateMutability": "nonpayable",
      "type": "function"
    },
    {
      "inputs": [
        {
          "internalType": "address",
          "name": "newOwner",
          "type": "address"
        }
      ],
      "name": "transferOwnership",
      "outputs": [],
      "stateMutability": "nonpayable",
      "type": "function"
    },
    {
      "inputs": [],
      "name": "isOwner",
      "outputs": [
        {
          "internalType": "bool",
          "name": "",
          "type": "bool"
        }
      ],
      "stateMutability": "view",
      "type": "function"
    },
    {
      "inputs": [
        {
          "internalType": "address",
          "name": "_sNova",
          "type": "address"
        }
      ],
      "name": "setupSNova",
      "outputs": [],
      "stateMutability": "nonpayable",
      "type": "function"
    },
    {
      "inputs": [
        {
          "internalType": "address",
          "name": "_to",
          "type": "address"
        },
        {
          "internalType": "uint256",
          "name": "_amount",
          "type": "uint256"
        }
      ],
      "name": "mint",
      "outputs": [],
      "stateMutability": "nonpayable",
      "type": "function"
    }
  ],
  "bytecode": "0x60806040523480156200001157600080fd5b506040518060400160405280600a815260200169029b434b130a727ab20960b51b815250604051806040016040528060048152602001634e4f564160e01b8152506200006c62000066620000ad60201b60201c565b620000b1565b81516200008190600590602085019062000101565b5080516200009790600690602084019062000101565b50506007805460ff1916601217905550620001e4565b3390565b600080546001600160a01b038381166001600160a01b0319831681178455604051919092169283917f8be0079c531659141344cd1fd0a4f28419497f9722a3daafe3b4186f6b6457e09190a35050565b8280546200010f90620001a7565b90600052602060002090601f0160209004810192826200013357600085556200017e565b82601f106200014e57805160ff19168380011785556200017e565b828001600101855582156200017e579182015b828111156200017e57825182559160200191906001019062000161565b506200018c92915062000190565b5090565b5b808211156200018c576000815560010162000191565b600181811c90821680620001bc57607f821691505b60208210811415620001de57634e487b7160e01b600052602260045260246000fd5b50919050565b610f8f80620001f46000396000f3fe608060405234801561001057600080fd5b50600436106101375760003560e01c8063893d20e8116100b8578063a457c2d71161007c578063a457c2d71461027f578063a9059cbb14610292578063b03e6478146102a5578063dd62ed3e146102ad578063f2fde38b146102e6578063fccc2813146102f957600080fd5b8063893d20e8146102405780638da5cb5b146102405780638f32d59b1461025157806395d89b41146102645780639dfd5f051461026c57600080fd5b8063313ce567116100ff578063313ce567146101d257806339509351146101e757806340c10f19146101fa57806370a082311461020f578063715018a61461023857600080fd5b806306fdde031461013c578063095ea7b31461015a57806318160ddd1461017d57806323b872dd1461018f5780632ce39db1146101a2575b600080fd5b610144610302565b6040516101519190610d79565b60405180910390f35b61016d610168366004610d4f565b610394565b6040519015158152602001610151565b6003545b604051908152602001610151565b61016d61019d366004610d13565b6103aa565b6007546101ba9061010090046001600160a01b031681565b6040516001600160a01b039091168152602001610151565b60075460405160ff9091168152602001610151565b61016d6101f5366004610d4f565b610413565b61020d610208366004610d4f565b610449565b005b61018161021d366004610cc5565b6001600160a01b031660009081526001602052604090205490565b61020d6104d0565b6000546001600160a01b03166101ba565b6000546001600160a01b0316331461016d565b610144610506565b61020d61027a366004610cc5565b610515565b61016d61028d366004610d4f565b610567565b61016d6102a0366004610d4f565b6105b6565b600454610181565b6101816102bb366004610ce0565b6001600160a01b03918216600090815260026020908152604080832093909416825291909152205490565b61020d6102f4366004610cc5565b6105c3565b6101ba61dead81565b60606005805461031190610e73565b80601f016020809104026020016040519081016040528092919081815260200182805461033d90610e73565b801561038a5780601f1061035f5761010080835404028352916020019161038a565b820191906000526020600020905b81548152906001019060200180831161036d57829003601f168201915b5050505050905090565b60006103a133848461065e565b50600192915050565b60006103b7848484610783565b610409843361040485604051806060016040528060288152602001610ec5602891396001600160a01b038a1660009081526002602090815260408083203384529091529020549190610888565b61065e565b5060019392505050565b3360008181526002602090815260408083206001600160a01b038716845290915281205490916103a191859061040490866108b4565b6000546001600160a01b0316331480610471575060075461010090046001600160a01b031633145b6104c25760405162461bcd60e51b815260206004820181905260248201527f63616c6c6572206973206e6f7420746865206f776e6572206f7220734e6f766160448201526064015b60405180910390fd5b6104cc82826108c7565b5050565b6000546001600160a01b031633146104fa5760405162461bcd60e51b81526004016104b990610dce565b61050460006109ad565b565b60606006805461031190610e73565b6000546001600160a01b0316331461053f5760405162461bcd60e51b81526004016104b990610dce565b600780546001600160a01b0390921661010002610100600160a81b0319909216919091179055565b60006103a1338461040485604051806060016040528060258152602001610f13602591393360009081526002602090815260408083206001600160a01b038d1684529091529020549190610888565b60006103a1338484610783565b6000546001600160a01b031633146105ed5760405162461bcd60e51b81526004016104b990610dce565b6001600160a01b0381166106525760405162461bcd60e51b815260206004820152602660248201527f4f776e61626c653a206e6577206f776e657220697320746865207a65726f206160448201526564647265737360d01b60648201526084016104b9565b61065b816109ad565b50565b6001600160a01b0383166106c05760405162461bcd60e51b8152602060048201526024808201527f42455032303a20617070726f76652066726f6d20746865207a65726f206164646044820152637265737360e01b60648201526084016104b9565b6001600160a01b0382166107215760405162461bcd60e51b815260206004820152602260248201527f42455032303a20617070726f766520746f20746865207a65726f206164647265604482015261737360f01b60648201526084016104b9565b6001600160a01b0383811660008181526002602090815260408083209487168084529482529182902085905590518481527f8c5be1e5ebec7d5bd14f71427d1e84f3dd0314c0f7b2291e5b200ac8c7c3b92591015b60405180910390a3505050565b600081116107be5760405162461bcd60e51b81526020600482015260086024820152670616d6f756e7420360c41b60448201526064016104b9565b6001600160a01b03821661dead14156107e0576107db83826109fd565b505050565b600060646107ef836002610e3d565b6107f99190610e1b565b905060006108078284610e5c565b90506108138282610e03565b831461086c5760405162461bcd60e51b815260206004820152602260248201527f4e6f76613a3a7472616e736665723a204275726e2076616c756520696e76616c6044820152611a5960f21b60648201526084016104b9565b61087685836109fd565b610881858583610b17565b5050505050565b600081848411156108ac5760405162461bcd60e51b81526004016104b99190610d79565b505050900390565b60006108c08284610e03565b9392505050565b6001600160a01b03821661091d5760405162461bcd60e51b815260206004820152601f60248201527f42455032303a206d696e7420746f20746865207a65726f20616464726573730060448201526064016104b9565b60035461092a90826108b4565b6003556001600160a01b03821660009081526001602052604090205461095090826108b4565b6001600160a01b0383166000818152600160205260408082209390935591519091907fddf252ad1be2c89b69c2b068fc378daa952ba7f163c4a11628f55a4df523b3ef906109a19085815260200190565b60405180910390a35050565b600080546001600160a01b038381166001600160a01b0319831681178455604051919092169283917f8be0079c531659141344cd1fd0a4f28419497f9722a3daafe3b4186f6b6457e09190a35050565b6001600160a01b03821661dead1415610a625760405162461bcd60e51b815260206004820152602160248201527f42455032303a206275726e2066726f6d20746865207a65726f206164647265736044820152607360f81b60648201526084016104b9565b610a9f81604051806060016040528060228152602001610f38602291396001600160a01b0385166000908152600160205260409020549190610888565b6001600160a01b038316600090815260016020526040902055600354610ac59082610c9d565b600355600454610ad590826108b4565b60045560405181815261dead906001600160a01b038416907fddf252ad1be2c89b69c2b068fc378daa952ba7f163c4a11628f55a4df523b3ef906020016109a1565b6001600160a01b038316610b7b5760405162461bcd60e51b815260206004820152602560248201527f42455032303a207472616e736665722066726f6d20746865207a65726f206164604482015264647265737360d81b60648201526084016104b9565b6001600160a01b038216610bdd5760405162461bcd60e51b815260206004820152602360248201527f42455032303a207472616e7366657220746f20746865207a65726f206164647260448201526265737360e81b60648201526084016104b9565b610c1a81604051806060016040528060268152602001610eed602691396001600160a01b0386166000908152600160205260409020549190610888565b6001600160a01b038085166000908152600160205260408082209390935590841681522054610c4990826108b4565b6001600160a01b0380841660008181526001602052604090819020939093559151908516907fddf252ad1be2c89b69c2b068fc378daa952ba7f163c4a11628f55a4df523b3ef906107769085815260200190565b60006108c08284610e5c565b80356001600160a01b0381168114610cc057600080fd5b919050565b600060208284031215610cd757600080fd5b6108c082610ca9565b60008060408385031215610cf357600080fd5b610cfc83610ca9565b9150610d0a60208401610ca9565b90509250929050565b600080600060608486031215610d2857600080fd5b610d3184610ca9565b9250610d3f60208501610ca9565b9150604084013590509250925092565b60008060408385031215610d6257600080fd5b610d6b83610ca9565b946020939093013593505050565b600060208083528351808285015260005b81811015610da657858101830151858201604001528201610d8a565b81811115610db8576000604083870101525b50601f01601f1916929092016040019392505050565b6020808252818101527f4f776e61626c653a2063616c6c6572206973206e6f7420746865206f776e6572604082015260600190565b60008219821115610e1657610e16610eae565b500190565b600082610e3857634e487b7160e01b600052601260045260246000fd5b500490565b6000816000190483118215151615610e5757610e57610eae565b500290565b600082821015610e6e57610e6e610eae565b500390565b600181811c90821680610e8757607f821691505b60208210811415610ea857634e487b7160e01b600052602260045260246000fd5b50919050565b634e487b7160e01b600052601160045260246000fdfe42455032303a207472616e7366657220616d6f756e74206578636565647320616c6c6f77616e636542455032303a207472616e7366657220616d6f756e7420657863656564732062616c616e636542455032303a2064656372656173656420616c6c6f77616e63652062656c6f77207a65726f42455032303a206275726e20616d6f756e7420657863656564732062616c616e6365a2646970667358221220cff8ce5c1e396a68143a4fcd95fd527720682b580b0f2c255fd07599d26381fd64736f6c63430008070033",
  "immutableReferences": {},
  "source": "// SPDX-License-Identifier: MIT\r\n\r\npragma solidity ^0.8.7;\r\n\r\nimport \"./libs/ShibaBEP20.sol\";\r\n\r\ncontract NovaToken is ShibaBEP20(\"ShibaNOVA \", \"NOVA\") {\r\n\r\n    address public sNova;\r\n\r\n    /*\r\n     * @dev Throws if called by any account other than the owner or sNova\r\n     */\r\n    modifier onlyOwnerOrSNova() {\r\n        require(isOwner() || isSNova(), \"caller is not the owner or sNova\");\r\n        _;\r\n    }\r\n\r\n    /**\r\n     * @dev Returns true if the caller is the current owner.\r\n     */\r\n    function isOwner() public view returns (bool) {\r\n        return msg.sender == owner();\r\n    }\r\n\r\n    /**\r\n     * @dev Returns true if the caller is sNova contracts.\r\n     */\r\n    function isSNova() internal view returns (bool) {\r\n        return msg.sender == address(sNova);\r\n    }\r\n\r\n    function setupSNova(address _sNova) external onlyOwner{\r\n        sNova = _sNova;\r\n    }\r\n\r\n    /// @notice Creates `_amount` token to `_to`. Must only be called by the owner (MasterShiba).\r\n    function mint(address _to, uint256 _amount) external virtual override onlyOwnerOrSNova  {\r\n        _mint(_to, _amount);\r\n    }\r\n\r\n\r\n    /// @dev overrides transfer function to meet tokenomics of Nova\r\n    function _transfer(address sender, address recipient, uint256 amount) internal virtual override {\r\n        require(amount > 0, \"amount 0\");\r\n        if (recipient == BURN_ADDRESS) {\r\n            super._burn(sender, amount);\r\n        } else {\r\n            // 2% of every transfer burnt\r\n            uint256 burnAmount = amount*2/100;\r\n            // 98% of transfer sent to recipient\r\n            uint256 sendAmount = amount-burnAmount;\r\n            require(amount == sendAmount + burnAmount, \"Nova::transfer: Burn value invalid\");\r\n\r\n            super._burn(sender, burnAmount);\r\n            super._transfer(sender, recipient, sendAmount);\r\n            amount = sendAmount;\r\n        }\r\n    }\r\n\r\n}",
  "sourcePath": "D:\\repos\\Novaria\\contracts\\NovaToken.sol",
  "compiler": {
    "name": "solc",
    "version": "0.8.7+commit.e28d00a7.Emscripten.clang"
  },
  "schemaVersion": "3.4.4",
  "updatedAt": "2022-02-12T20:30:34.018Z",
  "devdoc": {
    "kind": "dev",
    "methods": {
      "allowance(address,address)": {
        "details": "See {BEP20-allowance}."
      },
      "approve(address,uint256)": {
        "details": "See {BEP20-approve}. Requirements: - `spender` cannot be the zero address."
      },
      "balanceOf(address)": {
        "details": "See {BEP20-balanceOf}."
      },
      "burnSupply()": {
        "details": "See {BEP20-totalSupply}."
      },
      "decimals()": {
        "details": "Returns the token decimals."
      },
      "decreaseAllowance(address,uint256)": {
        "details": "Atomically decreases the allowance granted to `spender` by the caller. This is an alternative to {approve} that can be used as a mitigation for problems described in {BEP20-approve}. Emits an {Approval} event indicating the updated allowance. Requirements: - `spender` cannot be the zero address. - `spender` must have allowance for the caller of at least `subtractedValue`."
      },
      "getOwner()": {
        "details": "Returns the bep token owner."
      },
      "increaseAllowance(address,uint256)": {
        "details": "Atomically increases the allowance granted to `spender` by the caller. This is an alternative to {approve} that can be used as a mitigation for problems described in {BEP20-approve}. Emits an {Approval} event indicating the updated allowance. Requirements: - `spender` cannot be the zero address."
      },
      "isOwner()": {
        "details": "Returns true if the caller is the current owner."
      },
      "name()": {
        "details": "Returns the token name."
      },
      "owner()": {
        "details": "Returns the address of the current owner."
      },
      "renounceOwnership()": {
        "details": "Leaves the contract without owner. It will not be possible to call `onlyOwner` functions anymore. Can only be called by the current owner. NOTE: Renouncing ownership will leave the contract without an owner, thereby removing any functionality that is only available to the owner."
      },
      "symbol()": {
        "details": "Returns the token symbol."
      },
      "totalSupply()": {
        "details": "See {BEP20-totalSupply}."
      },
      "transfer(address,uint256)": {
        "details": "See {BEP20-transfer}. Requirements: - `recipient` cannot be the zero address. - the caller must have a balance of at least `amount`."
      },
      "transferFrom(address,address,uint256)": {
        "details": "See {BEP20-transferFrom}. Emits an {Approval} event indicating the updated allowance. This is not required by the EIP. See the note at the beginning of {BEP20}; Requirements: - `sender` and `recipient` cannot be the zero address. - `sender` must have a balance of at least `amount`. - the caller must have allowance for `sender`'s tokens of at least `amount`."
      },
      "transferOwnership(address)": {
        "details": "Transfers ownership of the contract to a new account (`newOwner`). Can only be called by the current owner."
      }
    },
    "version": 1
  },
  "userdoc": {
    "kind": "user",
    "methods": {
      "mint(address,uint256)": {
        "notice": "Creates `_amount` token to `_to`. Must only be called by the owner (MasterShiba)."
      }
    },
    "version": 1
  }
}