{
  "contractName": "SNovaToken",
  "abi": [
    {
      "inputs": [
        {
          "internalType": "uint256",
          "name": "swapPenaltyMaxPeriod",
          "type": "uint256"
        },
        {
          "internalType": "uint256",
          "name": "swapPenaltyMaxPerSNova",
          "type": "uint256"
        }
      ],
      "stateMutability": "nonpayable",
      "type": "constructor"
    },
    {
      "anonymous": false,
      "inputs": [
        {
          "indexed": true,
          "internalType": "address",
          "name": "owner",
          "type": "address"
        },
        {
          "indexed": true,
          "internalType": "address",
          "name": "spender",
          "type": "address"
        },
        {
          "indexed": false,
          "internalType": "uint256",
          "name": "value",
          "type": "uint256"
        }
      ],
      "name": "Approval",
      "type": "event"
    },
    {
      "anonymous": false,
      "inputs": [
        {
          "indexed": true,
          "internalType": "address",
          "name": "delegator",
          "type": "address"
        },
        {
          "indexed": true,
          "internalType": "address",
          "name": "fromDelegate",
          "type": "address"
        },
        {
          "indexed": true,
          "internalType": "address",
          "name": "toDelegate",
          "type": "address"
        }
      ],
      "name": "DelegateChanged",
      "type": "event"
    },
    {
      "anonymous": false,
      "inputs": [
        {
          "indexed": true,
          "internalType": "address",
          "name": "delegate",
          "type": "address"
        },
        {
          "indexed": false,
          "internalType": "uint256",
          "name": "previousBalance",
          "type": "uint256"
        },
        {
          "indexed": false,
          "internalType": "uint256",
          "name": "newBalance",
          "type": "uint256"
        }
      ],
      "name": "DelegateVotesChanged",
      "type": "event"
    },
    {
      "anonymous": false,
      "inputs": [
        {
          "indexed": true,
          "internalType": "address",
          "name": "previousOwner",
          "type": "address"
        },
        {
          "indexed": true,
          "internalType": "address",
          "name": "newOwner",
          "type": "address"
        }
      ],
      "name": "OwnershipTransferred",
      "type": "event"
    },
    {
      "anonymous": false,
      "inputs": [
        {
          "indexed": true,
          "internalType": "address",
          "name": "from",
          "type": "address"
        },
        {
          "indexed": true,
          "internalType": "address",
          "name": "to",
          "type": "address"
        },
        {
          "indexed": false,
          "internalType": "uint256",
          "name": "value",
          "type": "uint256"
        }
      ],
      "name": "Transfer",
      "type": "event"
    },
    {
      "inputs": [],
      "name": "BURN_ADDRESS",
      "outputs": [
        {
          "internalType": "address",
          "name": "",
          "type": "address"
        }
      ],
      "stateMutability": "view",
      "type": "function"
    },
    {
      "inputs": [],
      "name": "DELEGATION_TYPEHASH",
      "outputs": [
        {
          "internalType": "bytes32",
          "name": "",
          "type": "bytes32"
        }
      ],
      "stateMutability": "view",
      "type": "function"
    },
    {
      "inputs": [],
      "name": "DOMAIN_TYPEHASH",
      "outputs": [
        {
          "internalType": "bytes32",
          "name": "",
          "type": "bytes32"
        }
      ],
      "stateMutability": "view",
      "type": "function"
    },
    {
      "inputs": [],
      "name": "Nova",
      "outputs": [
        {
          "internalType": "contract ShibaBEP20",
          "name": "",
          "type": "address"
        }
      ],
      "stateMutability": "view",
      "type": "function"
    },
    {
      "inputs": [],
      "name": "SWAP_PENALTY_MAX_PERIOD",
      "outputs": [
        {
          "internalType": "uint256",
          "name": "",
          "type": "uint256"
        }
      ],
      "stateMutability": "view",
      "type": "function"
    },
    {
      "inputs": [],
      "name": "SWAP_PENALTY_MAX_PER_SNova",
      "outputs": [
        {
          "internalType": "uint256",
          "name": "",
          "type": "uint256"
        }
      ],
      "stateMutability": "view",
      "type": "function"
    },
    {
      "inputs": [
        {
          "internalType": "address",
          "name": "owner",
          "type": "address"
        },
        {
          "internalType": "address",
          "name": "spender",
          "type": "address"
        }
      ],
      "name": "allowance",
      "outputs": [
        {
          "internalType": "uint256",
          "name": "",
          "type": "uint256"
        }
      ],
      "stateMutability": "view",
      "type": "function"
    },
    {
      "inputs": [
        {
          "internalType": "address",
          "name": "spender",
          "type": "address"
        },
        {
          "internalType": "uint256",
          "name": "amount",
          "type": "uint256"
        }
      ],
      "name": "approve",
      "outputs": [
        {
          "internalType": "bool",
          "name": "",
          "type": "bool"
        }
      ],
      "stateMutability": "nonpayable",
      "type": "function"
    },
    {
      "inputs": [
        {
          "internalType": "address",
          "name": "account",
          "type": "address"
        }
      ],
      "name": "balanceOf",
      "outputs": [
        {
          "internalType": "uint256",
          "name": "",
          "type": "uint256"
        }
      ],
      "stateMutability": "view",
      "type": "function"
    },
    {
      "inputs": [],
      "name": "burnSupply",
      "outputs": [
        {
          "internalType": "uint256",
          "name": "",
          "type": "uint256"
        }
      ],
      "stateMutability": "view",
      "type": "function"
    },
    {
      "inputs": [
        {
          "internalType": "address",
          "name": "",
          "type": "address"
        },
        {
          "internalType": "uint32",
          "name": "",
          "type": "uint32"
        }
      ],
      "name": "checkpoints",
      "outputs": [
        {
          "internalType": "uint32",
          "name": "fromBlock",
          "type": "uint32"
        },
        {
          "internalType": "uint256",
          "name": "votes",
          "type": "uint256"
        }
      ],
      "stateMutability": "view",
      "type": "function"
    },
    {
      "inputs": [],
      "name": "decimals",
      "outputs": [
        {
          "internalType": "uint8",
          "name": "",
          "type": "uint8"
        }
      ],
      "stateMutability": "view",
      "type": "function"
    },
    {
      "inputs": [
        {
          "internalType": "address",
          "name": "spender",
          "type": "address"
        },
        {
          "internalType": "uint256",
          "name": "subtractedValue",
          "type": "uint256"
        }
      ],
      "name": "decreaseAllowance",
      "outputs": [
        {
          "internalType": "bool",
          "name": "",
          "type": "bool"
        }
      ],
      "stateMutability": "nonpayable",
      "type": "function"
    },
    {
      "inputs": [],
      "name": "getOwner",
      "outputs": [
        {
          "internalType": "address",
          "name": "",
          "type": "address"
        }
      ],
      "stateMutability": "view",
      "type": "function"
    },
    {
      "inputs": [
        {
          "internalType": "address",
          "name": "",
          "type": "address"
        }
      ],
      "name": "holdersInfo",
      "outputs": [
        {
          "internalType": "uint256",
          "name": "avgTransactionBlock",
          "type": "uint256"
        }
      ],
      "stateMutability": "view",
      "type": "function"
    },
    {
      "inputs": [
        {
          "internalType": "address",
          "name": "spender",
          "type": "address"
        },
        {
          "internalType": "uint256",
          "name": "addedValue",
          "type": "uint256"
        }
      ],
      "name": "increaseAllowance",
      "outputs": [
        {
          "internalType": "bool",
          "name": "",
          "type": "bool"
        }
      ],
      "stateMutability": "nonpayable",
      "type": "function"
    },
    {
      "inputs": [],
      "name": "moneyPot",
      "outputs": [
        {
          "internalType": "contract IMoneyPot",
          "name": "",
          "type": "address"
        }
      ],
      "stateMutability": "view",
      "type": "function"
    },
    {
      "inputs": [],
      "name": "name",
      "outputs": [
        {
          "internalType": "string",
          "name": "",
          "type": "string"
        }
      ],
      "stateMutability": "view",
      "type": "function"
    },
    {
      "inputs": [
        {
          "internalType": "address",
          "name": "",
          "type": "address"
        }
      ],
      "name": "nonces",
      "outputs": [
        {
          "internalType": "uint256",
          "name": "",
          "type": "uint256"
        }
      ],
      "stateMutability": "view",
      "type": "function"
    },
    {
      "inputs": [
        {
          "internalType": "address",
          "name": "",
          "type": "address"
        }
      ],
      "name": "numCheckpoints",
      "outputs": [
        {
          "internalType": "uint32",
          "name": "",
          "type": "uint32"
        }
      ],
      "stateMutability": "view",
      "type": "function"
    },
    {
      "inputs": [],
      "name": "owner",
      "outputs": [
        {
          "internalType": "address",
          "name": "",
          "type": "address"
        }
      ],
      "stateMutability": "view",
      "type": "function"
    },
    {
      "inputs": [],
      "name": "renounceOwnership",
      "outputs": [],
      "stateMutability": "nonpayable",
      "type": "function"
    },
    {
      "inputs": [],
      "name": "symbol",
      "outputs": [
        {
          "internalType": "string",
          "name": "",
          "type": "string"
        }
      ],
      "stateMutability": "view",
      "type": "function"
    },
    {
      "inputs": [],
      "name": "totalSupply",
      "outputs": [
        {
          "internalType": "uint256",
          "name": "",
          "type": "uint256"
        }
      ],
      "stateMutability": "view",
      "type": "function"
    },
    {
      "inputs": [
        {
          "internalType": "address",
          "name": "recipient",
          "type": "address"
        },
        {
          "internalType": "uint256",
          "name": "amount",
          "type": "uint256"
        }
      ],
      "name": "transfer",
      "outputs": [
        {
          "internalType": "bool",
          "name": "",
          "type": "bool"
        }
      ],
      "stateMutability": "nonpayable",
      "type": "function"
    },
    {
      "inputs": [
        {
          "internalType": "address",
          "name": "sender",
          "type": "address"
        },
        {
          "internalType": "address",
          "name": "recipient",
          "type": "address"
        },
        {
          "internalType": "uint256",
          "name": "amount",
          "type": "uint256"
        }
      ],
      "name": "transferFrom",
      "outputs": [
        {
          "internalType": "bool",
          "name": "",
          "type": "bool"
        }
      ],
      "stateMutability": "nonpayable",
      "type": "function"
    },
    {
      "inputs": [
        {
          "internalType": "address",
          "name": "newOwner",
          "type": "address"
        }
      ],
      "name": "transferOwnership",
      "outputs": [],
      "stateMutability": "nonpayable",
      "type": "function"
    },
    {
      "inputs": [
        {
          "internalType": "contract ShibaBEP20",
          "name": "_Nova",
          "type": "address"
        }
      ],
      "name": "setupNova",
      "outputs": [],
      "stateMutability": "nonpayable",
      "type": "function"
    },
    {
      "inputs": [
        {
          "internalType": "contract IMoneyPot",
          "name": "_moneyPot",
          "type": "address"
        }
      ],
      "name": "setupMoneyPot",
      "outputs": [],
      "stateMutability": "nonpayable",
      "type": "function"
    },
    {
      "inputs": [
        {
          "internalType": "address",
          "name": "_holderAddress",
          "type": "address"
        }
      ],
      "name": "getPenaltyPercent",
      "outputs": [
        {
          "internalType": "uint256",
          "name": "",
          "type": "uint256"
        }
      ],
      "stateMutability": "view",
      "type": "function"
    },
    {
      "inputs": [
        {
          "internalType": "uint256",
          "name": "_amount",
          "type": "uint256"
        }
      ],
      "name": "swapToNova",
      "outputs": [],
      "stateMutability": "nonpayable",
      "type": "function"
    },
    {
      "inputs": [
        {
          "internalType": "address",
          "name": "_holderAddress",
          "type": "address"
        },
        {
          "internalType": "uint256",
          "name": "_sNovaAmount",
          "type": "uint256"
        }
      ],
      "name": "previewSwapNovaExpectedAmount",
      "outputs": [
        {
          "internalType": "uint256",
          "name": "expectedNova",
          "type": "uint256"
        }
      ],
      "stateMutability": "view",
      "type": "function"
    },
    {
      "inputs": [
        {
          "internalType": "address",
          "name": "_to",
          "type": "address"
        },
        {
          "internalType": "uint256",
          "name": "_amount",
          "type": "uint256"
        }
      ],
      "name": "mint",
      "outputs": [],
      "stateMutability": "nonpayable",
      "type": "function"
    },
    {
      "inputs": [
        {
          "internalType": "address",
          "name": "delegator",
          "type": "address"
        }
      ],
      "name": "delegates",
      "outputs": [
        {
          "internalType": "address",
          "name": "",
          "type": "address"
        }
      ],
      "stateMutability": "view",
      "type": "function"
    },
    {
      "inputs": [
        {
          "internalType": "address",
          "name": "delegatee",
          "type": "address"
        }
      ],
      "name": "delegate",
      "outputs": [],
      "stateMutability": "nonpayable",
      "type": "function"
    },
    {
      "inputs": [
        {
          "internalType": "address",
          "name": "delegatee",
          "type": "address"
        },
        {
          "internalType": "uint256",
          "name": "nonce",
          "type": "uint256"
        },
        {
          "internalType": "uint256",
          "name": "expiry",
          "type": "uint256"
        },
        {
          "internalType": "uint8",
          "name": "v",
          "type": "uint8"
        },
        {
          "internalType": "bytes32",
          "name": "r",
          "type": "bytes32"
        },
        {
          "internalType": "bytes32",
          "name": "s",
          "type": "bytes32"
        }
      ],
      "name": "delegateBySig",
      "outputs": [],
      "stateMutability": "nonpayable",
      "type": "function"
    },
    {
      "inputs": [
        {
          "internalType": "address",
          "name": "account",
          "type": "address"
        }
      ],
      "name": "getCurrentVotes",
      "outputs": [
        {
          "internalType": "uint256",
          "name": "",
          "type": "uint256"
        }
      ],
      "stateMutability": "view",
      "type": "function"
    },
    {
      "inputs": [
        {
          "internalType": "address",
          "name": "account",
          "type": "address"
        },
        {
          "internalType": "uint256",
          "name": "blockNumber",
          "type": "uint256"
        }
      ],
      "name": "getPriorVotes",
      "outputs": [
        {
          "internalType": "uint256",
          "name": "",
          "type": "uint256"
        }
      ],
      "stateMutability": "view",
      "type": "function"
    }
  ],
  "bytecode": "0x60c06040526000600860146101000a81548160ff0219169083151502179055506000600860156101000a81548160ff0219169083151502179055503480156200004757600080fd5b5060405162004e5738038062004e5783398181016040528101906200006d91906200032a565b6040518060400160405280601b81526020017f53686962614e6f766120736861726520746f6b656e20734e6f766100000000008152506040518060400160405280600581526020017f734e6f7661000000000000000000000000000000000000000000000000000000815250620000f9620000ed6200017f60201b60201c565b6200018760201b60201c565b81600590805190602001906200011192919062000263565b5080600690805190602001906200012a92919062000263565b506012600760006101000a81548160ff021916908360ff16021790555050508160808181525050620001706402540be400826200024b60201b62001f681790919060201c565b60a0818152505050506200048f565b600033905090565b60008060009054906101000a900473ffffffffffffffffffffffffffffffffffffffff169050816000806101000a81548173ffffffffffffffffffffffffffffffffffffffff021916908373ffffffffffffffffffffffffffffffffffffffff1602179055508173ffffffffffffffffffffffffffffffffffffffff168173ffffffffffffffffffffffffffffffffffffffff167f8be0079c531659141344cd1fd0a4f28419497f9722a3daafe3b4186f6b6457e060405160405180910390a35050565b600081836200025b919062000371565b905092915050565b8280546200027190620003dc565b90600052602060002090601f016020900481019282620002955760008555620002e1565b82601f10620002b057805160ff1916838001178555620002e1565b82800160010185558215620002e1579182015b82811115620002e0578251825591602001919060010190620002c3565b5b509050620002f09190620002f4565b5090565b5b808211156200030f576000816000905550600101620002f5565b5090565b600081519050620003248162000475565b92915050565b6000806040838503121562000344576200034362000470565b5b6000620003548582860162000313565b9250506020620003678582860162000313565b9150509250929050565b60006200037e82620003d2565b91506200038b83620003d2565b9250817fffffffffffffffffffffffffffffffffffffffffffffffffffffffffffffffff0483118215151615620003c757620003c662000412565b5b828202905092915050565b6000819050919050565b60006002820490506001821680620003f557607f821691505b602082108114156200040c576200040b62000441565b5b50919050565b7f4e487b7100000000000000000000000000000000000000000000000000000000600052601160045260246000fd5b7f4e487b7100000000000000000000000000000000000000000000000000000000600052602260045260246000fd5b600080fd5b6200048081620003d2565b81146200048c57600080fd5b50565b60805160a05161497f620004d8600039600081816107ac01528181611c7701528181611ce60152611d23015260008181611c2701528181611cc10152611d5c015261497f6000f3fe608060405234801561001057600080fd5b50600436106102325760003560e01c806371c2223111610130578063b4b5ea57116100b8578063dd62ed3e1161007c578063dd62ed3e146106f1578063e7a324dc14610721578063f1127ed81461073f578063f2fde38b14610770578063fccc28131461078c57610232565b8063b4b5ea5714610627578063c1051ce114610657578063c3cda52014610687578063d918a2d9146106a3578063db8dddae146106d357610232565b80638da5cb5b116100ff5780638da5cb5b1461056d57806395d89b411461058b578063a457c2d7146105a9578063a9059cbb146105d9578063b03e64781461060957610232565b806371c22231146104d3578063782d6fe1146104ef5780637ecebe001461051f578063893d20e81461054f57610232565b806336ae3d1c116101be578063587cde1e11610182578063587cde1e1461041d5780635c19a95c1461044d5780636fcfff451461046957806370a0823114610499578063715018a6146104c957610232565b806336ae3d1c1461037b578063395093511461039957806340c10f19146103c95780634f0425ae146103e55780634fae6a5b1461040157610232565b80631bb63d0c116102055780631bb63d0c146102c157806320606b70146102df578063208056f0146102fd57806323b872dd1461032d578063313ce5671461035d57610232565b806305f77dcf1461023757806306fdde0314610255578063095ea7b31461027357806318160ddd146102a3575b600080fd5b61023f6107aa565b60405161024c9190613f48565b60405180910390f35b61025d6107ce565b60405161026a9190613d66565b60405180910390f35b61028d60048036038101906102889190613747565b610860565b60405161029a9190613c2b565b60405180910390f35b6102ab61087e565b6040516102b89190613f48565b60405180910390f35b6102c9610888565b6040516102d69190613d4b565b60405180910390f35b6102e76108ae565b6040516102f49190613c46565b60405180910390f35b61031760048036038101906103129190613687565b6108d2565b6040516103249190613f48565b60405180910390f35b610347600480360381019061034291906136f4565b6108f0565b6040516103549190613c2b565b60405180910390f35b6103656109c9565b6040516103729190613fd0565b60405180910390f35b6103836109e0565b6040516103909190613d30565b60405180910390f35b6103b360048036038101906103ae9190613747565b610a06565b6040516103c09190613c2b565b60405180910390f35b6103e360048036038101906103de9190613747565b610ab9565b005b6103ff60048036038101906103fa91906138ae565b610ceb565b005b61041b60048036038101906104169190613854565b610f54565b005b61043760048036038101906104329190613687565b611049565b6040516104449190613be7565b60405180910390f35b61046760048036038101906104629190613687565b6110b2565b005b610483600480360381019061047e9190613687565b6110bf565b6040516104909190613f8c565b60405180910390f35b6104b360048036038101906104ae9190613687565b6110e2565b6040516104c09190613f48565b60405180910390f35b6104d161112b565b005b6104ed60048036038101906104e89190613881565b6111b3565b005b61050960048036038101906105049190613747565b6112a8565b6040516105169190613f48565b60405180910390f35b61053960048036038101906105349190613687565b61167f565b6040516105469190613f48565b60405180910390f35b610557611697565b6040516105649190613be7565b60405180910390f35b6105756116a6565b6040516105829190613be7565b60405180910390f35b6105936116cf565b6040516105a09190613d66565b60405180910390f35b6105c360048036038101906105be9190613747565b611761565b6040516105d09190613c2b565b60405180910390f35b6105f360048036038101906105ee9190613747565b61182e565b6040516106009190613c2b565b60405180910390f35b61061161184c565b60405161061e9190613f48565b60405180910390f35b610641600480360381019061063c9190613687565b611856565b60405161064e9190613f48565b60405180910390f35b610671600480360381019061066c9190613747565b611935565b60405161067e9190613f48565b60405180910390f35b6106a1600480360381019061069c9190613787565b611949565b005b6106bd60048036038101906106b89190613687565b611bde565b6040516106ca9190613f48565b60405180910390f35b6106db611d5a565b6040516106e89190613f48565b60405180910390f35b61070b600480360381019061070691906136b4565b611d7e565b6040516107189190613f48565b60405180910390f35b610729611e05565b6040516107369190613c46565b60405180910390f35b61075960048036038101906107549190613814565b611e29565b604051610767929190613fa7565b60405180910390f35b61078a60048036038101906107859190613687565b611e6a565b005b610794611f62565b6040516107a19190613be7565b60405180910390f35b7f000000000000000000000000000000000000000000000000000000000000000081565b6060600580546107dd906142d4565b80601f0160208091040260200160405190810160405280929190818152602001828054610809906142d4565b80156108565780601f1061082b57610100808354040283529160200191610856565b820191906000526020600020905b81548152906001019060200180831161083957829003601f168201915b5050505050905090565b600061087461086d611f7e565b8484611f86565b6001905092915050565b6000600354905090565b600860009054906101000a900473ffffffffffffffffffffffffffffffffffffffff1681565b7f8cad95687ba82c2ce50e74f7b754645e5117c3a5bec8151c0726d5857980a86681565b60096020528060005260406000206000915090508060000154905081565b60006108fd848484612151565b6109be84610909611f7e565b6109b98560405180606001604052806028815260200161488160289139600260008b73ffffffffffffffffffffffffffffffffffffffff1673ffffffffffffffffffffffffffffffffffffffff168152602001908152602001600020600061096f611f7e565b73ffffffffffffffffffffffffffffffffffffffff1673ffffffffffffffffffffffffffffffffffffffff1681526020019081526020016000205461261b9092919063ffffffff16565b611f86565b600190509392505050565b6000600760009054906101000a900460ff16905090565b600760019054906101000a900473ffffffffffffffffffffffffffffffffffffffff1681565b6000610aaf610a13611f7e565b84610aaa8560026000610a24611f7e565b73ffffffffffffffffffffffffffffffffffffffff1673ffffffffffffffffffffffffffffffffffffffff16815260200190815260200160002060008973ffffffffffffffffffffffffffffffffffffffff1673ffffffffffffffffffffffffffffffffffffffff1681526020019081526020016000205461267090919063ffffffff16565b611f86565b6001905092915050565b610ac1611f7e565b73ffffffffffffffffffffffffffffffffffffffff16610adf6116a6565b73ffffffffffffffffffffffffffffffffffffffff1614610b35576040517f08c379a0000000000000000000000000000000000000000000000000000000008152600401610b2c90613e48565b60405180910390fd5b6000600960008473ffffffffffffffffffffffffffffffffffffffff1673ffffffffffffffffffffffffffffffffffffffff1681526020019081526020016000209050610b858382846000612686565b8160000181905550610b97838361274d565b610c026000600a60008673ffffffffffffffffffffffffffffffffffffffff1673ffffffffffffffffffffffffffffffffffffffff16815260200190815260200160002060009054906101000a900473ffffffffffffffffffffffffffffffffffffffff16846128d7565b600073ffffffffffffffffffffffffffffffffffffffff16600760019054906101000a900473ffffffffffffffffffffffffffffffffffffffff1673ffffffffffffffffffffffffffffffffffffffff1614610ce657600760019054906101000a900473ffffffffffffffffffffffffffffffffffffffff1673ffffffffffffffffffffffffffffffffffffffff16636663d704846040518263ffffffff1660e01b8152600401610cb39190613be7565b600060405180830381600087803b158015610ccd57600080fd5b505af1158015610ce1573d6000803e3d6000fd5b505050505b505050565b60008111610d2e576040517f08c379a0000000000000000000000000000000000000000000000000000000008152600401610d2590613ea8565b60405180910390fd5b60003390506000610d3f8284612b86565b9050610d8c82600960008573ffffffffffffffffffffffffffffffffffffffff1673ffffffffffffffffffffffffffffffffffffffff168152602001908152602001600020856001612686565b600960008473ffffffffffffffffffffffffffffffffffffffff1673ffffffffffffffffffffffffffffffffffffffff16815260200190815260200160002060000181905550610ddc8284612c38565b600860009054906101000a900473ffffffffffffffffffffffffffffffffffffffff1673ffffffffffffffffffffffffffffffffffffffff166340c10f1983836040518363ffffffff1660e01b8152600401610e39929190613c02565b600060405180830381600087803b158015610e5357600080fd5b505af1158015610e67573d6000803e3d6000fd5b50505050600073ffffffffffffffffffffffffffffffffffffffff16600760019054906101000a900473ffffffffffffffffffffffffffffffffffffffff1673ffffffffffffffffffffffffffffffffffffffff1614610f4f57600760019054906101000a900473ffffffffffffffffffffffffffffffffffffffff1673ffffffffffffffffffffffffffffffffffffffff16636663d704836040518263ffffffff1660e01b8152600401610f1c9190613be7565b600060405180830381600087803b158015610f3657600080fd5b505af1158015610f4a573d6000803e3d6000fd5b505050505b505050565b610f5c611f7e565b73ffffffffffffffffffffffffffffffffffffffff16610f7a6116a6565b73ffffffffffffffffffffffffffffffffffffffff1614610fd0576040517f08c379a0000000000000000000000000000000000000000000000000000000008152600401610fc790613e48565b60405180910390fd5b600860159054906101000a900460ff1615610fea57600080fd5b80600760016101000a81548173ffffffffffffffffffffffffffffffffffffffff021916908373ffffffffffffffffffffffffffffffffffffffff1602179055506001600860156101000a81548160ff02191690831515021790555050565b6000600a60008373ffffffffffffffffffffffffffffffffffffffff1673ffffffffffffffffffffffffffffffffffffffff16815260200190815260200160002060009054906101000a900473ffffffffffffffffffffffffffffffffffffffff169050919050565b6110bc3382612df9565b50565b600c6020528060005260406000206000915054906101000a900463ffffffff1681565b6000600160008373ffffffffffffffffffffffffffffffffffffffff1673ffffffffffffffffffffffffffffffffffffffff168152602001908152602001600020549050919050565b611133611f7e565b73ffffffffffffffffffffffffffffffffffffffff166111516116a6565b73ffffffffffffffffffffffffffffffffffffffff16146111a7576040517f08c379a000000000000000000000000000000000000000000000000000000000815260040161119e90613e48565b60405180910390fd5b6111b16000612f6a565b565b6111bb611f7e565b73ffffffffffffffffffffffffffffffffffffffff166111d96116a6565b73ffffffffffffffffffffffffffffffffffffffff161461122f576040517f08c379a000000000000000000000000000000000000000000000000000000000815260040161122690613e48565b60405180910390fd5b600860149054906101000a900460ff161561124957600080fd5b80600860006101000a81548173ffffffffffffffffffffffffffffffffffffffff021916908373ffffffffffffffffffffffffffffffffffffffff1602179055506001600860146101000a81548160ff02191690831515021790555050565b60004382106112ec576040517f08c379a00000000000000000000000000000000000000000000000000000000081526004016112e390613e88565b60405180910390fd5b6000600c60008573ffffffffffffffffffffffffffffffffffffffff1673ffffffffffffffffffffffffffffffffffffffff16815260200190815260200160002060009054906101000a900463ffffffff16905060008163ffffffff161415611359576000915050611679565b82600b60008673ffffffffffffffffffffffffffffffffffffffff1673ffffffffffffffffffffffffffffffffffffffff16815260200190815260200160002060006001846113a89190614192565b63ffffffff1663ffffffff16815260200190815260200160002060000160009054906101000a900463ffffffff1663ffffffff161161145557600b60008573ffffffffffffffffffffffffffffffffffffffff1673ffffffffffffffffffffffffffffffffffffffff168152602001908152602001600020600060018361142f9190614192565b63ffffffff1663ffffffff16815260200190815260200160002060010154915050611679565b82600b60008673ffffffffffffffffffffffffffffffffffffffff1673ffffffffffffffffffffffffffffffffffffffff16815260200190815260200160002060008063ffffffff16815260200190815260200160002060000160009054906101000a900463ffffffff1663ffffffff1611156114d6576000915050611679565b6000806001836114e69190614192565b90505b8163ffffffff168163ffffffff1611156116135760006002838361150d9190614192565b61151791906140d3565b826115229190614192565b90506000600b60008973ffffffffffffffffffffffffffffffffffffffff1673ffffffffffffffffffffffffffffffffffffffff16815260200190815260200160002060008363ffffffff1663ffffffff1681526020019081526020016000206040518060400160405290816000820160009054906101000a900463ffffffff1663ffffffff1663ffffffff168152602001600182015481525050905086816000015163ffffffff1614156115e257806020015195505050505050611679565b86816000015163ffffffff1610156115fc5781935061160c565b6001826116099190614192565b92505b50506114e9565b600b60008773ffffffffffffffffffffffffffffffffffffffff1673ffffffffffffffffffffffffffffffffffffffff16815260200190815260200160002060008363ffffffff1663ffffffff1681526020019081526020016000206001015493505050505b92915050565b600d6020528060005260406000206000915090505481565b60006116a16116a6565b905090565b60008060009054906101000a900473ffffffffffffffffffffffffffffffffffffffff16905090565b6060600680546116de906142d4565b80601f016020809104026020016040519081016040528092919081815260200182805461170a906142d4565b80156117575780601f1061172c57610100808354040283529160200191611757565b820191906000526020600020905b81548152906001019060200180831161173a57829003601f168201915b5050505050905090565b600061182461176e611f7e565b8461181f856040518060600160405280602581526020016149036025913960026000611798611f7e565b73ffffffffffffffffffffffffffffffffffffffff1673ffffffffffffffffffffffffffffffffffffffff16815260200190815260200160002060008a73ffffffffffffffffffffffffffffffffffffffff1673ffffffffffffffffffffffffffffffffffffffff1681526020019081526020016000205461261b9092919063ffffffff16565b611f86565b6001905092915050565b600061184261183b611f7e565b8484612151565b6001905092915050565b6000600454905090565b600080600c60008473ffffffffffffffffffffffffffffffffffffffff1673ffffffffffffffffffffffffffffffffffffffff16815260200190815260200160002060009054906101000a900463ffffffff16905060008163ffffffff16116118c057600061192d565b600b60008473ffffffffffffffffffffffffffffffffffffffff1673ffffffffffffffffffffffffffffffffffffffff168152602001908152602001600020600060018361190e9190614192565b63ffffffff1663ffffffff168152602001908152602001600020600101545b915050919050565b60006119418383612b86565b905092915050565b60007f8cad95687ba82c2ce50e74f7b754645e5117c3a5bec8151c0726d5857980a8666119746107ce565b8051906020012061198361302e565b306040516020016119979493929190613ca6565b60405160208183030381529060405280519060200120905060007fe48329057bfd03d55e49b547132e39cffd9c1820ad7b9d4c5307691425d15adf8888886040516020016119e89493929190613c61565b60405160208183030381529060405280519060200120905060008282604051602001611a15929190613bb0565b604051602081830303815290604052805190602001209050600060018288888860405160008152602001604052604051611a529493929190613ceb565b6020604051602081039080840390855afa158015611a74573d6000803e3d6000fd5b505050602060405103519050600073ffffffffffffffffffffffffffffffffffffffff168173ffffffffffffffffffffffffffffffffffffffff161415611af0576040517f08c379a0000000000000000000000000000000000000000000000000000000008152600401611ae790613e68565b60405180910390fd5b600d60008273ffffffffffffffffffffffffffffffffffffffff1673ffffffffffffffffffffffffffffffffffffffff1681526020019081526020016000206000815480929190611b4090614306565b919050558914611b85576040517f08c379a0000000000000000000000000000000000000000000000000000000008152600401611b7c90613de8565b60405180910390fd5b87421115611bc8576040517f08c379a0000000000000000000000000000000000000000000000000000000008152600401611bbf90613f08565b60405180910390fd5b611bd2818b612df9565b50505050505050505050565b600080600960008473ffffffffffffffffffffffffffffffffffffffff1673ffffffffffffffffffffffffffffffffffffffff1681526020019081526020016000209050611c597f0000000000000000000000000000000000000000000000000000000000000000826000015461267090919063ffffffff16565b4310611c69576000915050611d55565b8060000154431415611c9e577f0000000000000000000000000000000000000000000000000000000000000000915050611d55565b6000611cb782600001544361303b90919063ffffffff16565b9050611d50611d217f0000000000000000000000000000000000000000000000000000000000000000611d13847f0000000000000000000000000000000000000000000000000000000000000000611f6890919063ffffffff16565b61305190919063ffffffff16565b7f000000000000000000000000000000000000000000000000000000000000000061303b90919063ffffffff16565b925050505b919050565b7f000000000000000000000000000000000000000000000000000000000000000081565b6000600260008473ffffffffffffffffffffffffffffffffffffffff1673ffffffffffffffffffffffffffffffffffffffff16815260200190815260200160002060008373ffffffffffffffffffffffffffffffffffffffff1673ffffffffffffffffffffffffffffffffffffffff16815260200190815260200160002054905092915050565b7fe48329057bfd03d55e49b547132e39cffd9c1820ad7b9d4c5307691425d15adf81565b600b602052816000526040600020602052806000526040600020600091509150508060000160009054906101000a900463ffffffff16908060010154905082565b611e72611f7e565b73ffffffffffffffffffffffffffffffffffffffff16611e906116a6565b73ffffffffffffffffffffffffffffffffffffffff1614611ee6576040517f08c379a0000000000000000000000000000000000000000000000000000000008152600401611edd90613e48565b60405180910390fd5b600073ffffffffffffffffffffffffffffffffffffffff168173ffffffffffffffffffffffffffffffffffffffff161415611f56576040517f08c379a0000000000000000000000000000000000000000000000000000000008152600401611f4d90613dc8565b60405180910390fd5b611f5f81612f6a565b50565b61dead81565b60008183611f769190614104565b905092915050565b600033905090565b600073ffffffffffffffffffffffffffffffffffffffff168373ffffffffffffffffffffffffffffffffffffffff161415611ff6576040517f08c379a0000000000000000000000000000000000000000000000000000000008152600401611fed90613da8565b60405180910390fd5b600073ffffffffffffffffffffffffffffffffffffffff168273ffffffffffffffffffffffffffffffffffffffff161415612066576040517f08c379a000000000000000000000000000000000000000000000000000000000815260040161205d90613f28565b60405180910390fd5b80600260008573ffffffffffffffffffffffffffffffffffffffff1673ffffffffffffffffffffffffffffffffffffffff16815260200190815260200160002060008473ffffffffffffffffffffffffffffffffffffffff1673ffffffffffffffffffffffffffffffffffffffff168152602001908152602001600020819055508173ffffffffffffffffffffffffffffffffffffffff168373ffffffffffffffffffffffffffffffffffffffff167f8c5be1e5ebec7d5bd14f71427d1e84f3dd0314c0f7b2291e5b200ac8c7c3b925836040516121449190613f48565b60405180910390a3505050565b61219c83600960008673ffffffffffffffffffffffffffffffffffffffff1673ffffffffffffffffffffffffffffffffffffffff168152602001908152602001600020836001612686565b600960008573ffffffffffffffffffffffffffffffffffffffff1673ffffffffffffffffffffffffffffffffffffffff1681526020019081526020016000206000018190555061dead73ffffffffffffffffffffffffffffffffffffffff168273ffffffffffffffffffffffffffffffffffffffff16141561230b576122228382612c38565b600073ffffffffffffffffffffffffffffffffffffffff16600760019054906101000a900473ffffffffffffffffffffffffffffffffffffffff1673ffffffffffffffffffffffffffffffffffffffff161461230657600760019054906101000a900473ffffffffffffffffffffffffffffffffffffffff1673ffffffffffffffffffffffffffffffffffffffff16636663d704846040518263ffffffff1660e01b81526004016122d39190613be7565b600060405180830381600087803b1580156122ed57600080fd5b505af1158015612301573d6000803e3d6000fd5b505050505b61254d565b61235682600960008573ffffffffffffffffffffffffffffffffffffffff1673ffffffffffffffffffffffffffffffffffffffff168152602001908152602001600020836000612686565b600960008473ffffffffffffffffffffffffffffffffffffffff1673ffffffffffffffffffffffffffffffffffffffff168152602001908152602001600020600001819055506123a7838383613067565b600073ffffffffffffffffffffffffffffffffffffffff16600760019054906101000a900473ffffffffffffffffffffffffffffffffffffffff1673ffffffffffffffffffffffffffffffffffffffff161461254c57600760019054906101000a900473ffffffffffffffffffffffffffffffffffffffff1673ffffffffffffffffffffffffffffffffffffffff16636663d704846040518263ffffffff1660e01b81526004016124589190613be7565b600060405180830381600087803b15801561247257600080fd5b505af1158015612486573d6000803e3d6000fd5b505050508173ffffffffffffffffffffffffffffffffffffffff168373ffffffffffffffffffffffffffffffffffffffff161461254b57600760019054906101000a900473ffffffffffffffffffffffffffffffffffffffff1673ffffffffffffffffffffffffffffffffffffffff16636663d704836040518263ffffffff1660e01b81526004016125189190613be7565b600060405180830381600087803b15801561253257600080fd5b505af1158015612546573d6000803e3d6000fd5b505050505b5b5b612616600a60003373ffffffffffffffffffffffffffffffffffffffff1673ffffffffffffffffffffffffffffffffffffffff16815260200190815260200160002060009054906101000a900473ffffffffffffffffffffffffffffffffffffffff16600a60008573ffffffffffffffffffffffffffffffffffffffff1673ffffffffffffffffffffffffffffffffffffffff16815260200190815260200160002060009054906101000a900473ffffffffffffffffffffffffffffffffffffffff16836128d7565b505050565b6000838311158290612663576040517f08c379a000000000000000000000000000000000000000000000000000000000815260040161265a9190613d66565b60405180910390fd5b5082840390509392505050565b6000818361267e9190614012565b905092915050565b600080612692866110e2565b14156126a057439050612745565b600082156126cf57836126b2876110e2565b14156126c2576000915050612745565b8460000154915050612745565b6127126126e58543611f6890919063ffffffff16565b61270487600001546126f68a6110e2565b611f6890919063ffffffff16565b61267090919063ffffffff16565b905061274161273285612724896110e2565b61267090919063ffffffff16565b8261305190919063ffffffff16565b9150505b949350505050565b600073ffffffffffffffffffffffffffffffffffffffff168273ffffffffffffffffffffffffffffffffffffffff1614156127bd576040517f08c379a00000000000000000000000000000000000000000000000000000000081526004016127b490613e28565b60405180910390fd5b6127d28160035461267090919063ffffffff16565b60038190555061282a81600160008573ffffffffffffffffffffffffffffffffffffffff1673ffffffffffffffffffffffffffffffffffffffff1681526020019081526020016000205461267090919063ffffffff16565b600160008473ffffffffffffffffffffffffffffffffffffffff1673ffffffffffffffffffffffffffffffffffffffff168152602001908152602001600020819055508173ffffffffffffffffffffffffffffffffffffffff16600073ffffffffffffffffffffffffffffffffffffffff167fddf252ad1be2c89b69c2b068fc378daa952ba7f163c4a11628f55a4df523b3ef836040516128cb9190613f48565b60405180910390a35050565b8173ffffffffffffffffffffffffffffffffffffffff168373ffffffffffffffffffffffffffffffffffffffff16141580156129135750600081115b15612b8157600073ffffffffffffffffffffffffffffffffffffffff168373ffffffffffffffffffffffffffffffffffffffff1614612a4c576000600c60008573ffffffffffffffffffffffffffffffffffffffff1673ffffffffffffffffffffffffffffffffffffffff16815260200190815260200160002060009054906101000a900463ffffffff1690506000808263ffffffff16116129b6576000612a23565b600b60008673ffffffffffffffffffffffffffffffffffffffff1673ffffffffffffffffffffffffffffffffffffffff1681526020019081526020016000206000600184612a049190614192565b63ffffffff1663ffffffff168152602001908152602001600020600101545b90506000612a3a848361303b90919063ffffffff16565b9050612a48868484846132f5565b5050505b600073ffffffffffffffffffffffffffffffffffffffff168273ffffffffffffffffffffffffffffffffffffffff1614612b80576000600c60008473ffffffffffffffffffffffffffffffffffffffff1673ffffffffffffffffffffffffffffffffffffffff16815260200190815260200160002060009054906101000a900463ffffffff1690506000808263ffffffff1611612aea576000612b57565b600b60008573ffffffffffffffffffffffffffffffffffffffff1673ffffffffffffffffffffffffffffffffffffffff1681526020019081526020016000206000600184612b389190614192565b63ffffffff1663ffffffff168152602001908152602001600020600101545b90506000612b6e848361267090919063ffffffff16565b9050612b7c858484846132f5565b5050505b5b505050565b600081612b92846110e2565b1015612bd3576040517f08c379a0000000000000000000000000000000000000000000000000000000008152600401612bca90613e08565b60405180910390fd5b6000612bde84611bde565b90506000811415612bf25782915050612c32565b612c2e612c1f64e8d4a51000612c118487611f6890919063ffffffff16565b61305190919063ffffffff16565b8461303b90919063ffffffff16565b9150505b92915050565b61dead73ffffffffffffffffffffffffffffffffffffffff168273ffffffffffffffffffffffffffffffffffffffff161415612ca9576040517f08c379a0000000000000000000000000000000000000000000000000000000008152600401612ca090613ee8565b60405180910390fd5b612d158160405180606001604052806022815260200161492860229139600160008673ffffffffffffffffffffffffffffffffffffffff1673ffffffffffffffffffffffffffffffffffffffff1681526020019081526020016000205461261b9092919063ffffffff16565b600160008473ffffffffffffffffffffffffffffffffffffffff1673ffffffffffffffffffffffffffffffffffffffff16815260200190815260200160002081905550612d6d8160035461303b90919063ffffffff16565b600381905550612d888160045461267090919063ffffffff16565b60048190555061dead73ffffffffffffffffffffffffffffffffffffffff168273ffffffffffffffffffffffffffffffffffffffff167fddf252ad1be2c89b69c2b068fc378daa952ba7f163c4a11628f55a4df523b3ef83604051612ded9190613f48565b60405180910390a35050565b6000600a60008473ffffffffffffffffffffffffffffffffffffffff1673ffffffffffffffffffffffffffffffffffffffff16815260200190815260200160002060009054906101000a900473ffffffffffffffffffffffffffffffffffffffff1690506000612e68846110e2565b905082600a60008673ffffffffffffffffffffffffffffffffffffffff1673ffffffffffffffffffffffffffffffffffffffff16815260200190815260200160002060006101000a81548173ffffffffffffffffffffffffffffffffffffffff021916908373ffffffffffffffffffffffffffffffffffffffff1602179055508273ffffffffffffffffffffffffffffffffffffffff168273ffffffffffffffffffffffffffffffffffffffff168573ffffffffffffffffffffffffffffffffffffffff167f3134e8a2e6d97e929a7e54011ea5485d7d196dd5f0ba4d4ef95803e8e3fc257f60405160405180910390a4612f648284836128d7565b50505050565b60008060009054906101000a900473ffffffffffffffffffffffffffffffffffffffff169050816000806101000a81548173ffffffffffffffffffffffffffffffffffffffff021916908373ffffffffffffffffffffffffffffffffffffffff1602179055508173ffffffffffffffffffffffffffffffffffffffff168173ffffffffffffffffffffffffffffffffffffffff167f8be0079c531659141344cd1fd0a4f28419497f9722a3daafe3b4186f6b6457e060405160405180910390a35050565b6000804690508091505090565b60008183613049919061415e565b905092915050565b6000818361305f91906140a2565b905092915050565b600073ffffffffffffffffffffffffffffffffffffffff168373ffffffffffffffffffffffffffffffffffffffff1614156130d7576040517f08c379a00000000000000000000000000000000000000000000000000000000081526004016130ce90613d88565b60405180910390fd5b600073ffffffffffffffffffffffffffffffffffffffff168273ffffffffffffffffffffffffffffffffffffffff161415613147576040517f08c379a000000000000000000000000000000000000000000000000000000000815260040161313e90613ec8565b60405180910390fd5b6131b3816040518060600160405280602681526020016148dd60269139600160008773ffffffffffffffffffffffffffffffffffffffff1673ffffffffffffffffffffffffffffffffffffffff1681526020019081526020016000205461261b9092919063ffffffff16565b600160008573ffffffffffffffffffffffffffffffffffffffff1673ffffffffffffffffffffffffffffffffffffffff1681526020019081526020016000208190555061324881600160008573ffffffffffffffffffffffffffffffffffffffff1673ffffffffffffffffffffffffffffffffffffffff1681526020019081526020016000205461267090919063ffffffff16565b600160008473ffffffffffffffffffffffffffffffffffffffff1673ffffffffffffffffffffffffffffffffffffffff168152602001908152602001600020819055508173ffffffffffffffffffffffffffffffffffffffff168373ffffffffffffffffffffffffffffffffffffffff167fddf252ad1be2c89b69c2b068fc378daa952ba7f163c4a11628f55a4df523b3ef836040516132e89190613f48565b60405180910390a3505050565b6000613319436040518060600160405280603481526020016148a96034913961359e565b905060008463ffffffff161180156133b757508063ffffffff16600b60008773ffffffffffffffffffffffffffffffffffffffff1673ffffffffffffffffffffffffffffffffffffffff16815260200190815260200160002060006001876133819190614192565b63ffffffff1663ffffffff16815260200190815260200160002060000160009054906101000a900463ffffffff1663ffffffff16145b156134315781600b60008773ffffffffffffffffffffffffffffffffffffffff1673ffffffffffffffffffffffffffffffffffffffff168152602001908152602001600020600060018761340b9190614192565b63ffffffff1663ffffffff16815260200190815260200160002060010181905550613547565b60405180604001604052808263ffffffff16815260200183815250600b60008773ffffffffffffffffffffffffffffffffffffffff1673ffffffffffffffffffffffffffffffffffffffff16815260200190815260200160002060008663ffffffff1663ffffffff16815260200190815260200160002060008201518160000160006101000a81548163ffffffff021916908363ffffffff160217905550602082015181600101559050506001846134e99190614068565b600c60008773ffffffffffffffffffffffffffffffffffffffff1673ffffffffffffffffffffffffffffffffffffffff16815260200190815260200160002060006101000a81548163ffffffff021916908363ffffffff1602179055505b8473ffffffffffffffffffffffffffffffffffffffff167fdec2bacdd2f05b59de34da9b523dff8be42e5e38e818c82fdb0bae774387a724848460405161358f929190613f63565b60405180910390a25050505050565b6000640100000000831082906135ea576040517f08c379a00000000000000000000000000000000000000000000000000000000081526004016135e19190613d66565b60405180910390fd5b5082905092915050565b600081359050613603816147df565b92915050565b600081359050613618816147f6565b92915050565b60008135905061362d8161480d565b92915050565b60008135905061364281614824565b92915050565b6000813590506136578161483b565b92915050565b60008135905061366c81614852565b92915050565b60008135905061368181614869565b92915050565b60006020828403121561369d5761369c6143e6565b5b60006136ab848285016135f4565b91505092915050565b600080604083850312156136cb576136ca6143e6565b5b60006136d9858286016135f4565b92505060206136ea858286016135f4565b9150509250929050565b60008060006060848603121561370d5761370c6143e6565b5b600061371b868287016135f4565b935050602061372c868287016135f4565b925050604061373d86828701613648565b9150509250925092565b6000806040838503121561375e5761375d6143e6565b5b600061376c858286016135f4565b925050602061377d85828601613648565b9150509250929050565b60008060008060008060c087890312156137a4576137a36143e6565b5b60006137b289828a016135f4565b96505060206137c389828a01613648565b95505060406137d489828a01613648565b94505060606137e589828a01613672565b93505060806137f689828a01613609565b92505060a061380789828a01613609565b9150509295509295509295565b6000806040838503121561382b5761382a6143e6565b5b6000613839858286016135f4565b925050602061384a8582860161365d565b9150509250929050565b60006020828403121561386a576138696143e6565b5b60006138788482850161361e565b91505092915050565b600060208284031215613897576138966143e6565b5b60006138a584828501613633565b91505092915050565b6000602082840312156138c4576138c36143e6565b5b60006138d284828501613648565b91505092915050565b6138e4816141c6565b82525050565b6138f3816141d8565b82525050565b613902816141e4565b82525050565b613919613914826141e4565b61434f565b82525050565b61392881614259565b82525050565b6139378161426b565b82525050565b600061394882613feb565b6139528185613ff6565b93506139628185602086016142a1565b61396b816143eb565b840191505092915050565b6000613983602583613ff6565b915061398e826143fc565b604082019050919050565b60006139a6602483613ff6565b91506139b18261444b565b604082019050919050565b60006139c9602683613ff6565b91506139d48261449a565b604082019050919050565b60006139ec600283614007565b91506139f7826144e9565b600282019050919050565b6000613a0f602283613ff6565b9150613a1a82614512565b604082019050919050565b6000613a32601083613ff6565b9150613a3d82614561565b602082019050919050565b6000613a55601f83613ff6565b9150613a608261458a565b602082019050919050565b6000613a78602083613ff6565b9150613a83826145b3565b602082019050919050565b6000613a9b602683613ff6565b9150613aa6826145dc565b604082019050919050565b6000613abe602783613ff6565b9150613ac98261462b565b604082019050919050565b6000613ae1600883613ff6565b9150613aec8261467a565b602082019050919050565b6000613b04602383613ff6565b9150613b0f826146a3565b604082019050919050565b6000613b27602183613ff6565b9150613b32826146f2565b604082019050919050565b6000613b4a602683613ff6565b9150613b5582614741565b604082019050919050565b6000613b6d602283613ff6565b9150613b7882614790565b604082019050919050565b613b8c81614232565b82525050565b613b9b8161423c565b82525050565b613baa8161424c565b82525050565b6000613bbb826139df565b9150613bc78285613908565b602082019150613bd78284613908565b6020820191508190509392505050565b6000602082019050613bfc60008301846138db565b92915050565b6000604082019050613c1760008301856138db565b613c246020830184613b83565b9392505050565b6000602082019050613c4060008301846138ea565b92915050565b6000602082019050613c5b60008301846138f9565b92915050565b6000608082019050613c7660008301876138f9565b613c8360208301866138db565b613c906040830185613b83565b613c9d6060830184613b83565b95945050505050565b6000608082019050613cbb60008301876138f9565b613cc860208301866138f9565b613cd56040830185613b83565b613ce260608301846138db565b95945050505050565b6000608082019050613d0060008301876138f9565b613d0d6020830186613ba1565b613d1a60408301856138f9565b613d2760608301846138f9565b95945050505050565b6000602082019050613d45600083018461391f565b92915050565b6000602082019050613d60600083018461392e565b92915050565b60006020820190508181036000830152613d80818461393d565b905092915050565b60006020820190508181036000830152613da181613976565b9050919050565b60006020820190508181036000830152613dc181613999565b9050919050565b60006020820190508181036000830152613de1816139bc565b9050919050565b60006020820190508181036000830152613e0181613a02565b9050919050565b60006020820190508181036000830152613e2181613a25565b9050919050565b60006020820190508181036000830152613e4181613a48565b9050919050565b60006020820190508181036000830152613e6181613a6b565b9050919050565b60006020820190508181036000830152613e8181613a8e565b9050919050565b60006020820190508181036000830152613ea181613ab1565b9050919050565b60006020820190508181036000830152613ec181613ad4565b9050919050565b60006020820190508181036000830152613ee181613af7565b9050919050565b60006020820190508181036000830152613f0181613b1a565b9050919050565b60006020820190508181036000830152613f2181613b3d565b9050919050565b60006020820190508181036000830152613f4181613b60565b9050919050565b6000602082019050613f5d6000830184613b83565b92915050565b6000604082019050613f786000830185613b83565b613f856020830184613b83565b9392505050565b6000602082019050613fa16000830184613b92565b92915050565b6000604082019050613fbc6000830185613b92565b613fc96020830184613b83565b9392505050565b6000602082019050613fe56000830184613ba1565b92915050565b600081519050919050565b600082825260208201905092915050565b600081905092915050565b600061401d82614232565b915061402883614232565b9250827fffffffffffffffffffffffffffffffffffffffffffffffffffffffffffffffff0382111561405d5761405c614359565b5b828201905092915050565b60006140738261423c565b915061407e8361423c565b92508263ffffffff0382111561409757614096614359565b5b828201905092915050565b60006140ad82614232565b91506140b883614232565b9250826140c8576140c7614388565b5b828204905092915050565b60006140de8261423c565b91506140e98361423c565b9250826140f9576140f8614388565b5b828204905092915050565b600061410f82614232565b915061411a83614232565b9250817fffffffffffffffffffffffffffffffffffffffffffffffffffffffffffffffff048311821515161561415357614152614359565b5b828202905092915050565b600061416982614232565b915061417483614232565b92508282101561418757614186614359565b5b828203905092915050565b600061419d8261423c565b91506141a88361423c565b9250828210156141bb576141ba614359565b5b828203905092915050565b60006141d182614212565b9050919050565b60008115159050919050565b6000819050919050565b60006141f9826141c6565b9050919050565b600061420b826141c6565b9050919050565b600073ffffffffffffffffffffffffffffffffffffffff82169050919050565b6000819050919050565b600063ffffffff82169050919050565b600060ff82169050919050565b60006142648261427d565b9050919050565b60006142768261427d565b9050919050565b60006142888261428f565b9050919050565b600061429a82614212565b9050919050565b60005b838110156142bf5780820151818401526020810190506142a4565b838111156142ce576000848401525b50505050565b600060028204905060018216806142ec57607f821691505b60208210811415614300576142ff6143b7565b5b50919050565b600061431182614232565b91507fffffffffffffffffffffffffffffffffffffffffffffffffffffffffffffffff82141561434457614343614359565b5b600182019050919050565b6000819050919050565b7f4e487b7100000000000000000000000000000000000000000000000000000000600052601160045260246000fd5b7f4e487b7100000000000000000000000000000000000000000000000000000000600052601260045260246000fd5b7f4e487b7100000000000000000000000000000000000000000000000000000000600052602260045260246000fd5b600080fd5b6000601f19601f8301169050919050565b7f42455032303a207472616e736665722066726f6d20746865207a65726f20616460008201527f6472657373000000000000000000000000000000000000000000000000000000602082015250565b7f42455032303a20617070726f76652066726f6d20746865207a65726f2061646460008201527f7265737300000000000000000000000000000000000000000000000000000000602082015250565b7f4f776e61626c653a206e6577206f776e657220697320746865207a65726f206160008201527f6464726573730000000000000000000000000000000000000000000000000000602082015250565b7f1901000000000000000000000000000000000000000000000000000000000000600082015250565b7f4e6f76613a3a64656c656761746542795369673a20696e76616c6964206e6f6e60008201527f6365000000000000000000000000000000000000000000000000000000000000602082015250565b7f4e6f7420656e6f75676820734e6f766100000000000000000000000000000000600082015250565b7f42455032303a206d696e7420746f20746865207a65726f206164647265737300600082015250565b7f4f776e61626c653a2063616c6c6572206973206e6f7420746865206f776e6572600082015250565b7f4e6f76613a3a64656c656761746542795369673a20696e76616c69642073696760008201527f6e61747572650000000000000000000000000000000000000000000000000000602082015250565b7f4e6f76613a3a6765745072696f72566f7465733a206e6f74207965742064657460008201527f65726d696e656400000000000000000000000000000000000000000000000000602082015250565b7f616d6f756e742030000000000000000000000000000000000000000000000000600082015250565b7f42455032303a207472616e7366657220746f20746865207a65726f206164647260008201527f6573730000000000000000000000000000000000000000000000000000000000602082015250565b7f42455032303a206275726e2066726f6d20746865207a65726f2061646472657360008201527f7300000000000000000000000000000000000000000000000000000000000000602082015250565b7f4e6f76613a3a64656c656761746542795369673a207369676e6174757265206560008201527f7870697265640000000000000000000000000000000000000000000000000000602082015250565b7f42455032303a20617070726f766520746f20746865207a65726f20616464726560008201527f7373000000000000000000000000000000000000000000000000000000000000602082015250565b6147e8816141c6565b81146147f357600080fd5b50565b6147ff816141e4565b811461480a57600080fd5b50565b614816816141ee565b811461482157600080fd5b50565b61482d81614200565b811461483857600080fd5b50565b61484481614232565b811461484f57600080fd5b50565b61485b8161423c565b811461486657600080fd5b50565b6148728161424c565b811461487d57600080fd5b5056fe42455032303a207472616e7366657220616d6f756e74206578636565647320616c6c6f77616e63654e6f76613a3a5f7772697465436865636b706f696e743a20626c6f636b206e756d6265722065786365656473203332206269747342455032303a207472616e7366657220616d6f756e7420657863656564732062616c616e636542455032303a2064656372656173656420616c6c6f77616e63652062656c6f77207a65726f42455032303a206275726e20616d6f756e7420657863656564732062616c616e6365a264697066735822122016e03d687e85881f50a2f2271f96061fc4e01931890f780bcaca1bcdc68df6bb64736f6c63430008070033",
  "immutableReferences": {
    "1295": [
      {
        "length": 32,
        "start": 7207
      },
      {
        "length": 32,
        "start": 7361
      },
      {
        "length": 32,
        "start": 7516
      }
    ],
    "1297": [
      {
        "length": 32,
        "start": 1964
      },
      {
        "length": 32,
        "start": 7287
      },
      {
        "length": 32,
        "start": 7398
      },
      {
        "length": 32,
        "start": 7459
      }
    ]
  },
  "source": "// SPDX-License-Identifier: MIT\r\n\r\npragma solidity ^0.8.7;\r\n\r\nimport \"@openzeppelin/contracts/utils/math/SafeMath.sol\";\r\nimport \"./libs/ShibaBEP20.sol\";\r\nimport \"./interfaces/IMoneyPot.sol\";\r\n\r\n// SNovaToken with Governance.\r\ncontract SNovaToken is ShibaBEP20(\"ShibaNova share token sNova\", \"sNova\") {\r\n    using SafeMath for uint256;\r\n\r\n    struct HolderInfo {\r\n        uint256 avgTransactionBlock;\r\n    }\r\n\r\n\r\n    IMoneyPot public moneyPot;\r\n    ShibaBEP20 public Nova;\r\n    bool private _isNovaSetup = false;\r\n    bool private _isMoneyPotSetup = false;\r\n\r\n    uint256 public immutable SWAP_PENALTY_MAX_PERIOD ; // after 72h penalty of holding sNova. Swap penalty is at the minimum\r\n    uint256 public immutable SWAP_PENALTY_MAX_PER_SNova ; // 30% => 1 sNova = 0.3 Nova\r\n\r\n    mapping(address => HolderInfo) public holdersInfo;\r\n\r\n    constructor (uint256 swapPenaltyMaxPeriod, uint256 swapPenaltyMaxPerSNova) public{\r\n        SWAP_PENALTY_MAX_PERIOD = swapPenaltyMaxPeriod; // default 28800: after 24h penalty of holding sNova. Swap penalty is at the minimum\r\n        SWAP_PENALTY_MAX_PER_SNova = swapPenaltyMaxPerSNova.mul(1e10); // default: 30, 30% => 1 sNova = 0.3 Nova\r\n    }\r\n\r\n    function setupNova(ShibaBEP20 _Nova) external onlyOwner {\r\n        require(!_isNovaSetup);\r\n        Nova = _Nova;\r\n        _isNovaSetup = true;\r\n    }\r\n\r\n    function setupMoneyPot(IMoneyPot _moneyPot) external onlyOwner {\r\n        require(!_isMoneyPotSetup);\r\n        moneyPot = _moneyPot;\r\n        _isMoneyPotSetup = true;\r\n    }\r\n\r\n    /* Calculate the penality for swapping sNova to Nova for a user.\r\n       The penality decrease over time (by holding duration).\r\n       From SWAP_PENALTY_MAX_PER_SNova % to 0% on SWAP_PENALTY_MAX_PERIOD\r\n    */\r\n    function getPenaltyPercent(address _holderAddress) public view returns (uint256){\r\n        HolderInfo storage holderInfo = holdersInfo[_holderAddress];\r\n        if(block.number >= holderInfo.avgTransactionBlock.add(SWAP_PENALTY_MAX_PERIOD)){\r\n            return 0;\r\n        }\r\n        if(block.number == holderInfo.avgTransactionBlock){\r\n            return SWAP_PENALTY_MAX_PER_SNova;\r\n        }\r\n        uint256 avgHoldingDuration = block.number.sub(holderInfo.avgTransactionBlock);\r\n        return SWAP_PENALTY_MAX_PER_SNova.sub(\r\n            SWAP_PENALTY_MAX_PER_SNova.mul(avgHoldingDuration).div(SWAP_PENALTY_MAX_PERIOD)\r\n        );\r\n    }\r\n\r\n    /* Allow use to exchange (swap) their sNova to Nova */\r\n    function swapToNova(uint256 _amount) external {\r\n        require(_amount > 0, \"amount 0\");\r\n        address _from = msg.sender;\r\n        uint256 NovaAmount = _swapNovaAmount( _from, _amount);\r\n        holdersInfo[_from].avgTransactionBlock = _getAvgTransactionBlock(_from, holdersInfo[_from], _amount, true);\r\n        super._burn(_from, _amount);\r\n        Nova.mint(_from, NovaAmount);\r\n\r\n        if (address(moneyPot) != address(0)) {\r\n            moneyPot.updateSNovaHolder(_from);\r\n        }\r\n    }\r\n\r\n    /* @notice Preview swap return in Nova with _sNovaAmount by _holderAddress\r\n    *  this function is used by front-end to show how much Nova will be retrieve if _holderAddress swap _sNovaAmount\r\n    */\r\n    function previewSwapNovaExpectedAmount(address _holderAddress, uint256 _sNovaAmount) external view returns (uint256 expectedNova){\r\n        return _swapNovaAmount( _holderAddress, _sNovaAmount);\r\n    }\r\n\r\n    /* @notice Calculate the adjustment for a user if he want to swap _sNovaAmount to Nova */\r\n    function _swapNovaAmount(address _holderAddress, uint256 _sNovaAmount) internal view returns (uint256 expectedNova){\r\n        require(balanceOf(_holderAddress) >= _sNovaAmount, \"Not enough sNova\");\r\n        uint256 penalty = getPenaltyPercent(_holderAddress);\r\n        if(penalty == 0){\r\n            return _sNovaAmount;\r\n        }\r\n\r\n        return _sNovaAmount.sub(_sNovaAmount.mul(penalty).div(1e12));\r\n    }\r\n\r\n    /* @notice Calculate average deposit/withdraw block for _holderAddress */\r\n    function _getAvgTransactionBlock(address _holderAddress, HolderInfo storage holderInfo, uint256 _sNovaAmount, bool _onWithdraw) internal view returns (uint256){\r\n        if (balanceOf(_holderAddress) == 0) {\r\n            return block.number;\r\n        }\r\n        uint256 transactionBlockWeight;\r\n        if (_onWithdraw) {\r\n            if (balanceOf(_holderAddress) == _sNovaAmount) {\r\n                return 0;\r\n            }\r\n            else {\r\n                return holderInfo.avgTransactionBlock;\r\n            }\r\n        }\r\n        else {\r\n            transactionBlockWeight = (balanceOf(_holderAddress).mul(holderInfo.avgTransactionBlock).add(block.number.mul(_sNovaAmount)));\r\n        }\r\n        return transactionBlockWeight.div(balanceOf(_holderAddress).add(_sNovaAmount));\r\n    }\r\n\r\n\r\n    /// @notice Creates `_amount` token to `_to`.\r\n    function mint(address _to, uint256 _amount) external virtual override onlyOwner {\r\n        HolderInfo storage holder = holdersInfo[_to];\r\n        holder.avgTransactionBlock = _getAvgTransactionBlock(_to, holder, _amount, false);\r\n        _mint(_to, _amount);\r\n        _moveDelegates(address(0), _delegates[_to], _amount);\r\n\r\n        if (address(moneyPot) != address(0)) {\r\n            moneyPot.updateSNovaHolder(_to);\r\n        }\r\n    }\r\n\r\n    /// @dev overrides transfer function to meet tokenomics of SNova\r\n    function _transfer(address _sender, address _recipient, uint256 _amount) internal virtual override {\r\n        holdersInfo[_sender].avgTransactionBlock = _getAvgTransactionBlock(_sender, holdersInfo[_sender], _amount, true);\r\n        if (_recipient == BURN_ADDRESS) {\r\n            super._burn(_sender, _amount);\r\n            if (address(moneyPot) != address(0)) {\r\n                moneyPot.updateSNovaHolder(_sender);\r\n            }\r\n        } else {\r\n            holdersInfo[_recipient].avgTransactionBlock = _getAvgTransactionBlock(_recipient, holdersInfo[_recipient], _amount, false);\r\n            super._transfer(_sender, _recipient, _amount);\r\n\r\n            if (address(moneyPot) != address(0)) {\r\n                moneyPot.updateSNovaHolder(_sender);\r\n                if (_sender != _recipient){\r\n                    moneyPot.updateSNovaHolder(_recipient);\r\n                }\r\n            }\r\n        }\r\n        _moveDelegates(_delegates[msg.sender], _delegates[_recipient], _amount); // Moves Delegates during transfer\r\n    }\r\n\r\n    // Copied and modified from YAM code:\r\n    // https://github.com/yam-finance/yam-protocol/blob/master/contracts/token/YAMGovernanceStorage.sol\r\n    // https://github.com/yam-finance/yam-protocol/blob/master/contracts/token/YAMGovernance.sol\r\n    // Which is copied and modified from COMPOUND:\r\n    // https://github.com/compound-finance/compound-protocol/blob/master/contracts/Governance/Comp.sol\r\n\r\n    /// @dev A record of each accounts delegate\r\n    mapping(address => address) internal _delegates;\r\n\r\n    /// @notice A checkpoint for marking number of votes from a given block\r\n    struct Checkpoint {\r\n        uint32 fromBlock;\r\n        uint256 votes;\r\n    }\r\n\r\n    /// @notice A record of votes checkpoints for each account, by index\r\n    mapping(address => mapping(uint32 => Checkpoint)) public checkpoints;\r\n\r\n    /// @notice The number of checkpoints for each account\r\n    mapping(address => uint32) public numCheckpoints;\r\n\r\n    /// @notice The EIP-712 typehash for the contract's domain\r\n    bytes32 public constant DOMAIN_TYPEHASH =\r\n    keccak256(\"EIP712Domain(string name,uint256 chainId,address verifyingContract)\");\r\n\r\n    /// @notice The EIP-712 typehash for the delegation struct used by the contract\r\n    bytes32 public constant DELEGATION_TYPEHASH =\r\n    keccak256(\"Delegation(address delegatee,uint256 nonce,uint256 expiry)\");\r\n\r\n    /// @notice A record of states for signing / validating signatures\r\n    mapping(address => uint) public nonces;\r\n\r\n    /// @notice An event thats emitted when an account changes its delegate\r\n    event DelegateChanged(address indexed delegator, address indexed fromDelegate, address indexed toDelegate);\r\n\r\n    /// @notice An event thats emitted when a delegate account's vote balance changes\r\n    event DelegateVotesChanged(address indexed delegate, uint previousBalance, uint newBalance);\r\n\r\n    /**\r\n     * @notice Delegate votes from `msg.sender` to `delegatee`\r\n     * @param delegator The address to get delegatee for\r\n     */\r\n    function delegates(address delegator)\r\n    external\r\n    view\r\n    returns (address)\r\n    {\r\n        return _delegates[delegator];\r\n    }\r\n\r\n    /**\r\n     * @notice Delegate votes from `msg.sender` to `delegatee`\r\n     * @param delegatee The address to delegate votes to\r\n     */\r\n    function delegate(address delegatee) external {\r\n        return _delegate(msg.sender, delegatee);\r\n    }\r\n\r\n    /**\r\n     * @notice Delegates votes from signatory to `delegatee`\r\n     * @param delegatee The address to delegate votes to\r\n     * @param nonce The contract state required to match the signature\r\n     * @param expiry The time at which to expire the signature\r\n     * @param v The recovery byte of the signature\r\n     * @param r Half of the ECDSA signature pair\r\n     * @param s Half of the ECDSA signature pair\r\n     */\r\n    function delegateBySig(\r\n        address delegatee,\r\n        uint nonce,\r\n        uint expiry,\r\n        uint8 v,\r\n        bytes32 r,\r\n        bytes32 s\r\n    )\r\n    external\r\n    {\r\n        bytes32 domainSeparator = keccak256(\r\n            abi.encode(\r\n                DOMAIN_TYPEHASH,\r\n                keccak256(bytes(name())),\r\n                getChainId(),\r\n                address(this)\r\n            )\r\n        );\r\n\r\n        bytes32 structHash = keccak256(\r\n            abi.encode(\r\n                DELEGATION_TYPEHASH,\r\n                delegatee,\r\n                nonce,\r\n                expiry\r\n            )\r\n        );\r\n\r\n        bytes32 digest = keccak256(\r\n            abi.encodePacked(\r\n                \"\\x19\\x01\",\r\n                domainSeparator,\r\n                structHash\r\n            )\r\n        );\r\n\r\n        address signatory = ecrecover(digest, v, r, s);\r\n        require(signatory != address(0), \"Nova::delegateBySig: invalid signature\");\r\n        require(nonce == nonces[signatory]++, \"Nova::delegateBySig: invalid nonce\");\r\n        require(block.timestamp <= expiry, \"Nova::delegateBySig: signature expired\");\r\n        return _delegate(signatory, delegatee);\r\n    }\r\n\r\n    /**\r\n     * @notice Gets the current votes balance for `account`\r\n     * @param account The address to get votes balance\r\n     * @return The number of current votes for `account`\r\n     */\r\n    function getCurrentVotes(address account)\r\n    external\r\n    view\r\n    returns (uint256)\r\n    {\r\n        uint32 nCheckpoints = numCheckpoints[account];\r\n        return nCheckpoints > 0 ? checkpoints[account][nCheckpoints - 1].votes : 0;\r\n    }\r\n\r\n    /**\r\n     * @notice Determine the prior number of votes for an account as of a block number\r\n     * @dev Block number must be a finalized block or else this function will revert to prevent misinformation.\r\n     * @param account The address of the account to check\r\n     * @param blockNumber The block number to get the vote balance at\r\n     * @return The number of votes the account had as of the given block\r\n     */\r\n    function getPriorVotes(address account, uint blockNumber)\r\n    external\r\n    view\r\n    returns (uint256)\r\n    {\r\n        require(blockNumber < block.number, \"Nova::getPriorVotes: not yet determined\");\r\n\r\n        uint32 nCheckpoints = numCheckpoints[account];\r\n        if (nCheckpoints == 0) {\r\n            return 0;\r\n        }\r\n\r\n        // First check most recent balance\r\n        if (checkpoints[account][nCheckpoints - 1].fromBlock <= blockNumber) {\r\n            return checkpoints[account][nCheckpoints - 1].votes;\r\n        }\r\n\r\n        // Next check implicit zero balance\r\n        if (checkpoints[account][0].fromBlock > blockNumber) {\r\n            return 0;\r\n        }\r\n\r\n        uint32 lower = 0;\r\n        uint32 upper = nCheckpoints - 1;\r\n        while (upper > lower) {\r\n            uint32 center = upper - (upper - lower) / 2;\r\n            // ceil, avoiding overflow\r\n            Checkpoint memory cp = checkpoints[account][center];\r\n            if (cp.fromBlock == blockNumber) {\r\n                return cp.votes;\r\n            } else if (cp.fromBlock < blockNumber) {\r\n                lower = center;\r\n            } else {\r\n                upper = center - 1;\r\n            }\r\n        }\r\n        return checkpoints[account][lower].votes;\r\n    }\r\n\r\n    function _delegate(address delegator, address delegatee)\r\n    internal\r\n    {\r\n        address currentDelegate = _delegates[delegator];\r\n        uint256 delegatorBalance = balanceOf(delegator);\r\n        // balance of underlying Novas (not scaled);\r\n        _delegates[delegator] = delegatee;\r\n\r\n        emit DelegateChanged(delegator, currentDelegate, delegatee);\r\n\r\n        _moveDelegates(currentDelegate, delegatee, delegatorBalance);\r\n    }\r\n\r\n    function _moveDelegates(address srcRep, address dstRep, uint256 amount) internal {\r\n        if (srcRep != dstRep && amount > 0) {\r\n            if (srcRep != address(0)) {\r\n                // decrease old representative\r\n                uint32 srcRepNum = numCheckpoints[srcRep];\r\n                uint256 srcRepOld = srcRepNum > 0 ? checkpoints[srcRep][srcRepNum - 1].votes : 0;\r\n                uint256 srcRepNew = srcRepOld.sub(amount);\r\n                _writeCheckpoint(srcRep, srcRepNum, srcRepOld, srcRepNew);\r\n            }\r\n\r\n            if (dstRep != address(0)) {\r\n                // increase new representative\r\n                uint32 dstRepNum = numCheckpoints[dstRep];\r\n                uint256 dstRepOld = dstRepNum > 0 ? checkpoints[dstRep][dstRepNum - 1].votes : 0;\r\n                uint256 dstRepNew = dstRepOld.add(amount);\r\n                _writeCheckpoint(dstRep, dstRepNum, dstRepOld, dstRepNew);\r\n            }\r\n        }\r\n    }\r\n\r\n    function _writeCheckpoint(\r\n        address delegatee,\r\n        uint32 nCheckpoints,\r\n        uint256 oldVotes,\r\n        uint256 newVotes\r\n    )\r\n    internal\r\n    {\r\n        uint32 blockNumber = safe32(block.number, \"Nova::_writeCheckpoint: block number exceeds 32 bits\");\r\n\r\n        if (nCheckpoints > 0 && checkpoints[delegatee][nCheckpoints - 1].fromBlock == blockNumber) {\r\n            checkpoints[delegatee][nCheckpoints - 1].votes = newVotes;\r\n        } else {\r\n            checkpoints[delegatee][nCheckpoints] = Checkpoint(blockNumber, newVotes);\r\n            numCheckpoints[delegatee] = nCheckpoints + 1;\r\n        }\r\n\r\n        emit DelegateVotesChanged(delegatee, oldVotes, newVotes);\r\n    }\r\n\r\n    function safe32(uint n, string memory errorMessage) internal pure returns (uint32) {\r\n        require(n < 2 ** 32, errorMessage);\r\n        return uint32(n);\r\n    }\r\n\r\n    function getChainId() internal view returns (uint) {\r\n        uint256 chainId;\r\n        assembly {chainId := chainid()}\r\n        return chainId;\r\n    }\r\n}",
  "sourcePath": "D:/Novaria/contracts/SNovaToken.sol",
  "compiler": {
    "name": "solc",
    "version": "0.8.7+commit.e28d00a7.Emscripten.clang"
  },
  "schemaVersion": "3.2.3",
  "updatedAt": "2021-12-15T01:45:32.262Z",
  "devdoc": {
    "kind": "dev",
    "methods": {
      "allowance(address,address)": {
        "details": "See {BEP20-allowance}."
      },
      "approve(address,uint256)": {
        "details": "See {BEP20-approve}. Requirements: - `spender` cannot be the zero address."
      },
      "balanceOf(address)": {
        "details": "See {BEP20-balanceOf}."
      },
      "burnSupply()": {
        "details": "See {BEP20-totalSupply}."
      },
      "decimals()": {
        "details": "Returns the token decimals."
      },
      "decreaseAllowance(address,uint256)": {
        "details": "Atomically decreases the allowance granted to `spender` by the caller. This is an alternative to {approve} that can be used as a mitigation for problems described in {BEP20-approve}. Emits an {Approval} event indicating the updated allowance. Requirements: - `spender` cannot be the zero address. - `spender` must have allowance for the caller of at least `subtractedValue`."
      },
      "delegate(address)": {
        "params": {
          "delegatee": "The address to delegate votes to"
        }
      },
      "delegateBySig(address,uint256,uint256,uint8,bytes32,bytes32)": {
        "params": {
          "delegatee": "The address to delegate votes to",
          "expiry": "The time at which to expire the signature",
          "nonce": "The contract state required to match the signature",
          "r": "Half of the ECDSA signature pair",
          "s": "Half of the ECDSA signature pair",
          "v": "The recovery byte of the signature"
        }
      },
      "delegates(address)": {
        "params": {
          "delegator": "The address to get delegatee for"
        }
      },
      "getCurrentVotes(address)": {
        "params": {
          "account": "The address to get votes balance"
        },
        "returns": {
          "_0": "The number of current votes for `account`"
        }
      },
      "getOwner()": {
        "details": "Returns the bep token owner."
      },
      "getPriorVotes(address,uint256)": {
        "details": "Block number must be a finalized block or else this function will revert to prevent misinformation.",
        "params": {
          "account": "The address of the account to check",
          "blockNumber": "The block number to get the vote balance at"
        },
        "returns": {
          "_0": "The number of votes the account had as of the given block"
        }
      },
      "increaseAllowance(address,uint256)": {
        "details": "Atomically increases the allowance granted to `spender` by the caller. This is an alternative to {approve} that can be used as a mitigation for problems described in {BEP20-approve}. Emits an {Approval} event indicating the updated allowance. Requirements: - `spender` cannot be the zero address."
      },
      "name()": {
        "details": "Returns the token name."
      },
      "owner()": {
        "details": "Returns the address of the current owner."
      },
      "renounceOwnership()": {
        "details": "Leaves the contract without owner. It will not be possible to call `onlyOwner` functions anymore. Can only be called by the current owner. NOTE: Renouncing ownership will leave the contract without an owner, thereby removing any functionality that is only available to the owner."
      },
      "symbol()": {
        "details": "Returns the token symbol."
      },
      "totalSupply()": {
        "details": "See {BEP20-totalSupply}."
      },
      "transfer(address,uint256)": {
        "details": "See {BEP20-transfer}. Requirements: - `recipient` cannot be the zero address. - the caller must have a balance of at least `amount`."
      },
      "transferFrom(address,address,uint256)": {
        "details": "See {BEP20-transferFrom}. Emits an {Approval} event indicating the updated allowance. This is not required by the EIP. See the note at the beginning of {BEP20}; Requirements: - `sender` and `recipient` cannot be the zero address. - `sender` must have a balance of at least `amount`. - the caller must have allowance for `sender`'s tokens of at least `amount`."
      },
      "transferOwnership(address)": {
        "details": "Transfers ownership of the contract to a new account (`newOwner`). Can only be called by the current owner."
      }
    },
    "stateVariables": {
      "_delegates": {
        "details": "A record of each accounts delegate"
      }
    },
    "version": 1
  },
  "userdoc": {
    "events": {
      "DelegateChanged(address,address,address)": {
        "notice": "An event thats emitted when an account changes its delegate"
      },
      "DelegateVotesChanged(address,uint256,uint256)": {
        "notice": "An event thats emitted when a delegate account's vote balance changes"
      }
    },
    "kind": "user",
    "methods": {
      "DELEGATION_TYPEHASH()": {
        "notice": "The EIP-712 typehash for the delegation struct used by the contract"
      },
      "DOMAIN_TYPEHASH()": {
        "notice": "The EIP-712 typehash for the contract's domain"
      },
      "checkpoints(address,uint32)": {
        "notice": "A record of votes checkpoints for each account, by index"
      },
      "delegate(address)": {
        "notice": "Delegate votes from `msg.sender` to `delegatee`"
      },
      "delegateBySig(address,uint256,uint256,uint8,bytes32,bytes32)": {
        "notice": "Delegates votes from signatory to `delegatee`"
      },
      "delegates(address)": {
        "notice": "Delegate votes from `msg.sender` to `delegatee`"
      },
      "getCurrentVotes(address)": {
        "notice": "Gets the current votes balance for `account`"
      },
      "getPriorVotes(address,uint256)": {
        "notice": "Determine the prior number of votes for an account as of a block number"
      },
      "mint(address,uint256)": {
        "notice": "Creates `_amount` token to `_to`."
      },
      "nonces(address)": {
        "notice": "A record of states for signing / validating signatures"
      },
      "numCheckpoints(address)": {
        "notice": "The number of checkpoints for each account"
      }
    },
    "version": 1
  }
}